:020000040800F2
:1000000000000220C9450008013D0008033D00082A
:10001000053D0008073D0008093D000800000000FC
:100020000000000000000000000000000B3D000880
:100030000D3D0008000000000F3D0008113D0008C4
:100040001946000819460008194600081946000814
:100050001946000819460008194600081946000804
:1000600019460008194600081946000819460008F4
:10007000194600081946000819460008153D0008F1
:10008000213D0008194600081946000819460008D5
:100090001946000819460008194600082D3D0008B9
:1000A000CD3D0008C93D00084D3D0008BD3D00089C
:1000B00019460008D13D00081946000819460008F5
:1000C0001946000819460008194600081946000894
:1000D0001946000819460008DD3D0008E93D000802
:1000E0001946000819460008194600081946000874
:1000F000F53D000819460008194600081946000891
:100100001946000819460008194600081946000853
:100110001946000819460008013E0008153E00086F
:100120001946000819460008194600081946000833
:1001300019460008000000000000000019460008F1
:100140001946000819460008194600081946000813
:100150001946000819460008194600081946000803
:1001600019460008194600081946000819460008F3
:10017000194600081946000819460008000000004A
:100180000000000019460008000000000000000008
:100190001946000800000000000000001946000891
:1001A00000000000000000000000000019460008E8
:1001B00019460008194600081946000819460008A3
:0401C00019460008D4
:1001D00010B5054C237833B9044B13B10448AFF381
:1001E00000800123237010BD90000020000000005B
:1001F000C84E000808B5034B1BB103490348AFF3D1
:10020000008008BD0000000094000020C84E0008D7
:10021000034613F8012B002AFBD1181A0138704746
:1002200001F0FF01102A2BDB10F0070F08D010F8A7
:10023000013B013A8B422DD010F0070F42B3F6D1AB
:10024000F0B441EA012141EA014122F007047FF0C4
:1002500000070023F0E80256083C85EA010586EA1B
:10026000010685FA47F5A3FA87F586FA47F6A5FA57
:1002700087F68EB9EED1F0BC01F0FF0102F0070263
:1002800032B110F8013B013A83EA010313B1F8D10E
:100290000020704701387047002D06BF35460338EF
:1002A000073815F0010F07D1013015F4807F02BF28
:1002B000013015F4C03F0130F0BC0138704700BF79
:1002C00081F0004102E000BF83F0004330B54FEA07
:1002D00041044FEA430594EA050F08BF90EA020F74
:1002E0001FBF54EA000C55EA020C7FEA645C7FEA07
:1002F000655C00F0E2804FEA5454D4EB5555B8BF2A
:100300006D420CDD2C4480EA020281EA030382EA9A
:10031000000083EA010180EA020281EA0303362D2C
:1003200088BF30BD11F0004F4FEA01314FF4801CFF
:100330004CEA113102D0404261EB410113F0004F11
:100340004FEA03334CEA133302D0524263EB4303C8
:1003500094EA050F00F0A780A4F10104D5F1200E66
:100360000DDB02FA0EFC22FA05F2801841F10001C1
:1003700003FA0EF2801843FA05F359410EE0A5F195
:1003800020050EF1200E012A03FA0EFC28BF4CF0C6
:10039000020C43FA05F3C01851EBE37101F000457C
:1003A00007D54FF0000EDCF1000C7EEB00006EEB89
:1003B0000101B1F5801F1BD3B1F5001F0CD3490813
:1003C0005FEA30004FEA3C0C04F101044FEA44526A
:1003D00012F5800F80F09A80BCF1004F08BF5FEAF1
:1003E000500C50F1000041EB045141EA050130BDD1
:1003F0005FEA4C0C404141EB010111F4801FA4F174
:100400000104E9D191F0000F04BF01460020B1FAC8
:1004100081F308BF2033A3F10B03B3F120020CDA00
:100420000C3208DD02F1140CC2F10C0201FA0CF0DE
:1004300021FA02F10CE002F11402D8BFC2F1200C43
:1004400001FA02F120FA0CFCDCBF41EA0C019040F9
:10045000E41AA2BF01EB0451294330BD6FEA040442
:100460001F3C1CDA0C340EDC04F11404C4F120022D
:1004700020FA04F001FA02F340EA030021FA04F33F
:1004800045EA030130BDC4F10C04C4F1200220FA96
:1004900002F001FA04F340EA0300294630BD21FAD4
:1004A00004F0294630BD94F0000F83F4801306BF9A
:1004B00081F480110134013D4EE77FEA645C18BF8E
:1004C0007FEA655C29D094EA050F08BF90EA020F25
:1004D00005D054EA000C04BF1946104630BD91EA1D
:1004E000030F1EBF0021002030BD5FEA545C05D120
:1004F0004000494128BF41F0004130BD14F580045F
:100500003CBF01F5801130BD01F0004545F0FE41D2
:1005100041F470014FF0000030BD7FEA645C1ABF07
:10052000194610467FEA655C1CBF0B46024650EA3E
:10053000013406BF52EA033591EA030F41F400216A
:1005400030BD00BF90F0000F04BF0021704730B5F0
:100550004FF4806404F132044FF000054FF00001C5
:1005600050E700BF90F0000F04BF0021704730B586
:100570004FF4806404F1320410F0004548BF40425B
:100580004FF000013EE700BF42004FEAE2014FEAB0
:1005900031014FEA02701FBF12F07F4393F07F4F8B
:1005A00081F06051704792F0000F14BF93F07F4FBD
:1005B000704730B54FF4607401F0004521F0004100
:1005C00020E700BF50EA010208BF704730B54FF086
:1005D00000050AE050EA010208BF704730B511F08B
:1005E000004502D5404261EB41014FF4806404F1C3
:1005F00032045FEA915C3FF4DCAE4FF003025FEA45
:10060000DC0C18BF03325FEADC0C18BF033202EBCC
:10061000DC02C2F1200300FA03FC20FA02F001FA26
:1006200003FE40EA0E0021FA02F11444C1E600BFC5
:1006300070B54FF0FF0C4CF4E06C1CEA11541DBF78
:100640001CEA135594EA0C0F95EA0C0F00F0DEF843
:100650002C4481EA030621EA4C5123EA4C5350EA28
:10066000013518BF52EA033541F4801143F4801379
:1006700038D0A0FB02CE4FF00005E1FB02E506F00A
:100680000042E0FB03E54FF00006E1FB03569CF05F
:10069000000F18BF4EF0010EA4F1FF04B6F5007F65
:1006A00064F5407404D25FEA4E0E6D4146EB0606D7
:1006B00042EAC62141EA55514FEAC52040EA5E5060
:1006C0004FEACE2EB4F1FD0C88BFBCF5E06F1ED80A
:1006D000BEF1004F08BF5FEA500E50F1000041EB41
:1006E000045170BD06F0004646EA010140EA0200EE
:1006F00081EA0301B4EB5C04C2BFD4EB0C0541EA10
:10070000045170BD41F480114FF0000E013C00F324
:10071000AB8014F1360FDEBF002001F0004170BD48
:10072000C4F10004203C35DA0C341BDC04F1140461
:10073000C4F1200500FA05F320FA04F001FA05F2ED
:1007400040EA020001F0004221F0004110EBD370BA
:1007500021FA04F642EB06015EEA430E08BF20EAE6
:10076000D37070BDC4F10C04C4F1200500FA04F389
:1007700020FA05F001FA04F240EA020001F000411B
:1007800010EBD37041F100015EEA430E08BF20EA8E
:10079000D37070BDC4F1200500FA05F24EEA020ED6
:1007A00020FA04F301FA05F243EA020321FA04F005
:1007B00001F0004121FA04F220EA020000EBD370BC
:1007C0005EEA430E08BF20EAD37070BD94F0000FBC
:1007D0000FD101F00046400041EB010111F4801FF0
:1007E00008BF013CF7D041EA060195F0000F18BFA1
:1007F000704703F00046520043EB030313F4801FDD
:1008000008BF013DF7D043EA0603704794EA0C0F96
:100810000CEA135518BF95EA0C0F0CD050EA4106AC
:1008200018BF52EA4306D1D181EA030101F0004129
:100830004FF0000070BD50EA410606BF1046194651
:1008400052EA430619D094EA0C0F02D150EA01365D
:1008500013D195EA0C0F05D152EA03361CBF10469E
:1008600019460AD181EA030101F0004141F0FE413D
:1008700041F470014FF0000070BD41F0FE4141F4C1
:10088000780170BD70B54FF0FF0C4CF4E06C1CEAC1
:1008900011541DBF1CEA135594EA0C0F95EA0C0F76
:1008A00000F0A7F8A4EB050481EA030E52EA033531
:1008B0004FEA013100F088804FEA03334FF0805552
:1008C00045EA131343EA12634FEA022245EA11157F
:1008D00045EA10654FEA00260EF000419D4208BF30
:1008E000964244F1FD0404F5407402D25B084FEADD
:1008F0003202B61A65EB03055B084FEA32024FF489
:1009000080104FF4002CB6EB020E75EB030E22BFE5
:10091000B61A754640EA0C005B084FEA3202B6EBA5
:10092000020E75EB030E22BFB61A754640EA5C0054
:100930005B084FEA3202B6EB020E75EB030E22BFE4
:10094000B61A754640EA9C005B084FEA3202B6EBE5
:10095000020E75EB030E22BFB61A754640EADC00A4
:1009600055EA060E18D04FEA051545EA16754FEA06
:1009700006164FEAC30343EA52734FEAC2025FEA24
:100980001C1CC0D111F4801F0BD141EA00014FF0B3
:1009900000004FF0004CB6E711F4801F04BF014384
:1009A0000020B4F1FD0C88BFBCF5E06F3FF6AFAEA0
:1009B000B5EB030C04BFB6EB020C5FEA500C50F130
:1009C000000041EB045170BD0EF0004E4EEA1131B3
:1009D00014EB5C04C2BFD4EB0C0541EA045170BDBA
:1009E00041F480114FF0000E013C90E645EA060EFE
:1009F0008DE60CEA135594EA0C0F08BF95EA0C0F2C
:100A00003FF43BAF94EA0C0F0AD150EA01347FF473
:100A100034AF95EA0C0F7FF425AF104619462CE74A
:100A200095EA0C0F06D152EA03353FF4FDAE1046AD
:100A3000194622E750EA410618BF52EA43067FF4FE
:100A4000C5AE50EA41047FF40DAF52EA43057FF48E
:100A5000EBAE12E74FEA410212F5001215D211D5A2
:100A60006FF47873B3EB625212D94FEAC12343F0AB
:100A7000004343EA505311F0004F23FA02F018BF2D
:100A8000404270474FF00000704750EA013005D1F6
:100A900011F0004008BF6FF0004070474FF00000B9
:100AA000704700BF4A0011D212F5001211D20DD5C5
:100AB0006FF47873B3EB62520ED44FEAC12343F064
:100AC000004343EA505323FA02F070474FF000000E
:100AD000704750EA013002D14FF0FF3070474FF0BD
:100AE0000000704753B94AB9002908BF00281CBF4D
:100AF0004FF0FF314FF0FF3000F07AB9ADF1080C44
:100B00006DE904CE00F006F8DDF804E0DDE902232B
:100B100004B070472DE9F0478C460D460446089E08
:100B2000002B51D18A4217466DD9B2FA82FEBEF12E
:100B3000000F0BD0CEF1200C01FA0EF520FA0CFCC0
:100B400002FA0EF74CEA050C00FA0EF44FEA174AC7
:100B5000250CBCFBFAF81FFA87F90AFB18CC45EA0A
:100B60000C4508FB09F3AB420AD9ED1908F1FF3235
:100B700080F02381AB4240F22081A8F102083D447D
:100B8000ED1AA4B2B5FBFAF00AFB105544EA05448D
:100B900000FB09F9A14509D9E41900F1FF3380F000
:100BA0000A81A14540F2078102383C44A4EB0904C4
:100BB00040EA08400021002E61D024FA0EF4002300
:100BC00034607360BDE8F0878B4207D9002E54D0A3
:100BD000002186E821000846BDE8F087B3FA83F1DA
:100BE000002940F08E80AB4202D3824200F2FA80AC
:100BF000841A65EB03050120AC46002E3FD086E841
:100C00001010BDE8F08712B90127B7FBF2F7B7FA69
:100C100087FEBEF1000F34D1EB1B3A0C1FFA87FCA4
:100C20000121B3FBF2F8250C02FB183345EA03451A
:100C30000CFB08F3AB4207D9ED1908F1FF3002D2E3
:100C4000AB4200F2D1808046ED1AA3B2B5FBF2F0C0
:100C500002FB105543EA05440CFB00FCA44507D9F0
:100C6000E41900F1FF3302D2A44500F2B88018461F
:100C7000A4EB0C0440EA08409DE731463046BDE84D
:100C8000F087CEF1200405FA0EF307FA0EF720FAEA
:100C900004F83A0C25FA04F448EA0308B4FBF2F12C
:100CA0004FEA184502FB11441FFA87FC45EA044548
:100CB00001FB0CF3AB4200FA0EF409D9ED1901F176
:100CC000FF3080F08A80AB4240F2878002393D4499
:100CD000EB1A1FFA88F5B3FBF2F002FB103345EA7A
:100CE000034500FB0CF3AB4207D9ED1900F1FF38C7
:100CF0006FD2AB426DD902383D44EB1A40EA014154
:100D00008FE7C1F1200722FA07F88B4005FA01F4BA
:100D100048EA030320FA07FE4FEA134CFD404EEA6F
:100D2000040EB5FBFCF94FEA1E440CFB19551FFAE3
:100D300083F844EA054509FB08F4AC4202FA01F2E3
:100D400000FA01FA08D9ED1809F1FF3043D2AC429C
:100D500041D9A9F102091D442D1B1FFA8EFEB5FBD6
:100D6000FCF00CFB10554EEA054400FB08F8A045CA
:100D700007D9E41800F1FF3529D2A04527D9023858
:100D80001C4440EA0940A4EB0804A0FB02894C453E
:100D9000C6464D4615D312D056B1BAEB0E0364EBDE
:100DA000050404FA07F7CB401F43CC40376074605A
:100DB0000021BDE8F0871846F8E69046E0E6C24517
:100DC000EAD2B8EB020E69EB03050138E4E72846E6
:100DD000D7E7404691E78146BEE7014678E702380B
:100DE0003C4445E7084608E7A8F102083D442BE7E4
:100DF000704700BF38B50E4A0E4B054618784FF4C1
:100E00007A73B3FBF0F31068B0FBF3F000F0AAF8CC
:100E1000044658B90F2D09D8024629464FF0FF3035
:100E200000F05EF8044B20461D6038BD012038BD3F
:100E300028000020000000200400002008B50B4B13
:100E40001A6842F400721A601A6842F480621A60EA
:100E50001A6842F480721A60032000F02FF8002014
:100E6000FFF7C8FF02F02AFF002008BD003C024047
:100E7000034A044B11681B780B441360704700BF92
:100E80002005002000000020014B1868704700BFBB
:100E90002005002038B50446FFF7F6FF631C1CBF91
:100EA000054B1B78054618BFE418FFF7EDFF401B04
:100EB0008442FAD838BD00BF00000020074AD3683A
:100EC00023F4E0631B041B0C43F0BF63000243F4F4
:100ED000003300F4E0600343D360704700ED00E0AE
:100EE000174B30B5DC68C4F30224C4F10703251D99
:100EF000042B28BF0423062D4FF0010505FA03F348
:100F000003F1FF338CBF033C00241940A14005FAD4
:100F100004F4013C2240002842EA01024FEA021296
:100F2000ADBF00F1604000F00F00064B00F56140DE
:100F3000B5BFD2B2D2B21A5480F8002330BD00BF80
:100F400000ED00E014ED00E0002808DB4209012379
:100F500000F01F0003FA00F0014B43F82200704735
:100F600000E100E00138B0F1807F0AD2064B074A69
:100F70005860F02182F823100020072298601A6040
:100F800070470120704700BF10E000E000ED00E076
:100F90000368DAB223F47F7323F003031821103AB5
:100FA000B2FBF1F20449032A88BF0433895C8365EC
:100FB000C165806D704700BFE04E000870B5044603
:100FC000FFF762FF0546002C71D0002384F834300F
:100FD0002268022384F83530136823F0010313607C
:100FE00021680B68D8073CD40B68324D6268A06951
:100FF0001D40A3681343E2681343226913436269E7
:101000001343E26903431343226A1343626A042AC7
:1010100043EA050301BF266BE56A35432B430B60AA
:101020004B69042A23F0070343EA02030BD1A26AA7
:10103000E56A13433DB1F8B9012A2DD001D3022A44
:1010400001D1EA012BD44B612046FFF7A1FFE26DED
:101050003F239340836000200123606584F835308E
:1010600070BDFFF711FF401B0528B9D92023636528
:10107000032084F8350070BDB0F5005F13D1032A5A
:10108000E1D801A050F822F09F100008431000089A
:101090009F10000899100008B5F1C07FD3D14023FC
:1010A00063650120E5E7022AF9D9032AC8E7012090
:1010B00070BD00BF3F8010F070B590F83440012C37
:1010C00036D0012480F8344090F83540866D012CEC
:1010D0004FF000054FF0020428D180F83540046835
:1010E0004565256825F48025256063608368402B6D
:1010F0000EBFA260A160E260C26D08BFE1603F2345
:101100009340B360236843F016032360636943F0A0
:1011100080036361036C1BB1236843F00803236001
:10112000236843F001032360002070BD80F8345031
:10113000022070BD90F83530022B03D08023436528
:10114000012070470268052380F83530136823F0CA
:101150000103136000207047F7B5002301935A4B39
:10116000856D1F68C36D2E6808229A40164204469A
:101170000CD001680868400708D5086820F0040012
:101180000860AA60626D42F00102626501229A4025
:10119000164208D021684969090641BFAA60626DFC
:1011A00042F00202626504229A40164208D0216889
:1011B0000968880741BFAA60626D42F00402626557
:1011C00010229A40164210D02368196809070CD5DE
:1011D000AA601A68500335D51B68190301D4236C23
:1011E00000E0A36C0BB120469847E16D20228A40B5
:1011F000164238D023681868C60634D5AA6094F819
:101200003520052A1A6825D122F016021A605A697B
:1012100022F080025A61226C0AB9A26C1AB11A68D3
:1012200022F008021A603F238B40AB60002384F851
:101230003430012384F83530236D0BB120469847B4
:1012400003B0F0BD1A68D2055EBF1A6822F008022A
:101250001A60C4E7500328D51B68190332D4636CA5
:101260000BB120469847636D002BE9D0636DDA0718
:1012700019D50523226884F83530136823F001035B
:1012800013604FF41653B7FBF3F7019B01339F42F2
:10129000019302D31368DB07F7D4002384F83430BA
:1012A000012384F83530E36CC7E71A6812F48072C2
:1012B00008D1196821F010011960012384F8342045
:1012C00084F83530E36BCBE7280000202DE9F04FA0
:1012D00085B00B68DFF8A081654ADFF8A091019323
:1012E00000234FF0010E019C0EFA03FE0EEA0406E5
:1012F000B64540F0AA804C6824F01007022F16D1A2
:101300004FEAD30A00EB8A0A03F0070BDAF8205001
:101310004FEA8B0B4FF00F0C0CFA0BFC25EA0C0C70
:101320000D6905FA0BF545EA0C05CAF820504FEA9D
:10133000430A0325D0F800B005FA0AF5ED4304F09E
:10134000030C0BEA050B0CFA0AFC013F4CEA0B0CF0
:10135000012FC0F800C011D8876807EA050BCF68D5
:1013600007FA0AFC4CEA0B078760476827EA0E0E6B
:10137000C4F300179F4047EA0E074760C7683D4027
:101380008F6807FA0AF73D43C560E5005DD54FF069
:10139000000BCDF80CB0D8F84470364D47F48047B8
:1013A000C8F84470D8F8447007F480470397039F47
:1013B00023F0030707F1804707F59C3703F0030C80
:1013C000D7F808A04FEA8C0C4FF00F0E0EFA0CFE67
:1013D000A8422AEA0E0E3FD005F58065A8423DD00E
:1013E00005F58065A8423BD005F58065A84239D057
:1013F00005F58065A84237D0484537D005F500652A
:10140000A84214BF0725062505FA0CF545EA0E0586
:10141000BD601568F74314F4803F0CBF3D40354371
:101420001560556814F4003F0CBF3D4035435560CE
:10143000956814F4801F0CBF3D4035439560D56816
:10144000A40254BF3D403543D5600133102B7FF4D7
:1014500048AF05B0BDE8F08F5D46D5E70125D3E77D
:101460000225D1E70325CFE70425CDE70525CBE706
:10147000003C0140000002400038024000140240DD
:101480000369194214BF0120002070470AB181612D
:1014900070470904FBE7000008B5044B5969014295
:1014A00002D0586102F0FCFC08BD00BF003C0140C6
:1014B00037B500230193184B184C1A6C42F0805238
:1014C0001A641B6C03F080530193019B144B01229F
:1014D0001A60FFF7D9FC05466368DA030BD5114B98
:1014E0000E4C01221A60FFF7CFFC054663689B0390
:1014F0000AD5002006E0FFF7C7FC401BB0F57A7F55
:10150000EAD9032003B030BDFFF7BEFC401BB0F5A5
:101510007A7FEBD9F5E700BF003802400070004049
:1015200040000E4244000E422DE9F0410D460446B3
:1015300010B90120BDE8F081444B1A6802F00F0297
:101540008A4228D321688F072DD4C80740D43F4B47
:101550001A6802F00F02954266D3226851076CD4D4
:10156000130707D53A4A2169936823F4604343EA95
:10157000C103936000F092F8354B364A9B68C3F381
:101580000313D35CD840344B18600020FFF732FCC3
:101590000020BDE8F081CAB21A701B6803F00F0387
:1015A0009942C6D1CEE72A4B11F0040F1EBF9A68AC
:1015B00042F4E0529A600E0742BF9A6842F46042D9
:1015C0009A609A68A06822F0F00202439A60BCE731
:1015D00062681F4B012A1DD11B6813F4003FA8D07D
:1015E0001B4EB36823F003031343B360FFF74CFCB7
:1015F00041F288380746B368626803F00C03B3EB26
:10160000820FA4D0FFF740FCC01B4045F3D9032054
:10161000BDE8F081911E01291B6802D813F0007FFC
:10162000DDE713F0020FDAE7EAB21A701B6803F085
:101630000F039D427FF47DAF8FE70549E0688B681B
:1016400023F4E05303438B608AE700BF003C024071
:1016500000380240C54F000828000020044B054A0E
:101660009B68C3F38223D35C034A1068D840704759
:1016700000380240D54F000828000020044B054ADE
:101680009B68C3F34233D35C034A1068D840704769
:1016900000380240D54F000828000020204908B536
:1016A0008B6803F00C03082B07D00C2B20D01D4AAD
:1016B0001D48042B18BF104608BD4A684B6849688E
:1016C00013F4800314BF18481648C1F3881118BFDB
:1016D000002302F03F02A1FB0001FFF703FA104BC9
:1016E0005B68C3F3014301335B00B0FBF3F008BD5B
:1016F0004A684B68496813F4800314BF0A480948D4
:10170000C1F3881118BF002302F03F02A1FB0001C2
:10171000FFF7E8F9024B5B68C3F30273E5E700BF2C
:10172000003802400024F40000127A0003682DE91A
:10173000F341DF07044610D423689E0767D423686B
:101740001A0700F1B28023685B0700F1D080A2691C
:10175000002A40F0398100201EE0974B9A6802F081
:101760000C02042A10D09A6802F00C02082A02D156
:101770005B685D0208D4904B9A6802F00C020C2A58
:101780000DD15A6850020AD58B4B1B689903D3D5EB
:101790006368002BD0D1012002B0BDE8F0816268FF
:1017A000B2F5803F11D11A6842F480321A60FFF717
:1017B0006BFB814D06462B689A03BDD4FFF764FB93
:1017C000801B6428F7D90320E6E77B4DB2F5A02FF4
:1017D0002B6807D143F480232B602B6843F48033BC
:1017E0002B60E4E723F480332B602B6823F4802301
:1017F0002B60002ADBD1FFF747FB06462B689B03D3
:101800009AD5FFF741FB801B6428F7D9DBE76A4BC9
:101810009A6812F00C0F10D09A6802F00C02082A95
:1018200002D15B685F0208D5634A936803F00C033A
:101830000C2B11D153685E020ED45F4B1A689507CA
:1018400002D5E268012AA6D11A68216922F0F802BD
:1018500042EAC1021A6072E7E268584BB2B1012253
:101860001A60FFF711FB544D06462B68980707D501
:101870002B68226923F0F80343EAC2032B605EE77A
:10188000FFF702FB801B0228EFD99CE71A60FFF7E5
:10189000FBFA494D06462B6899077FF550AFFFF7D5
:1018A000F3FA801B0228F6D98DE76269444B7AB1BE
:1018B00001221A60FFF7E8FA3F4D06466B6F9F075B
:1018C0003FF541AFFFF7E0FA801B0228F6D97AE72F
:1018D0001A60FFF7D9FA384D06466B6F98077FF507
:1018E00032AFFFF7D1FA801B0228F6D96BE7324BF3
:1018F0001A6C12F0805228D101921A6C42F0805278
:101900001A641B6C03F080530193019B01262D4D3B
:101910002B68D9051BD5A368274D012B27D12B6F29
:1019200043F001032B67FFF7AFFA234D074641F25F
:1019300088382B6F9B0739D5002E3FF408AF1E4A1D
:10194000136C23F08053136401E70026DFE72B6854
:1019500043F480732B60FFF797FA07462B68DA058C
:10196000D9D4FFF791FAC01B0228F7D92BE7052B32
:1019700004D12B6F43F004032B67D0E72A6F22F0CA
:1019800001022A672A6F22F004022A67002BCAD1BB
:10199000FFF77AFA41F2883807462B6F9807CBD5C4
:1019A000FFF772FAC01B4045F7D90CE7FFF76CFA56
:1019B000C01B4045BDD906E7003802400000474241
:1019C000800E474200700040234DAB6803F00C03CB
:1019D000082B3FF4E0AE214E0023022A33602DD1C4
:1019E000FFF752FA07462B68990121D4226AE3696E
:1019F0001343626A43EA8213E26A43EA0263226B98
:101A000043EA0273A26A144C5208013A43EA0243C1
:101A10006B6001233360FFF737FA054623689A01AC
:101A20003FF599AEFFF730FA401B0228F6D9CAE617
:101A3000FFF72AFAC01B0228D5D9C4E6FFF724FA1B
:101A400004462B689B017FF586AEFFF71DFA001B4D
:101A50000228F6D9B7E600BF0038024060004742CE
:101A6000036A23F001030362036A70B54468826964
:101A70000D6822F073022A438D6823F002032B4382
:101A80000E4DA84202D00E4EB04210D1CE6823F0C7
:101A900008033343A84223F0040302D0084DA842B0
:101AA00005D14D698E6924F4407435432C4344605C
:101AB00082614A684263036270BD00BF000001405A
:101AC00000040140036A23F480730362036A70B563
:101AD0004468C2690D6822F073022A438D6823F4BA
:101AE000007343EA0523114DA84203D005F5806534
:101AF000A84214D1CD6823F4006343EA05230B4DBB
:101B0000A84223F4806303D005F58065A84206D17E
:101B10004D698E6924F44054354344EA0514446009
:101B2000C2614A68C263036270BD00BF0000014029
:101B3000036A23F480530362036A30B54468C269C0
:101B40000D6822F4E64242EA05228D6823F4005330
:101B500043EA0533084DA84203D005F58065A84245
:101B600004D14D6924F4804444EA85144460C26180
:101B70004A680264036230BD000001400368DA680D
:101B800042F00102DA609A6802F00702062A1EBFDC
:101B90001A6842F001021A600020704770477047CF
:101BA000704710B5846B626A0123904284F83D301F
:101BB00006D12377204602F0A1F80023237710BD39
:101BC000A36A984201D10223F3E7E36A984201D164
:101BD0000423EEE7236B9842ECD10823E9E7704732
:101BE00010B5846B626A0123904284F83D3006D1BF
:101BF00023772046FFF7F3FF0023237710BDA36A66
:101C0000984201D10223F3E7E36A984201D1042309
:101C1000EEE7236B9842ECD10823E9E770470368AD
:101C20001A69910710B504460ED5DA6892070BD5EC
:101C30006FF002021A619B6901229B07027777D03D
:101C4000FFF7AEFF0023237723681A69500710D5EA
:101C5000DA6851070DD56FF004021A619B69022200
:101C600013F4407F2277204668D0FFF799FF0023C6
:101C7000237723681A6912070FD5DA6810070CD585
:101C80006FF008021A61DB69042299072277204667
:101C90005AD0FFF785FF0023237723681A69D206FD
:101CA00010D5DA68D0060DD56FF010021A61DB6925
:101CB000082213F4407F227720464BD0FFF770FFB5
:101CC0000023237723681A69D10708D5DA68D20779
:101CD00005D56FF001021A612046FFF75FFF236808
:101CE0001A69100608D5DA68110605D56FF080026A
:101CF0001A61204600F0D9FB23681A69520608D5FC
:101D0000DA68500605D56FF040021A612046FFF7E9
:101D100085FF23681A69910622D5DA6892061FD5D5
:101D20006FF0200220461A61BDE8104000F0BCBBF5
:101D3000FFF735FF204601F0E1FF83E7FFF72FFFB4
:101D4000204601F0DBFF92E7FFF729FF204601F074
:101D5000D5FFA0E7FFF723FF204601F0CFFFAFE755
:101D600010BD704708B5806B012380F83D30FFF748
:101D7000F8FF08BD304A0368904212D0B0F1804F9E
:101D80000FD0A2F57C4290420BD002F580629042C7
:101D900007D002F58062904203D002F5784290426B
:101DA00019D14A6823F070031343234A904229D083
:101DB000B0F1804F26D0A2F57C42904222D002F5AD
:101DC000806290421ED002F5806290421AD002F5E5
:101DD0007842904216D0194A904213D002F58062A0
:101DE00090420FD002F5806290420BD0A2F598325B
:101DF000904207D002F58062904203D002F58062E3
:101E0000904203D1CA6823F4407313434A6923F014
:101E10008003134303608B68C3620B688362064BC5
:101E2000984203D003F58063984201D10B690363A4
:101E300001234361704700BF0000014000400140A2
:101E400010B50446A0B190F83D3003F0FF021BB975
:101E500080F83C2002F000F9022384F83D3020682D
:101E6000211DFFF787FF012384F83D30002010BDBE
:101E7000012010BD10B50446A0B190F83D3003F02C
:101E8000FF021BB980F83C2002F0B0F8022384F86E
:101E90003D302068211DFFF76DFF012384F83D30A0
:101EA000002010BD012010BD036A23F0100303625F
:101EB000036A70B5446882690D6822F4E64242EA1A
:101EC00005228D6823F0200343EA0513104DA84234
:101ED00003D005F58065A84214D1CD6823F08003B6
:101EE00043EA05130A4DA84223F0400303D005F549
:101EF0008065A84206D14D698E6924F4406435435B
:101F000044EA8504446082614A688263036270BD6A
:101F10000000014038B590F83C30012B04464FF0EA
:101F2000020025D0012384F83C3084F83D000C2ABF
:101F300018D8DFE802F0071717171E1717172F1703
:101F4000171740002068FFF78BFD236809699A691D
:101F500042F008029A619A6922F004029A619A6931
:101F60000A439A610123002084F83D3084F83C0044
:101F700038BD2068FFF798FF236809699A6942F421
:101F800000629A619A6922F480629A619A6942EACF
:101F90000122E6E72068FFF795FD23680969DA6901
:101FA00042F00802DA61DA6922F00402DA61DA69E1
:101FB0000A43DA61D6E72068FFF7BAFD23680969AA
:101FC000DA6942F40062DA61DA6922F48062DA6185
:101FD000DA6942EA0122ECE710B584680A4324F486
:101FE0007F4442EA03232343836010BD90F83C30D2
:101FF000012B70B504464FF0020019D084F83D0063
:102000002068012384F83C30836823F47F4323F065
:10201000770383600B68402B65D015D8102B0CD04C
:1020200007D853B10123002084F83D3084F83C00E8
:1020300070BD202B01D0302BF4D1826843F0070310
:1020400022F0700213431AE0602B34D019D8502BC1
:10205000E8D14A68CE68016A056A25F00105056283
:10206000836921F00A0123F0F00343EA06130A43CF
:1020700083610262836823F0700343F05703836037
:10208000D0E7702B0CD0B3F5005FCBD1CB684A689A
:102090008968FFF7A1FF2268936843F4804308E052
:1020A000CB684A688968FFF797FF2268936843F016
:1020B00077039360B6E74D68CE68016A21F010019E
:1020C00001628269036A22F4704223F0A00343EAAA
:1020D000051342EA063282610362836823F07003CB
:1020E00043F06703CBE74A68CE68016A056A25F0CA
:1020F00001050562836921F00A0123F0F00343EA38
:1021000006130A4383610262836823F0700343F07D
:102110004703B4E7036A01F01F0110B501248C40A6
:1021200023EA04030362036A8A401A43026210BD71
:1021300010B504460C290DD8DFE801F0070C0C0C93
:10214000230C0C0C280C0C0C2D000268D36843F0F7
:102150000203D36001222068FFF7DCFF2368134AE3
:1021600093421DD002F58062934219D09A6802F022
:102170000702062A03D01A6842F001021A60002002
:1021800010BD0268D36843F00403E2E70268D36835
:1021900043F00803DDE70268D36843F01003D8E793
:1021A0005A6C42F400425A64E0E700BF000001406C
:1021B00010B504460C290DD8DFE801F0070C0C0C13
:1021C000360C0C0C3B0C0C0C40000268D36823F05E
:1021D0000203D36000222068FFF79CFF23681A4A9D
:1021E000934203D002F5806293420DD1196A41F205
:1021F0001112114208D1196A40F24442114202BF41
:102200005A6C22F400425A64196A41F211121142C6
:1022100008D1196A40F24442114203D11A6822F0EF
:1022200001021A60002010BD0268D36823F0040385
:10223000CFE70268D36823F00803CAE70268D368CF
:1022400023F01003C5E700BF0000014038B5044685
:1022500090F83D00C0B202280D4611467AD094F89D
:102260003D20012A06D111B90BB1012038BD02224F
:1022700084F83D200C2D1AD8DFE805F0071919194C
:1022800031191919431919195500606A324AC26384
:10229000324A0264324AC26422683432FEF70CFFCA
:1022A0000028E2D12268D36843F40073D36001228E
:1022B00029462068FFF72EFF23682A4A934244D01C
:1022C00002F58062934240D09A6802F00702062A23
:1022D0001EBF1A6842F001021A60002038BDA06AD1
:1022E0001D4AC2631D4A02641D4AC2642268383214
:1022F000FEF7E2FE0028B8D12268D36843F4806379
:10230000D4E7E06A144AC263144A0264144AC264FD
:1023100022683C32FEF7D0FE0028A6D12268D3689E
:1023200043F40063C2E7206B0B4AC2630B4A0264AA
:102330000B4AC26422684032FEF7BEFE002894D1E8
:102340002268D36843F48053B0E75A6C42F40042E9
:102350005A64B9E738BD00BFA31B0008E11B0008A1
:10236000651D00080000014038B504460D460C29E3
:1023700010D8DFE801F0070F0F0F3D0F0F0F440FCC
:102380000F0F4B000268406AD36823F40073D360D8
:10239000FEF7D0FE002229462068FFF7BBFE236827
:1023A0001E4A934203D002F5806293420DD1196A0E
:1023B00041F21112114208D1196A40F2444211420D
:1023C00002BF5A6C22F400425A64196A41F2111297
:1023D000114208D1196A40F24442114203D11A68ED
:1023E00022F001021A60012384F83D30002038BD3C
:1023F0000268806AD36823F48063D360C8E7026808
:10240000C06AD36823F40063D360C1E70268006B3D
:10241000D36823F48053D360BAE700BF00000140C3
:1024200090F83C30012B30B54FF0020314D0046813
:1024300080F83D306268A3680D68496822F0700238
:1024400023F080030B432A436260A360012380F8DA
:102450003D30002380F83C30184630BD90F83C30C9
:10246000012B1FD0CB688A6823F4407313434A685A
:1024700023F4806313430A6823F4006313430A6957
:1024800023F4805313434A6923F400531343CA6966
:1024900023F48043134302685364002380F83C30E4
:1024A0001846704702207047704770470368DA6823
:1024B00022F49072DA605A6922F001025A612023F4
:1024C00080F83A30704700002DE9F0470668C2688E
:1024D0003369C16923F4405313433361044683686D
:1024E0000069F2680343606922F41642034322F054
:1024F0000C020B431343F3607369A26923F4407326
:102500001343B1F5004F73617A4B7CD19E4203D0E7
:1025100003F580639E4244D1FFF7B0F8192505FB0F
:1025200000F360684FF064094000B3FBF0F3B3FBC5
:10253000F9F34FEA0318FFF7A1F8636868435B00FB
:10254000B0FBF3F7FFF79AF8636868435B00B0FBF2
:10255000F3F3B3FBF9F309FB1373DB003233B3FB83
:10256000F9F35B0003F4F877FFF788F862686843D3
:102570005200B0FBF2FAFFF781F8636868435B0032
:10258000B0FBF3F3B3FBF9F309FB13A3DB00323326
:10259000B3FBF9F303F0070343443B44B360BDE8E6
:1025A000F087FFF75BF8192505FB00F360684FF033
:1025B00064094000B3FBF0F3B3FBF9F34FEA0318EF
:1025C000FFF74CF8636868435B00B0FBF3F7FFF775
:1025D00045F8636868435B00B0FBF3F3B3FBF9F3C2
:1025E00009FB1373DB003233B3FBF9F35B0003F435
:1025F000F877FFF733F8626868435200B0FBF2FAED
:10260000FFF72CF8B9E79E4202D03B4B9E4240D1E7
:10261000FFF734F8676819254FF0640905FB00F3EC
:10262000BF00B3FBF7F3B3FBF9F31F01FFF726F885
:10263000636868439B00B0FBF3F8FFF71FF863681B
:1026400068439B00B0FBF3F3B3FBF9F309FB13837F
:102650001B013233B3FBF9F303F0F008FFF70EF878
:10266000626868439200B0FBF2FAFFF707F863680C
:1026700068439B00B0FBF3F3B3FBF9F309FB13A32F
:102680001B013233B3FBF9F303F00F0343EA0803F2
:1026900083E7FEF7E3FF676819254FF0640905FB40
:1026A00000F3BF00B3FBF7F3B3FBF9F31F01FEF731
:1026B000D5FF636868439B00B0FBF3F8FEF7CEFFDD
:1026C000636868439B00B0FBF3F3B3FBF9F309FBCA
:1026D00013831B013233B3FBF9F303F0F008FEF769
:1026E000BDFF626868439200B0FBF2FAFEF7B6FFE6
:1026F000BDE700BF0010014000140140F8B50446DA
:102700000E4617461D4621680B6836EA030301D1C1
:102710000020F8BD6B1CF7D095B92368DA6822F465
:10272000D072DA605A6922F001025A61202384F8DB
:10273000393084F83A30002384F838300320F8BD6B
:10274000FEF7A2FBC01B8542DDD2E6E710B50446CA
:1027500040B390F8393003F0FF021BB980F83820FD
:1027600001F084FE2268242384F83930D36823F4EE
:102770000053D3602046FFF7A7FE23681A6922F4AE
:1027800090421A615A6922F02A025A61DA6842F4C8
:102790000052DA6000202023E06384F8393084F8A6
:1027A0003A3010BD012010BD2DE9F0411F4690F8D0
:1027B0003930202B04460D4690464FD100294AD08F
:1027C000002A48D090F83830012B47D0012380F8F8
:1027D00038300023C363212380F83930FEF754FBDF
:1027E000A4F824800646A4F82680E38C9BB26BB93B
:1027F0003B46324640212046FFF780FFB0B92023F8
:1028000084F8393084F83800BDE8F081E38C013B6E
:102810009BB2E384A368B3F5805F32463B464FF03A
:10282000800120460ED1FFF769FF10B10320BDE8FB
:10283000F0812B882268C3F308035360236943B9EE
:102840000235D2E7FFF75AFF0028EFD123682A7834
:102850005A600135C9E70120BDE8F0810220BDE8DA
:10286000F08190F83930202B18D1A9B1A2B190F89D
:102870003830012B12D0C2840162828400230168A7
:10288000C363212280F83920CA6880F8383042F0CA
:102890008002CA60184670470120704702207047C6
:1028A000134690F83A20202A73B5054638D10029FE
:1028B00034D0002B32D090F83820012A30D00122B9
:1028C000002480F838202222C4638162838580F846
:1028D0003A20406B134AC2632E68134A0264134ABB
:1028E000C26404650A46311DFEF7E6FB2B680194BD
:1028F0001A6801925A680192019ADA6885F838409C
:1029000042F48072DA605A6942F001025A615A69EF
:1029100042F040025A61204602B070BD0120FBE740
:102920000220F9E735290008EB290008F7290008FB
:102930007047704708B50368826B1B6813F4807397
:1029400010D1D3851368D96821F48071D960596991
:1029500021F001015961596921F040015961202399
:1029600082F83A301046FFF7E4FF08BD90F83A309D
:10297000222B10B536D1836801690268B3F5805FF8
:10298000836A23D15268E9B9C2F3080223F8022B03
:102990008362C48D013CA4B2C4858CB90368DA6833
:1029A00022F02002DA60DA6822F48072DA605A6972
:1029B00022F001025A61202380F83A30FFF7B9FF74
:1029C000002010BDD2B223F8012BE1E721B9591C38
:1029D000526881621A70DCE75268591C816202F009
:1029E0007F02F7E7022010BD704708B5806BFFF744
:1029F000FBFF08BD7047816B08B50B685A6991F8F9
:102A0000390021280AD1120608D50022CA84DA68C2
:102A100022F0C002DA60202281F839205B6991F847
:102A20003A20222A06D15B0604D50023CB8508462E
:102A3000FFF73CFDCB6B43F01003CB630846FFF779
:102A4000D9FF08BD03681A68D96870B5160704462F
:102A50005D6907D196065AD58D0658D5BDE87040F8
:102A6000FFF784BF15F0010502D111F4907F4ED01D
:102A7000D30705D5CE0542BFE36B43F00103E36303
:102A8000500704D51DB1E36B43F00203E3639307E2
:102A900004D51DB1E36B43F00403E363160704D5CB
:102AA0001DB1E36B43F00803E363E36B002B66D0D7
:102AB000950604D5880602D52046FFF757FF236800
:102AC0005D69E26B1107204602D415F040051AD06B
:102AD000FFF7ECFC23685A69520610D55A69606BFF
:102AE00022F040025A6150B1254B0365FEF722FBEC
:102AF000002844D0606BBDE87040036D1847204645
:102B0000FFF778FF70BDFFF775FFE56370BD160630
:102B100027D50D0625D594F83920212A2FD1A26872
:102B2000B2F5805F226A17D11188C1F3080159609C
:102B3000216979B902322262E28C013A92B2E284CE
:102B4000EAB9DA6822F08002DA60DA6842F040021C
:102B5000DA6070BD0132EEE7511C216212785A60D2
:102B6000EAE750060BD54A0609D5DA6822F040029A
:102B7000DA60202384F839302046FFF7D9FE70BD93
:102B8000852B000808B5806B0023C385C384FFF73D
:102B900031FF08BD10B504460846114600F068F93B
:102BA00000F082F92046BDE81040FEF7E7BF0000C4
:102BB000436810B504464BB1054800F071FC18B9E4
:102BC0006168034800F058FC0023636010BD00BF3B
:102BD0002405002038B54368044673B1074D2846E4
:102BE00000F05EFC38B9606800F06CFC296A411A9C
:102BF000284600F0ABFB0023636038BD24050020AD
:102C0000014800F04FBC00BF240500200000000078
:102C100010B50446124800F043FCA0B9616821B920
:102C20000F48BDE8104000F0DFBB3C2091FBF0F006
:102C3000FDF798FC08A3D3E90023FDF723FEFDF779
:102C400009FF0146ECE74FF47A730E220549064866
:102C5000BDE81040FFF7A8BD7B14AE47E17A443FC2
:102C600024050020E84E00089408002000224FF4BC
:102C700000410148FEF70ABC0004024001224FF463
:102C800000410148FEF702BC000402407047704753
:102C900010B50446406890B1FDF764FC00220C4B6F
:102CA000FDF7F0FD08A3D3E90023FDF7EBFDFDF7E9
:102CB000F9FE0146074800F0C0FA002363600520D2
:102CC000BDE81040FEF7E6B87B14AE47E17A443F1A
:102CD00000004E402405002010B50446406890B125
:102CE000FDF740FC00220C4BFDF7CCFD08A3D3E917
:102CF0000023FDF7C7FDFDF7D5FE0146074800F0AC
:102D00009FFA002363600520BDE81040FEF7C2B8BB
:102D10007B14AE47E17A443F00004E40240500207A
:102D200010B50446406890B1FDF71CFC00220C4B26
:102D3000FDF7A8FD08A3D3E90023FDF7A3FDFDF7E8
:102D4000B1FE0146074800F07EFA002363600520CB
:102D5000BDE81040FEF79EB87B14AE47E17A443FD1
:102D600000004E402405002010B50446406890B194
:102D7000FDF7F8FB00220C4BFDF784FD08A3D3E917
:102D80000023FDF77FFDFDF78DFE0146074800F0AB
:102D90005DFA002363600520BDE81040FEF77AB8B5
:102DA0007B14AE47E17A443F00004E4024050020EA
:102DB000704770477047704770B50C460646002153
:102DC000204600F071FF0025A3899D4204DB2046C8
:102DD000BDE8704000F033BF327B3179307A00F0CB
:102DE000FBFEAAB20146204600F0FBFE0135EBE7F0
:102DF00070B506460D460024AB899C4205DB28468B
:102E00000121BDE8704000F04FBF327B3179307A4C
:102E100000F0E2FEA2B20146284600F0E2FE0134D4
:102E2000EAE77047704700001FB500230293ADF832
:102E30000C308DF80610022311448DF804308DF803
:102E4000050003230844094C8DF807208DF808007D
:102E50008DF809304FF47A73062201A92068FFF734
:102E6000A3FC0028F6D104B010BD00BFA0020020D2
:102E70000B4B0C4A9A604FF4FA7283E80300DA6055
:102E800000214FF4F07203F1180083F84812196121
:102E9000596183F84A1283F8491201F0F1BB00BF6F
:102EA000A0020020AC000020034B044918684FF436
:102EB000FA72FFF7F5BC00BFA0020020AC000020B2
:102EC000054A536850691B685B68C3F5FA73C01AFA
:102ED00018BF0120704700BFA0020020034B93F8E9
:102EE0004802003018BF0120704700BFA002002038
:102EF000F0B59B4E736874691B685D6887B0C5F553
:102F0000FA7518220021684601F0BAFBAC4241D2A2
:102F10002D1B182D3CD9934A4FF4FA73002D2FDD49
:102F2000115D022940F0158104F1180090FBF3F1C6
:102F300003FB1101515C032940F00B8101200021AA
:102F40004FF4FA73271897FBF3F503FB157501305F
:102F5000555D17282944C9B2F4D104F1170595FB32
:102F6000F3F003FB1050105C884218D010227E4909
:102F70007E48FFF776FC002264211046FFF754FFDD
:102F800019344FF4FA7294FBF2F302FB13447461A8
:102F900007B0F0BDFCD9C4F5FA731D44B9E7601C55
:102FA00090FBF3F103FB1101A01C555C90FBF3F1C6
:102FB00003FB1101E71C505C97FBF3F103FB11715C
:102FC000271D515C8DF8041097FBF3F103FB117181
:102FD000671D515C8DF8051097FBF3F103FB117130
:102FE000A71D515C8DF8061097FBF3F103FB1171DF
:102FF000E71D515C8DF8071097FBF3F103FB11718E
:1030000004F10807515C8DF8081097FBF3F103FBFE
:10301000117104F10907515C8DF8091097FBF3F168
:1030200003FB117104F10A07515C8DF80A1097FB3C
:10303000F3F103FB117104F10B07515C8DF80B10D8
:1030400097FBF3F103FB117104F10C07515C8DF850
:103050000C1097FBF3F103FB117104F10D07515CA8
:103060008DF80D1097FBF3F103FB117104F10E07BE
:10307000515C8DF80E1097FBF3F103FB117104F115
:103080000F07515C8DF80F1097FBF3F103FB1171E3
:1030900004F11007515C8DF8101097FBF3F103FB5E
:1030A000117104F11107515C8DF8111097FBF3F1C8
:1030B00003FB117104F11207515C8DF8121097FB9C
:1030C000F3F103FB117104F11307515C8DF8131038
:1030D00097FBF3F103FB117104F11407515C8DF8B8
:1030E000141097FBF3F103FB117104F11507515C08
:1030F0008DF8151097FBF3F103FB117104F116071E
:10310000515C8DF8161097FBF3F103FB11730199D5
:10311000D35C96F849228DF817301C2303FB026319
:10312000D961029919620399596204991963059941
:1031300099621D8314215883531C93FBF1F201FB08
:10314000123386F8493296F84832013386F848320D
:1031500016E70134013D94FBF3F103FB1144DDE676
:10316000A0020020AC000020F64E000894080020C9
:1031700030B50E4B93F84A2293F84912914212D07F
:1031800093F8480280B1551C1424013895FBF4F1E2
:1031900083F8480204FB11511C2000FB023083F825
:1031A0004A12183030BD002030BD00BFA002002000
:1031B00008B5FFF785FE012803D1BDE80840FFF7F9
:1031C00097BE08BD38B54160096881600B4902733C
:1031D0000A78551C0D700270002140F2FF32817593
:1031E00082614373064B03614FF400738382054B86
:1031F0001970054B5B689847012038BDEC0400202E
:1032000000080240ED0400200800002010B5029CD8
:10321000C162026341F28832002B08BF1346002CC2
:10322000836308BF4FF448640023C463036202232E
:10323000037703234377012010BD8163084670475D
:10324000C16308467047C16208467047016308467B
:103250007047C26B836B70B59D1A13446B43C46A8D
:10326000066BB3FBF4F2B3FBF6F352085B08D51818
:103270008D420CD971433444B1FBF4F101298CBF68
:1032800001F1FF33002303644164002070BD15B9D0
:1032900005640531F8E701390264C91AF4E7000052
:1032A00038B505460C46FEF7F9F9A969144B4C43AD
:1032B0005B68B0FBF4F40121284698476B681B68F3
:1032C000013CDC626B68DC602B7B640843B96B6893
:1032D0001B685C636868297BFEF72AFF002038BD05
:1032E0002B7B042B03D16B681B689C63F2E72B7B61
:1032F000082B6B681B680CBFDC631C64EAE700BF2B
:103300000800002010B504464068217BFEF750FFFE
:10331000024B20469B699847002010BD0800002002
:1033200008B5002383644362026C6AB14377C26BC1
:10333000836B9A4284BF836BC363C36B4363C16B6C
:10334000FFF7AEFF002008BD0223EFE738B5857D0B
:103350000A46044605F0FF0101231DB9002A8375C2
:1033600002D18275184638BD0B4D0DDAD243826208
:103370002B6801779847A16A2046FFF76AFF20462D
:10338000FFF7CEFF002038BD013A8262194603776D
:103390002A689047EFE700BF0800002070B5837DE2
:1033A0000E46054603F0FF010124CBB9002E8475BB
:1033B00002D18675304670BD0A4BA8BF21461B68F6
:1033C00098470024062386EAE671AC64A1EBE67117
:1033D0002C6428466C64AC626C626B77FFF760FF0C
:1033E000204670BD0800002070B5837D04460E465F
:1033F00003F0FF054BBB0069A18A89B2FEF740F8D4
:10340000B8B1A38A174A9BB25361174B01221A70B5
:1034100066B9E26BA36B9A4284BFA36BE363E16B73
:1034200000222046FFF7BAFF002070BD2A46314631
:10343000F7E7032363770D4B6062A062A0759B6979
:10344000206220469847012070BD094D094C4FF479
:103450007A730D2229462046FFF7A6F90028F6D1F7
:10346000022070BD003C0140ED0400200800002057
:10347000E84E00089408002010B504460846FDF701
:1034800071F80022054BFDF7FDF9FDF7E3FA01465F
:103490002046BDE81040FFF759BF00BF0000E43FE1
:1034A000807D7047016A10B549420446FFF74EFF20
:1034B000012803D1024B20469B699847002010BD8C
:1034C0000800002008B5FDF74DF80022024BFDF77B
:1034D000D9F9FDF7BFFA08BD0000E43F426AF8B52C
:1034E0000446561C4662856A416BC06A236B677F3F
:1034F000072F0FD8DFE807F00446316C466C0E84C6
:10350000013DAA4201D3032303E0236C9A4203D373
:10351000022363770020F8BDE36B994238BFE16B6B
:10352000A26C0304B3FBF1F31344A3640023A26C65
:10353000B2F5803F0AD2002BECD0A36B994200D9A0
:10354000A16B61632046FFF7ABFEE3E7A36CA3F535
:103550008033A36401310123E9E7636C013B9A42A4
:1035600003D30023A3640123D3E7236C9A4202D23E
:103570000023A364CDE7A36A013B9A42CAD3002388
:10358000A364C0E7013DAA42BDD2627F052ABAD03A
:10359000A26C002908BF01211B04B3FBF1F3134403
:1035A000A3640023A26CB2F5803F06D2002BB1D0F9
:1035B000E36B994238BFE16BC3E7A36C0129A3F524
:1035C0008033A3648CBF01F1FF3101210123E9E7BE
:1035D000237F226A002B14BF01234FF0FF3306FB29
:1035E00003232362002103236162A162A175637733
:1035F0000D4B20465B6898472046FFF783FE89E71E
:10360000A56A013DA562002D84D103236377064B93
:1036100065625B68A56229462046A57598472046E5
:10362000FFF770FE256275E708000020044A0023BA
:10363000137040F23F628262072242771846704759
:10364000ED04002010B504468EB03222002101A8FE
:1036500001F016F82378032B17D8DFE803F00218DF
:103660001E21642265210120FFF7DEFB226A0E493C
:103670000E4C01A801F0C8F84FF47A73282201A972
:103680002046FFF791F80028F6D10EB010BD08498A
:1036900009220848FFF7E5F8F7E709220649F8E7A5
:1036A00009220649F5E700BF514F000894080020A1
:1036B000684F0008D4080020724F00087C4F0008B3
:1036C00003783BB90A1C18BF01224FF4006102487D
:1036D000FDF7DCBE704700BF0000024003783BB935
:1036E000B1FA81F252094FF480610248FDF7CEBE73
:1036F000704700BF00000240044B01689A68914285
:1037000002D11846FFF7EABE704700BF240500202B
:10371000022810B50FD0032817D001281FD1104858
:10372000FFF784FF0F494FF47A7314220E48BDE867
:103730001040FFF739B8642266210020FFF774FBC0
:103740004FF47A731A220949F0E7642267210020B6
:10375000FFF76AFB4FF47A7319220549E6E710BDBB
:1037600024050020074F0008940800201C4F000883
:10377000374F000813B50F4B002401941A6B42F425
:1037800000121A631B6B03F40013224621460193B7
:103790000F20019BFDF7A4FB0F20FDF7D5FB224670
:1037A00021461020FDF79CFB1020FDF7CDFB02B059
:1037B00010BD00BF003802402DE9F04114228AB04C
:1037C0000DEB0200002100F05BFF0024354B01945B
:1037D0001A6BDFF8E080344D344F42F004021A6374
:1037E0001A6B02F004020192019A02941A6B42F0E1
:1037F00080021A631A6B02F080020292029A03940A
:103800001A6B42F001021A631A6B02F00102039272
:10381000039A04941A6B42F002021A631B6B03F0C2
:1038200002030493224640464FF44041049BFDF7B7
:103830002DFE224628464FF44061FDF727FE08235F
:1038400005A938460593012606940794FDF73EFD29
:103850004FF4404305A94046059306960794089403
:10386000FDF734FD4FF40073059305A9104B069343
:1038700038460794FDF72AFD4FF4406305A9284612
:103880000593069607940894FDF720FD22462146ED
:103890001720FDF725FB1720FDF756FB0AB0BDE802
:1038A000F08100BF003802400000024000080240E2
:1038B000000021100004024030B595B034220021F0
:1038C00007A800F0DDFE0021142202A800F0D8FEB7
:1038D00000251D4B00951A6C42F080521A641B6C37
:1038E00003F080530093009B184B01951A6842F433
:1038F00040421A601B680E9503F440430193019BFC
:1039000001230A9310230B93082302240F9307A883
:10391000B423109307940D94119412941394FDF70B
:1039200005FFFDF7C5FD0F2302934FF4A053059348
:1039300005214FF4805302A8039404950693FDF7E4
:10394000F3FD15B030BD00BF0038024000700040EC
:103950002DE9F0439FB06422002105A800F090FEFD
:10396000FDF76CFAFFF7A8FFFFF726FFFFF702FF4E
:1039700000F044FD00F06EFC00F0BEFC00F05AFDCB
:1039800000F008FD00F0D0FA00F016FB00F0F0FAAD
:103990000C2276497648774DFEF763FF7648FEF7AE
:1039A000EDF8764A76497748FFF7F4F817230022B6
:1039B00075497648FFF706FC4FF4C8724FF4486328
:1039C00011460093714841F28833FFF71FFC0A2328
:1039D000009300226E4B6F49286800F0E2F86E48B1
:1039E000FEF7CCF800242E68B3899C4236DB3046C3
:1039F00000F025F9DFF8A481DFF874910026FFF7C5
:103A00006DFA0128FBD1FFF7B3FBC268B0F90030B3
:103A100003928268029242680192B0F902200092F9
:103A200041463246044605A800F0EEFE05A8FCF724
:103A3000EFFB05A982B24846FEF713FFB4F9003048
:103A4000771C5BB3022B21D014DC012B1AD01C2273
:103A50000021204600F014FE3E46D0E70022114629
:103A6000104600F0B9F8A2B20146304600F0B9F8AD
:103A70000134B8E71B2B0DD01C2BE8D12046FFF7F3
:103A8000C7F8E4E72046FFF793F8E0E72046FFF7A2
:103A9000A1F8DCE72046FFF7B3F8D8E7B4F9023025
:103AA000002BD4D0212B48D015DC152B39D009DCC4
:103AB0000B2B2ED0142B30D00A2BC8D12046FFF769
:103AC000D5F8C4E71F2B30D033DC1E2BBFD12046E6
:103AD000FFF7DEF8BBE72B2B3BD008DC292B30D0DF
:103AE00033DC282BB3D12046FFF762F9AFE7332B45
:103AF00033D006DC322BAAD129682046FFF75CF9C7
:103B0000A5E73C2B2ED0642BA1D12046FFF78AF9E4
:103B10009DE72046FFF7B2F899E72046FFF7B6F891
:103B200095E72046FFF7B3F891E72046FFF7D4F872
:103B30008DE72046FFF7F4F889E72046FFF714F9F0
:103B400085E72046FFF735F981E72046FFF732F990
:103B50007DE72046FFF72FF979E729682046FFF730
:103B600047F9D2E72046FFF75CF970E7864F000877
:103B70009408002024000020D406002034080020EF
:103B8000D408002074070020B4070020240500207A
:103B90001407002054060020F4070020934F00086B
:103BA00070472DE9F843BDF8206090466025B21CAF
:103BB00055430446284689461F4600F059FD2A46CB
:103BC000A060002100F05CFDC4F80090C4F81080F3
:103BD0006760A681BDE8F88342EA012242EA00401C
:103BE000704718235A431A44F0B592001723012551
:103BF00024264C2705FA03F40C42846803F1FF33B2
:103C000014BFA750A6505C1C02F10402F2D1F0BD13
:103C100018235A4370B500EB8200002301242425A9
:103C20004C26C3F1170204FA02F20A4214BF40F80C
:103C3000236040F823500133182BF2D170BD10B52A
:103C4000044601690068FEF78FFBA389A268216919
:103C5000206803EB4303DB0030339BB2FEF7F6FA38
:103C600063681A685368002BFCD121692068BDE89D
:103C70001040FEF779BB70B5044616460D46016943
:103C80000068FEF771FBB3B22A4621692068FEF78F
:103C9000DDFA63681A685368002BFCD1216920683B
:103CA000BDE87040FEF760BB11B1012900D070473C
:103CB000014B1970704700BFEE04002007B50E4B92
:103CC000002100915A6C42F480425A645A6C02F40A
:103CD00080420092009A01911A6C42F080521A645C
:103CE0001B6C03F0805301930720019BFDF7E6F85E
:103CF00003B05DF804FB00BF00380240FFF7FCBCD6
:103D00007047FEE7FEE7FEE7FEE770477047704743
:103D1000FDF7AEB80148FDF71FBA00BF1407002039
:103D20000148FDF719BA00BF3408002008B5064B5A
:103D30001878012801D1FFF7EBFC4FF40070BDE8C3
:103D40000840FDF7A9BB00BFED04002010B5082115
:103D50001548FDF795FB012815D1144CFDF794F893
:103D60002368C01A092806D9FDF78EF8104A20608A
:103D70001368013313600F48FDF751FF0E48BDE88B
:103D80001040FDF74CBF0A4C2268002AF3D0131FE5
:103D9000912B05D80220FFF7BBFC00232360EAE744
:103DA000952AFAD90320F6E7000802401005002002
:103DB0000C050020B4070020D40600200148FDF7C0
:103DC0002EBF00BFB4070020FFF7F8BFFFF7F6BF14
:103DD0000148FDF724BF00BF540600200148FEF74C
:103DE00031BE00BFD40800200148FEF72BBE00BF43
:103DF000940800200148FDF712BF00BF9406002080
:103E000008B5FFF7D5F90248BDE80840FDF707BF40
:103E100074070020F0B5ADF2844D4FF4906200219C
:103E2000684600F02DFC194B1B78012B10D1184A65
:103E30001368042B164626D1164D174F2C78C4B1A3
:103E40003868FFF7FCFE2B78DB432B7000233360D0
:103E50001248FDF7E4FE0DF2844DF0BD002211463C
:103E60001046FFF7B9FEA2B2014618A8FFF7D0FE30
:103E70000134386883899C42F0DB4FF490726946C4
:103E8000FFF7F9FEDFE701331360E1E7EE040020FE
:103E9000040500200805002024000020F40700206D
:103EA000C0B2FFF735BC000008B50A4B19680246DE
:103EB00009B9094919601868694602448A4206D955
:103EC00000F0ACFB0C2303604FF0FF3008BD1A601C
:103ED00008BD00BF14050020180900200F49D1F8C3
:103EE000883043F47003C1F888300D4B1A68002005
:103EF00042F001021A6098601A6822F0847222F47B
:103F000080321A60074A5A601A6822F480221A60C6
:103F1000D8604FF000638B60704700BF00ED00E099
:103F2000003802401030002413B50F4A0F4842F207
:103F30000F73002480E80C0040F267130094019492
:103F40008460C3608461FDF77BFF08B1FFF728FE42
:103F50006946064800940194FEF762FA08B1FFF73B
:103F60001FFE02B010BD00BF00100040740700200B
:103F700013B50F4A0F4842F22833002480E80C00A2
:103F800040F2E733009401948460C3608461FDF7DC
:103F900057FF08B1FFF704FE6946064800940194F4
:103FA000FEF73EFA08B1FFF7FBFD02B010BD00BFFF
:103FB00000140040F40700200A480B4908B542F2FB
:103FC0000F7380E80A00592200238360C2600361F6
:103FD0008361FDF735FF18B1BDE80840FFF7E0BD8C
:103FE00008BD00BFD4060020004801400268194BFC
:103FF0009A4213B52CD1002403F59C3301945A6CDA
:1040000042F001025A645B6C03F001032246214630
:1040100001931820019BFCF763FF1820FCF794FF25
:10402000224621461920FCF75BFF1920FCF78CFF84
:10403000224621461A20FCF753FF1A20FCF784FF82
:104040001B2022462146FCF74BFF1B20FCF77CFF80
:1040500002B010BD0000014030B50368464A9342EB
:1040600087B0054633D1002302F50D320193116C60
:10407000424C434841F002011164126CE36002F0CB
:1040800002020192019AE36140224FF0206184E82C
:1040900007004FF4806222614FF480526261204633
:1040A0004FF48042A26123626362FCF787FF08B18C
:1040B000FFF776FD00226C62AC631D201146A563FC
:1040C000FCF70EFF1D20FCF73FFF07B030BD2D4A67
:1040D000934211D100222C4B0292196C41F0100135
:1040E00019641B6C03F01003029336201146029BE7
:1040F000FCF7F6FE3620E6E7244A934211D100226F
:10410000214B0392196C41F0200119641B6C03F0E0
:104110002003039337201146039BFCF7E1FE372071
:10412000D1E71B4A934211D10022174B0492596CDC
:1041300041F4802159645B6C03F4802304931A20BA
:104140001146049BFCF7CCFE1A20BCE7114A9342AF
:10415000BBD100220C4B0592196C41F0800119640F
:104160001B6C03F0800305932C201146059BFCF784
:10417000B7FE2C20A7E700BF000400401407002072
:1041800070600240001000400038024000140040FF
:1041900000480140001C004010B5044688B01422BD
:1041A000002103A800F06CFA2368244A934215D139
:1041B00000230093224B1A6B42F001021A631B6B1F
:1041C00003F001030093009B4FF4807303930223D9
:1041D00004930123079303A91A4815E01A4A93424E
:1041E00016D100230193164B18481A6B42F00402B3
:1041F0001A631B6B03F004030193019B4023039399
:1042000002230493079303A9FDF760F808B010BDDB
:104210000F4A9342FAD100230293094B1A6B42F0E2
:1042200001021A631B6B03F001030293029B4023FC
:104230000393022304930923CCE700BF000001404D
:104240000038024000000240000400400008024024
:10425000001C004010B5002492B01C22214603A887
:104260000194029400F00CFA202221460AA800F0E2
:1042700007FA1F481F4A846040F2FF3380E80C00B1
:10428000C460046144618461FDF7F4FD08B1FFF787
:1042900087FC01A9164801940294FEF7C1F808B101
:1042A000FFF77EFC00246023224603A910480393F5
:1042B000049405940694079408940994FDF72AFE43
:1042C00008B1FFF76DFC4FF400530AA908480A949F
:1042D0000B940C940D940E940F931194FEF7BEF86A
:1042E00008B1FFF75DFC0248FFF756FF12B010BDA2
:1042F000B40700200000014010B58EB0102200214C
:1043000003A800F0BDF900241C2221460DEB020099
:104310000194029400F0B4F91C481D4B846080E8BD
:1043200018007023C36004618461FDF789FD08B142
:10433000FFF736FC4FF4805303A914480393FDF7AD
:1043400055FE08B1FFF72CFC1048FDF793FD08B1AE
:10435000FFF726FC002401A90C4801940294FEF703
:104360005FF808B1FFF71CFC6023002207A907488B
:104370000793089409940B94FDF7CCFD08B1FFF75F
:104380000FFC0248FFF708FF0EB010BD54060020D6
:104390000004004000B589B01C22002101A800F0F3
:1043A0006FF91448144B4FF4007E80E80840002356
:1043B0008360C36003618361FDF742FD08B1FFF7CD
:1043C000EFFB0C48FDF756FD08B1FFF7E9FB0022B3
:1043D000602301A907480193029203920592FDF719
:1043E00099FD08B1FFF7DCFB0248FFF7D5FE09B0E5
:1043F0005DF804FB94060020001C004008B50B4843
:104400000B4B4FF4E13E80E808400C220023836010
:10441000C360036142618361C361FEF797F918B11C
:10442000BDE80840FFF7BCBB08BD00BFD4080020B2
:104430000044004008B50B480B4B4FF4E13E80E8C8
:1044400008400C2200238360C360036142618361E2
:10445000C361FEF77BF918B1BDE80840FFF7A0BBC8
:1044600008BD00BF94080020004800402DE9F0413D
:1044700014228AB0064600210DEB020000F000F97C
:104480003368494A934248D10025484B00951A6C3D
:104490004748484C42F400321A641A6C02F4003265
:1044A0000092009A01951A6B42F001021A631B6B8D
:1044B00003F001030193019B0C2305930223069350
:1044C000012307930323089305A907230993FCF706
:1044D000FDFE394AA5604FF0006384E80C004FF4FC
:1044E0008063236120464FF48073E5606561A561B8
:1044F000E36125626562FCF761FD08B1FFF750FBDF
:104500000022746326201146A663FCF7E9FC2620EE
:10451000FCF71AFD0AB0BDE8F081284A9342F9D1B0
:10452000224B2748002402941A6C42F480221A6419
:104530001A6C02F480220292029A03941A6B42F0DF
:1045400004021A631A6B02F004020392039A0494A1
:104550001A6B42F002021A631B6B03F0020304930E
:10456000049B4FF00208202301270326072505A9F5
:104570000593CDF81880079708960995FCF7A6FED5
:104580004FF4806305A90F480593CDF8188007976D
:1045900008960995FCF79AFE272022462146FCF74B
:1045A0009FFC2720B4E700BF0044004000380240D1
:1045B00000000240340800208860024000480040AB
:1045C0000008024000040240DFF834D0002103E07C
:1045D0000C4B5B58435004310B480C4B42189A4229
:1045E000F6D30B4A02E0002342F8043B094B9A42FF
:1045F000F9D3FFF773FC00F017F8FFF7A9F970473C
:104600000000022020500008000000209000002040
:104610009000002018090020FEE70000014B1868F8
:10462000704700BF2C00002070B50D4E0D4CA41B30
:10463000A4100025A54209D10B4E0C4C00F044FCFF
:10464000A41BA4100025A54205D170BD56F8253045
:1046500098470135EEE756F8253098470135F2E7DF
:104660001850000818500008185000081C50000886
:10467000024B0146186800F059B800BF2C0000201A
:1046800002440346934200D1704703F8011BF9E747
:1046900038B50546002945D051F8043C0C1F002BC5
:1046A000B8BFE41800F0D4F81F4A1368104633B9B5
:1046B000636014602846BDE8384000F0CAB8A342E1
:1046C0000CD921686218934204BF1A685B68636062
:1046D00004BF521822600460ECE713465A680AB11E
:1046E000A242FAD919685818A0420BD12068014497
:1046F000581882421960DDD1106852685A6001442E
:104700001960D7E702D90C232B60D3E72068211862
:104710008A4204BF11685268626004BF09182160B0
:104720005C60C7E738BD00BF1805002070B5CD1C20
:1047300025F0030508350C2D38BF0C25002D064645
:1047400001DBA94203D90C233360002070BD00F0C7
:104750007FF8234A1468214691B9224C23681BB97B
:10476000304600F041F820602946304600F03CF821
:10477000431C26D10C233360304600F06AF8E4E78E
:104780000B685B1B1AD40B2B0FD90B60CD50CC18C8
:10479000304600F05EF804F10B00231D20F0070006
:1047A000C31A1BD05A42E25070BD8C420DBF6368E1
:1047B0004B686360136018BF0C46E9E70C46496814
:1047C000CAE7C41C24F00304A04205D0211A3046D5
:1047D00000F00AF80130CDD02560D9E770BD00BFE8
:1047E000180500201C05002038B5064C002305469E
:1047F00008462360FFF758FB431C02D1236803B12E
:104800002B6038BD140900200EB400B59CB04FF4E5
:1048100002711DABADF81410029006906FF00041CC
:104820000A48049107914FF6FF7153F8042BADF835
:1048300016100068019302A900F068F8029B00229C
:104840001A701CB05DF804EB03B070472C00002018
:10485000704770472DE9F0478E689E4282460C46AD
:104860009146984635D88A8912F4906F31D02568E0
:1048700009696F1A6569022305EB450595FBF3F598
:1048800008F101033B449D4238BF1D46530531D515
:104890002946FFF74BFF064650B90C23CAF80030F3
:1048A000A38943F04003A3814FF0FF30BDE8F087B8
:1048B0003A46216900F0B4FAA38923F4906343F0E7
:1048C0008003A381266165613E44ED1B2660A560DF
:1048D0004646464528BF464632464946206800F0CF
:1048E000AAFAA3689B1BA36023681E4426600020CD
:1048F000BDE8F0872A4600F0B8FA06460028E1D164
:1049000021695046FFF7C4FEC7E700002DE9F04FCC
:104910009DB0804603938B891C060D4616460FD525
:104920000B696BB94021FFF701FF2860286128B9A6
:104930000C23C8F800304FF0FF30C5E040236B6116
:104940000023099320238DF8293030238DF82A3055
:104950004FF0010B37463C4614F8013B002B3CD18D
:10496000B7EB060A0BD05346324629464046FFF7BE
:1049700071FF013000F0A380099B534409933B78F9
:10498000002B00F09C8000234FF0FF32049307932C
:10499000059206938DF853301A93052221785048DA
:1049A000FBF73EFC671C049BD8B9D90644BF202204
:1049B0008DF853201A0744BF2B228DF853202278FC
:1049C0002A2A16D0079A00210A20274601343B786C
:1049D000303B092B51D9C9B111E0252BC0D0274656
:1049E000B9E73F4A801A0BFA00F0184304903C469E
:1049F000D3E7039A111D12680391002A01DB079285
:104A000004E0524243F00203079204933B782E2BBA
:104A10000ED17B782A2B07F1010132D1039B1A1D9D
:104A20001B680392002BB8BF4FF0FF33023705938A
:104A30002C4C397803222046FBF7F2FB38B1402397
:104A4000001B03FA00F0049B0343049301373978F9
:104A500025488DF8281006227E1CFBF7E1FB002874
:104A600035D0224BFBB9039B073323F007030833F0
:104A70000393099B4B4409936CE700FB023201212D
:104A8000A3E70023059318460A240F4601313A781C
:104A9000303A092A03D9002BCAD00590C8E704FB95
:104AA00000200123F1E703AB00932A46104B04A931
:104AB0004046AFF30080B0F1FF3F8146D9D1AB89CA
:104AC0005B063FF538AF09981DB0BDE8F08F03AB2A
:104AD00000932A46064B04A9404600F081F8EAE715
:104AE000DD4F0008E34F0008E74F0008000000001A
:104AF000554800082DE9F04791461F468A680B6922
:104B0000DDF820809342B8BF1346C9F8003091F811
:104B1000432006460C4612B10133C9F80030236821
:104B2000990642BFD9F800300233C9F80030256831
:104B300015F0060507D104F1190AE368D9F8002039
:104B40009B1A9D4229DB94F843302268003318BF3A
:104B5000012392062ED404F1430239463046C04761
:104B6000013021D02368E568D9F8002003F006035E
:104B7000042B08BFAD1AA36822690CBF25EAE575AE
:104B800000259342C4BF9B1AED184FF000091A3458
:104B90004D451BD10020BDE8F08701235246394620
:104BA0003046C047013003D14FF0FF30BDE8F087F9
:104BB0000135C2E7E1185A1C302081F84300224435
:104BC00094F8451082F843100233C4E701232246CB
:104BD00039463046C0470130E6D009F10109D7E730
:104BE0002DE9F04317460A7E85B06E2A98460646A0
:104BF0000C460C9B01F1430E00F0BC801AD8632ACE
:104C00002ED00AD8002A00F0C880582A00F08A80E6
:104C100004F1420584F842202AE0642A01D0692A7E
:104C2000F6D121681A6811F0800F23D0111D196088
:104C3000136827E0732A00F0B48008D86F2A2AD0BE
:104C4000702AE5D10A6842F020020A6003E0752A62
:104C500021D0782ADCD1782284F845206E4964E09E
:104C60001A6801F14205111D1960136884F8423079
:104C70000123A3E011F0400F02F104011960D7D025
:104C8000B2F90030002B03DA2D225B4284F8432076
:104C900062490A2217E02068196810F0800F03D0DB
:104CA000081D18600B6806E010F0400F01F10400C9
:104CB0001860F7D00B8859496F2A14BF0A220822BE
:104CC000002084F843006568A560002DC0F29C8038
:104CD000206820F004002060002B3FD1002D40F020
:104CE00095807546082A0BD12368DA0708D5236911
:104CF00062689A42DEBF302305F8013C05F1FF35BA
:104D0000AEEB05032361CDF800803B4603AA2146A4
:104D10003046FFF7EFFE013055D14FF0FF3005B0C0
:104D2000BDE8F08381F845203C492268186812F0FC
:104D3000800F00F104051D6001D0036802E05506F4
:104D4000FBD50388D00744BF42F0200222601BB984
:104D5000226822F0200222601022B1E77546B3FBE0
:104D6000F2F002FB1033CB5C05F8013D034600284E
:104D7000F5D1B7E708681A68496910F0800F04D0C8
:104D8000101D18601368196007E010F0400F02F161
:104D9000040018601368F6D019800023236175465B
:104DA000B1E71A68111D196015686268002128466C
:104DB000FBF736FA08B1401B60606368236100238B
:104DC00084F843309FE723692A4639463046C04776
:104DD0000130A2D023689B0707D5002504F11909EB
:104DE000E368039A9B1A9D4205DBE068039B9842A7
:104DF000B8BF184693E701234A4639463046C047B4
:104E000001308AD00135EBE7002BA7D10B7884F86D
:104E1000423004F1420565E7FF4F0008EE4F0008FD
:104E200010B5431E0A44914200D110BD11F8014B48
:104E300003F8014FF7E7884210B501EB020303D8EE
:104E4000421E99420CD110BD9842F9D28118D21A53
:104E5000D34200D110BD13F8014D01F8014DF7E721
:104E600011F8014B02F8014FEBE7F8B5074614467D
:104E70000E4621B91146BDE8F840FFF757BC22B9EC
:104E8000FFF706FC25462846F8BD00F014F88442DA
:104E90000FD921463846FFF749FC05460028F2D0D5
:104EA00031462246FFF7BCFF31463846FFF7F0FB9C
:104EB000E9E73546E7E751F8040C0028A0F10400C3
:104EC000BCBF0B58C0187047F8B500BFF8BC08BC91
:104ED0009E467047F8B500BFF8BC08BC9E467047B8
:104EE0000006101600061016697320616374697657
:104EF0006174650D0A007472616E736D697420656A
:104F000072726F720D0A00656E642073746F702088
:104F1000696E746572727570740D0A0046524E5453
:104F20002042544E20696E746572727570742053FD
:104F3000484F52540D0A0046524E542042544E20BF
:104F4000696E74657272757074204C4F4E470D0A0D
:104F50000063757272656E7420706F736974696F27
:104F60006E20256C640D0A004D4F56452042204F9F
:104F70004B004D4F56452043204F4B004D4F56455B
:104F80002050204F4B00626F6F7420626F6172641B
:104F90000D0A0043636F75743A202534642C204752
:104FA0003A202534642C20483A202534642C2041B2
:104FB0003A2025642C20423A2025642C20433A20B4
:104FC00025640D0A0000000000000000000102033B
:104FD00004060708090000000001020304232D3025
:104FE0002B2000686C4C00656667454647003031F1
:104FF0003233343536373839414243444546003040
:10500000313233343536373839616263646566006E
:0850100004BBFF7F010000005A
:04501800F501000896
:04501C00D1010008B6
:105020000100000010000000C1360008DD36000855
:105030000000000000000000000000000000000070
:1050400045360008F00400200024F4003000002061
:105050000000000000000000000000000000000050
:105060000000000000000000000000000000000040
:105070000000000000000000000000000000000030
:105080000000000000000000000000000000000020
:105090000000000000000000000000000000000010
:1050A0000000000000000000000000000000000000
:04000005080045C9E1
:00000001FF
