:020000040800F2
:10000000008000209D360008ED320008EF32000825
:10001000F1320008F3320008F53200080000000059
:10002000000000000000000000000000F73200089F
:10003000F932000800000000FB320008FD32000821
:10004000ED360008ED360008ED360008ED36000804
:10005000ED360008ED36000801330008ED360008E3
:10006000ED36000811330008ED360008ED360008C3
:10007000ED360008ED360008ED360008ED360008D4
:1000800019330008ED360008ED36000800000000C6
:10009000000000000000000000000000ED36000835
:1000A000ED360008ED360008ED360008ED360008A4
:1000B000000000000000000000000000ED36000815
:1000C000ED360008ED360008ED360008ED36000884
:1000D000ED360008ED36000825330008000000006A
:1000E000ED360008ED3600080000000000000000BA
:1000F000000000000000000000000000ED360008D5
:100100000000000000000000313300080000000083
:1001100000000000000000003D3300080000000067
:10012000ED360008ED360008ED360008ED36000823
:10013000ED36000800000000000000000000000094
:1001400000000000000000000000000000000000AF
:10015000ED360008ED360008ED360008ED360008F3
:10016000000000000000000000000000000000008F
:10017000000000000000000000000000000000007F
:10018000ED360008ED360008000000000000000019
:1001900000000000ED360008000000000000000034
:1001A000000000000000000000000000000000004F
:1001B000000000000000000000000000ED36000814
:0801C000ED360008ED360008E1
:1001C80010B5054C237833B9044B13B10448AFF389
:1001D80000800123237010BD2800002000000000CB
:1001E8004837000808B5034B1BB103490348AFF370
:1001F800008008BD000000002C00002048370008DF
:1002080081F0004102E000BF83F0004330B54FEABF
:1002180041044FEA430594EA050F08BF90EA020F2C
:100228001FBF54EA000C55EA020C7FEA645C7FEABF
:10023800655C00F0E2804FEA5454D4EB5555B8BFE2
:100248006D420CDD2C4480EA020281EA030382EA53
:10025800000083EA010180EA020281EA0303362DE5
:1002680088BF30BD11F0004F4FEA01314FF4801CB8
:100278004CEA113102D0404261EB410113F0004FCA
:100288004FEA03334CEA133302D0524263EB430381
:1002980094EA050F00F0A780A4F10104D5F1200E1F
:1002A8000DDB02FA0EFC22FA05F2801841F100017A
:1002B80003FA0EF2801843FA05F359410EE0A5F14E
:1002C80020050EF1200E012A03FA0EFC28BF4CF07F
:1002D800020C43FA05F3C01851EBE37101F0004535
:1002E80007D54FF0000EDCF1000C7EEB00006EEB42
:1002F8000101B1F5801F1BD3B1F5001F0CD34908CC
:100308005FEA30004FEA3C0C04F101044FEA445222
:1003180012F5800F80F09A80BCF1004F08BF5FEAA9
:10032800500C50F1000041EB045141EA050130BD89
:100338005FEA4C0C404141EB010111F4801FA4F12C
:100348000104E9D191F0000F04BF01460020B1FA81
:1003580081F308BF2033A3F10B03B3F120020CDAB9
:100368000C3208DD02F1140CC2F10C0201FA0CF097
:1003780021FA02F10CE002F11402D8BFC2F1200CFC
:1003880001FA02F120FA0CFCDCBF41EA0C019040B2
:10039800E41AA2BF01EB0451294330BD6FEA0404FB
:1003A8001F3C1CDA0C340EDC04F11404C4F12002E6
:1003B80020FA04F001FA02F340EA030021FA04F3F8
:1003C80045EA030130BDC4F10C04C4F1200220FA4F
:1003D80002F001FA04F340EA0300294630BD21FA8D
:1003E80004F0294630BD94F0000F83F4801306BF53
:1003F80081F480110134013D4EE77FEA645C18BF47
:100408007FEA655C29D094EA050F08BF90EA020FDD
:1004180005D054EA000C04BF1946104630BD91EAD5
:10042800030F1EBF0021002030BD5FEA545C05D1D8
:100438004000494128BF41F0004130BD14F5800417
:100448003CBF01F5801130BD01F0004545F0FE418B
:1004580041F470014FF0000030BD7FEA645C1ABFC0
:10046800194610467FEA655C1CBF0B46024650EAF7
:10047800013406BF52EA033591EA030F41F4002123
:1004880030BD00BF90F0000F04BF0021704730B5A9
:100498004FF4806404F132044FF000054FF000017E
:1004A80050E700BF90F0000F04BF0021704730B53F
:1004B8004FF4806404F1320410F0004548BF404214
:1004C8004FF000013EE700BF42004FEAE2014FEA69
:1004D80031014FEA02701FBF12F07F4393F07F4F44
:1004E80081F06051704792F0000F14BF93F07F4F76
:1004F800704730B54FF4607401F0004521F00041B9
:1005080020E700BF50EA010208BF704730B54FF03E
:1005180000050AE050EA010208BF704730B511F043
:10052800004502D5404261EB41014FF4806404F17B
:1005380032045FEA915C3FF4DCAE4FF003025FEAFD
:10054800DC0C18BF03325FEADC0C18BF033202EB85
:10055800DC02C2F1200300FA03FC20FA02F001FADF
:1005680003FE40EA0E0021FA02F11444C1E600BF7E
:1005780070B54FF0FF0C4CF4E06C1CEA11541DBF31
:100588001CEA135594EA0C0F95EA0C0F00F0DEF8FC
:100598002C4481EA030621EA4C5123EA4C5350EAE1
:1005A800013518BF52EA033541F4801143F4801332
:1005B80038D0A0FB02CE4FF00005E1FB02E506F0C3
:1005C8000042E0FB03E54FF00006E1FB03569CF018
:1005D800000F18BF4EF0010EA4F1FF04B6F5007F1E
:1005E80064F5407404D25FEA4E0E6D4146EB060690
:1005F80042EAC62141EA55514FEAC52040EA5E5019
:100608004FEACE2EB4F1FD0C88BFBCF5E06F1ED8C2
:10061800BEF1004F08BF5FEA500E50F1000041EBF9
:10062800045170BD06F0004646EA010140EA0200A6
:1006380081EA0301B4EB5C04C2BFD4EB0C0541EAC8
:10064800045170BD41F480114FF0000E013C00F3DD
:10065800AB8014F1360FDEBF002001F0004170BD01
:10066800C4F10004203C35DA0C341BDC04F114041A
:10067800C4F1200500FA05F320FA04F001FA05F2A6
:1006880040EA020001F0004221F0004110EBD37073
:1006980021FA04F642EB06015EEA430E08BF20EA9F
:1006A800D37070BDC4F10C04C4F1200500FA04F342
:1006B80020FA05F001FA04F240EA020001F00041D4
:1006C80010EBD37041F100015EEA430E08BF20EA47
:1006D800D37070BDC4F1200500FA05F24EEA020E8F
:1006E80020FA04F301FA05F243EA020321FA04F0BE
:1006F80001F0004121FA04F220EA020000EBD37075
:100708005EEA430E08BF20EAD37070BD94F0000F74
:100718000FD101F00046400041EB010111F4801FA8
:1007280008BF013CF7D041EA060195F0000F18BF59
:10073800704703F00046520043EB030313F4801F95
:1007480008BF013DF7D043EA0603704794EA0C0F4F
:100758000CEA135518BF95EA0C0F0CD050EA410665
:1007680018BF52EA4306D1D181EA030101F00041E2
:100778004FF0000070BD50EA410606BF104619460A
:1007880052EA430619D094EA0C0F02D150EA013616
:1007980013D195EA0C0F05D152EA03361CBF104657
:1007A80019460AD181EA030101F0004141F0FE41F6
:1007B80041F470014FF0000070BD41F0FE4141F47A
:1007C800780170BD70B54FF0FF0C4CF4E06C1CEA7A
:1007D80011541DBF1CEA135594EA0C0F95EA0C0F2F
:1007E80000F0A7F8A4EB050481EA030E52EA0335EA
:1007F8004FEA013100F088804FEA03334FF080550B
:1008080045EA131343EA12634FEA022245EA111537
:1008180045EA10654FEA00260EF000419D4208BFE8
:10082800964244F1FD0404F5407402D25B084FEA95
:100838003202B61A65EB03055B084FEA32024FF441
:1008480080104FF4002CB6EB020E75EB030E22BF9E
:10085800B61A754640EA0C005B084FEA3202B6EB5E
:10086800020E75EB030E22BFB61A754640EA5C000D
:100878005B084FEA3202B6EB020E75EB030E22BF9D
:10088800B61A754640EA9C005B084FEA3202B6EB9E
:10089800020E75EB030E22BFB61A754640EADC005D
:1008A80055EA060E18D04FEA051545EA16754FEABF
:1008B80006164FEAC30343EA52734FEAC2025FEADD
:1008C8001C1CC0D111F4801F0BD141EA00014FF06C
:1008D80000004FF0004CB6E711F4801F04BF01433D
:1008E8000020B4F1FD0C88BFBCF5E06F3FF6AFAE59
:1008F800B5EB030C04BFB6EB020C5FEA500C50F1E9
:10090800000041EB045170BD0EF0004E4EEA11316B
:1009180014EB5C04C2BFD4EB0C0541EA045170BD72
:1009280041F480114FF0000E013C90E645EA060EB6
:100938008DE60CEA135594EA0C0F08BF95EA0C0FE4
:100948003FF43BAF94EA0C0F0AD150EA01347FF42C
:1009580034AF95EA0C0F7FF425AF104619462CE703
:1009680095EA0C0F06D152EA03353FF4FDAE104666
:10097800194622E750EA410618BF52EA43067FF4B7
:10098800C5AE50EA41047FF40DAF52EA43057FF447
:10099800EBAE12E74A0011D212F5001211D20DD5B2
:1009A8006FF47873B3EB62520ED44FEAC12343F06D
:1009B800004343EA505323FA02F070474FF0000017
:1009C800704750EA013002D14FF0FF3070474FF0C6
:1009D8000000704753B94AB9002908BF00281CBF56
:1009E8004FF0FF314FF0FF3000F07AB9ADF1080C4D
:1009F8006DE904CE00F006F8DDF804E0DDE9022335
:100A080004B070472DE9F0478C460D460446089E11
:100A1800002B51D18A4217466DD9B2FA82FEBEF137
:100A2800000F0BD0CEF1200C01FA0EF520FA0CFCC9
:100A380002FA0EF74CEA050C00FA0EF44FEA174AD0
:100A4800250CBCFBFAF81FFA87F90AFB18CC45EA13
:100A58000C4508FB09F3AB420AD9ED1908F1FF323E
:100A680080F02381AB4240F22081A8F102083D4486
:100A7800ED1AA4B2B5FBFAF00AFB105544EA054496
:100A880000FB09F9A14509D9E41900F1FF3380F009
:100A98000A81A14540F2078102383C44A4EB0904CD
:100AA80040EA08400021002E61D024FA0EF4002309
:100AB80034607360BDE8F0878B4207D9002E54D0AC
:100AC800002186E821000846BDE8F087B3FA83F1E3
:100AD800002940F08E80AB4202D3824200F2FA80B5
:100AE800841A65EB03050120AC46002E3FD086E84A
:100AF8001010BDE8F08712B90127B7FBF2F7B7FA73
:100B080087FEBEF1000F34D1EB1B3A0C1FFA87FCAD
:100B18000121B3FBF2F8250C02FB183345EA034523
:100B28000CFB08F3AB4207D9ED1908F1FF3002D2EC
:100B3800AB4200F2D1808046ED1AA3B2B5FBF2F0C9
:100B480002FB105543EA05440CFB00FCA44507D9F9
:100B5800E41900F1FF3302D2A44500F2B880184628
:100B6800A4EB0C0440EA08409DE731463046BDE856
:100B7800F087CEF1200405FA0EF307FA0EF720FAF3
:100B880004F83A0C25FA04F448EA0308B4FBF2F135
:100B98004FEA184502FB11441FFA87FC45EA044551
:100BA80001FB0CF3AB4200FA0EF409D9ED1901F17F
:100BB800FF3080F08A80AB4240F2878002393D44A2
:100BC800EB1A1FFA88F5B3FBF2F002FB103345EA83
:100BD800034500FB0CF3AB4207D9ED1900F1FF38D0
:100BE8006FD2AB426DD902383D44EB1A40EA01415D
:100BF8008FE7C1F1200722FA07F88B4005FA01F4C4
:100C080048EA030320FA07FE4FEA134CFD404EEA78
:100C1800040EB5FBFCF94FEA1E440CFB19551FFAEC
:100C280083F844EA054509FB08F4AC4202FA01F2EC
:100C380000FA01FA08D9ED1809F1FF3043D2AC42A5
:100C480041D9A9F102091D442D1B1FFA8EFEB5FBDF
:100C5800FCF00CFB10554EEA054400FB08F8A045D3
:100C680007D9E41800F1FF3529D2A04527D9023861
:100C78001C4440EA0940A4EB0804A0FB02894C4547
:100C8800C6464D4615D312D056B1BAEB0E0364EBE7
:100C9800050404FA07F7CB401F43CC403760746063
:100CA8000021BDE8F0871846F8E69046E0E6C24520
:100CB800EAD2B8EB020E69EB03050138E4E72846EF
:100CC800D7E7404691E78146BEE7014678E7023814
:100CD8003C4445E7084608E7A8F102083D442BE7ED
:100CE800704700BF38B50E4A0E4B054618784FF4CA
:100CF8007A73B3FBF0F31068B0FBF3F000F0A2F8DE
:100D0800044658B90F2D09D8024629464FF0FF303E
:100D180000F04AF8044B20461D6038BD012038BD5C
:100D280024000020000000200400002008B50B4B20
:100D38001A6842F400721A601A6842F480621A60F3
:100D48001A6842F480721A60032000F01BF8002031
:100D5800FFF7C8FF02F0A4FA002008BD003C0240DB
:100D6800034A044B11681B780B441360704700BF9B
:100D78008C04002000000020014B1868704700BF59
:100D88008C040020074AD36823F4E0631B041B0C7F
:100D980043F0BF63000243F4003300F4E060034310
:100DA800D360704700ED00E0174B30B5DC68C4F342
:100DB8000224C4F10703251D042B28BF0423062D94
:100DC8004FF0010505FA03F303F1FF338CBF033C31
:100DD80000241940A14005FA04F4013C22400028EF
:100DE80042EA01024FEA0212AFBF00F1604000F090
:100DF8000F00064BD2B2A5BF00F56140D2B21A541B
:100E080080F8002330BD00BF00ED00E014ED00E0E5
:100E18004209012300F01F0003FA00F0014B43F8D8
:100E28002200704700E100E04309012200F01F00A2
:100E380002FA00F02033024A42F82300704700BF4C
:100E480000E100E00138B0F1807F0AD2064B074A82
:100E58005860F02182F823100020072298601A6059
:100E680070470120704700BF10E000E000ED00E08F
:100E78000368DAB223F47F7323F003031821103ACE
:100E8800B2FBF1F20449032A88BF0433895C836505
:100E9800C165806D704700BF6037000870B50446B3
:100EA800FFF76AFF0546002C71D0002384F8343020
:100EB8002268022384F83530136823F00103136095
:100EC80021680B68D8073CD40B68324D6268A0696A
:100ED8001D40A3681343E268134322691343626900
:100EE8001343E26903431343226A1343626A042AE1
:100EF80043EA050301BF266BE56A35432B430B60C4
:100F08004B69042A23F0070343EA02030BD1A26AC0
:100F1800E56A13433DB1F8B9012A2DD001D3022A5D
:100F280001D1EA012BD44B612046FFF7A1FFE26D06
:100F38003F239340836000200123606584F83530A7
:100F480070BDFFF719FF401B0528B9D92023636539
:100F5800032084F8350070BDB0F5005F13D1032A73
:100F6800E1D801A050F822F0870F00082B0F0008E5
:100F7800870F0008810F0008B5F1C07FD3D1402347
:100F880063650120E5E7022AF9D9032AC8E70120A9
:100F980070BD00BF3F8010F070B590F83440012C50
:100FA80036D0012480F8344090F83540866D012C05
:100FB8004FF000054FF0020428D180F8354004684E
:100FC8004565256825F48025256063608368402B86
:100FD8000EBFA260A160E260C26D08BFE1603F235E
:100FE8009340B360236843F016032360636943F0BA
:100FF80080036361036C1BB1236843F0080323601B
:10100800236843F001032360002070BD80F834504A
:10101800022070BD90F83530022B03D08023436541
:10102800012070470268052380F83530136823F0E3
:101038000103136000207047F7B5002301935A4B52
:10104800856D1F68C36D2E6808229A4016420446B3
:101058000CD001680868400708D5086820F004002B
:101068000860AA60626D42F00102626501229A403E
:10107800164208D021684969090641BFAA60626D15
:1010880042F00202626504229A40164208D02168A2
:101098000968880741BFAA60626D42F00402626570
:1010A80010229A40164210D02368196809070CD5F7
:1010B800AA601A68500335D51B68190301D4236C3C
:1010C80000E0A36C0BB120469847E16D20228A40CE
:1010D800164238D023681868C60634D5AA6094F832
:1010E8003520052A1A6825D122F016021A605A6995
:1010F80022F080025A61226C0AB9A26C1AB11A68ED
:1011080022F008021A603F238B40AB60002384F86A
:101118003430012384F83530236D0BB120469847CD
:1011280003B0F0BD1A68D2055EBF1A6822F0080243
:101138001A60C4E7500328D51B68190332D4636CBE
:101148000BB120469847636D002BE9D0636DDA0731
:1011580019D50523226884F83530136823F0010374
:1011680013604FF41653B7FBF3F7019B01339F420B
:10117800019302D31368DB07F7D4002384F83430D3
:10118800012384F83530E36CC7E71A6812F48072DB
:1011980008D1196821F010011960012384F834205E
:1011A80084F83530E36BCBE7240000202DE9F04FBD
:1011B80085B00B68DFF86881574A01934FF0010941
:1011C8000023019C09FA03FA0AEA0405AA4540F03B
:1011D80097804C6824F0100BBBF1020F14D14FEA32
:1011E800D30E00EB8E0E03F0070CDEF820604FEAFA
:1011F8008C0C0F2707FA0CF726EA07070E6906FA80
:101208000CF63E43CEF820604FEA430C03270668ED
:1012180007FA0CF7FF4304F0030E3E400EFA0CFEEB
:101228000BF1FF3B4EEA0606BBF1010F066011D831
:10123800866806EA070BCE6806FA0CFE4EEA0B062D
:101248008660466826EA0A0AC4F300169E4046EA03
:101258000A064660C66837408E6806FA0CF63743B9
:10126800E600C7604CD500260396D8F8446046F4DB
:101278008046C8F84460D8F8446023F0030707F1B3
:10128800804706F4804607F59C37039603F0030C65
:10129800039EBE684FEA8C0C4FF00F0E0EFA0CFE40
:1012A80026EA0E0E1D4EB04231D006F58066B042D9
:1012B8002FD006F58066B04214BF0726022606FA2C
:1012C8000CF646EA0E06BE601668EF4314F4803F3B
:1012D8000CBF3E402E431660566814F4003F0CBF06
:1012E8003E402E435660966814F4801F0CBF3E4063
:1012F8002E439660D668A40254BF3E402E43D66063
:101308000133102B7FF45DAF05B0BDE8F08F0026E8
:10131800D5E70126D3E700BF003C014000000240AA
:10132800003802400AB1816170470904FBE743694C
:10133800594041617047704708B5044B59690142EB
:1013480002D05861FFF7F7FF08BD00BF003C01401D
:1013580070B50446002862D090F83D3003F0FF02D3
:101368001BB980F83C2001F0F7FE22682D4E2E4D67
:10137800242384F83D30136823F00103136000F040
:101388001DF963682268B0FBF5F5B34284BF4FF4DA
:1013980096716943556091BF691C4FF47A75B1FB2A
:1013A800F5F10131B342116221D85B00B0FBF3F0D3
:1013B800C0F30B03032B98BF0420216AE369D061B3
:1013C8000B431360E16823690B439360A169636968
:1013D8000B43D360136843F00103136000202023FC
:1013E800206484F83D30206384F83E0070BDA16815
:1013F80049B903EB4303B0FBF3F0C0F30B0363B14C
:1014080040F40040D9E719214B43B0FBF3F0C0F397
:101418000B0313B140F44040CFE70120CDE7012092
:1014280070BD00BFA086010040420F00134908B5F7
:101438008B6803F00C03042B03D0082B03D010484F
:1014480008BD104808BD4A684B68496813F4800312
:1014580014BF0C480A48C1F3881118BF002302F0D2
:101468003F02A1FB0001FFF7B5FA044B5B68C3F329
:10147800014301335B00B0FBF3F008BD00380240C4
:101488000024F40000127A002DE9F0410D460446CC
:1014980010B90120BDE8F081444B1A6802F00F0230
:1014A8008A4228D321688F072DD4C80740D43F4BE0
:1014B8001A6802F00F02954266D3226851076CD46D
:1014C800130707D53A4A2169936823F4604343EA2E
:1014D800C1039360FFF7AAFF354B364A9B68C3F3F5
:1014E8000313D35CD840344B18600020FFF7FAFB95
:1014F8000020BDE8F081CAB21A701B6803F00F0320
:101508009942C6D1CEE72A4B11F0040F1EBF9A6844
:1015180042F4E0529A600E0742BF9A6842F4604271
:101528009A609A68A06822F0F00202439A60BCE7C9
:1015380062681F4B012A1DD11B6813F4003FA8D015
:101548001B4EB36823F003031343B360FFF714FC87
:1015580041F288380746B368626803F00C03B3EBBE
:10156800820FA4D0FFF708FCC01B4045F3D9032025
:10157800BDE8F081911E01291B6802D813F0007F95
:10158800DDE713F0020FDAE7EAB21A701B6803F01E
:101598000F039D427FF47DAF8FE70549E0688B68B4
:1015A80023F4E05303438B608AE700BF003C02400A
:1015B80000380240CA37000824000020044B054ABE
:1015C8009B68C3F38223D35C034A1068D8407047F2
:1015D80000380240DA37000824000020044B054A8E
:1015E8009B68C3F34233D35C034A1068D840704702
:1015F80000380240DA3700082400002003682DE98B
:10160800F341DD07044610D4236898075BD42368A8
:101618001A0700F19D8023685B0700F1BB80A2696F
:10162800002A40F01C81002015E0A74B9A6802F0C0
:101638000C02042A07D09A6802F00C02082A0DD17D
:101648005B6859020AD5A04B1B689A03DCD563680E
:10165800002BD9D1012002B0BDE8F08163689A4D12
:10166800B3F5803F11D12B6843F480332B60FFF72B
:1016780083FB954D06462B689B03C5D4FFF77CFB7F
:10168800801B6428F7D90320E5E7B3F5A02F04D120
:101698002B6843F480232B60E5E72A6822F4803224
:1016A8002A602A6822F480222A60002BDFD1FFF703
:1016B80063FB06462B689F03A6D5FFF75DFB801BDF
:1016C8006428F7D9DFE7804B9A6812F00C0F07D02F
:1016D8009A6802F00C02082A11D15B685E020ED4E7
:1016E800794B1A68950702D5E268012AB2D11A68BF
:1016F800216922F0F80242EAC1021A6087E7E2682B
:10170800724BB2B101221A60FFF736FB6E4D0646E6
:101718002B68980707D52B68226923F0F80343EA5A
:10172800C2032B6073E7FFF727FB801B0228EFD962
:10173800A9E71A60FFF720FB634D06462B68990757
:101748007FF565AFFFF718FB801B0228F6D99AE7EB
:1017580062695F4B7AB101221A60FFF70DFB5A4D9F
:1017680006466B6F9F073FF556AFFFF705FB801BDB
:101778000228F6D987E71A60FFF7FEFA524D0646A7
:101788006B6F98077FF547AFFFF7F6FA801B0228C3
:10179800F6D978E74C4B1A6C12F0805228D1019296
:1017A8001A6C42F080521A641B6C03F08053019348
:1017B800019B0126474D2B68D9051BD5A368424DCF
:1017C800012B27D12B6F43F001032B67FFF7D4FAC6
:1017D8003D4D074641F288382B6F9B0739D5002EBF
:1017E8003FF41DAF384A136C23F08053136416E797
:1017F8000026DFE72B6843F480732B60FFF7BCFA01
:1018080007462B68DA05D9D4FFF7B6FAC01B0228B9
:10181800F7D938E7052B04D12B6F43F004032B6766
:10182800D0E72A6F22F001022A672A6F22F0040209
:101838002A67002BCAD1FFF79FFA41F2883807467A
:101848002B6F9807CBD5FFF797FAC01B4045F7D900
:1018580019E7FFF791FAC01B4045BDD913E71A4DA8
:10186800AB6803F00C03082B3FF4F4AE1A4E0023C8
:10187800022A336038D1FFF77FFA07462B689901AF
:101888002CD4226AE3691343626A43EA8213E26A48
:1018980043EA0263226B43EA0273A26A0A4C5208C3
:1018A800013A43EA02436B6001233360FFF764FAAD
:1018B800054623689A013FF5B6AEFFF75DFA401B6F
:1018C8000228F6D9DFE600BF003802400000474290
:1018D800800E47420070004060004742FFF74CFA14
:1018E800C01B0228CAD9CEE6FFF746FA04462B6881
:1018F8009B017FF598AEFFF73FFA001B0228F6D947
:10190800C1E600BF036A23F001030362036A70B5EE
:10191800446882690D6822F073022A438D6823F0B7
:1019280002032B430A4DA8420BD1CD688E6923F0E0
:1019380008032B434D6924F44074354323F0040312
:101948002C43446082614A684263036270BD00BFF1
:1019580000000140036A23F480730362036A70B5D0
:101968004468C2690D6822F073022A438D6823F423
:10197800007343EA05230B4DA8420DD1CD688E694B
:1019880023F4006343EA05234D6924F440543543A6
:1019980023F4806344EA05144460C2614A68C26360
:1019A800036270BD00000140036A23F480530362A0
:1019B800036A30B54468C2690D6822F4E64242EA17
:1019C80005228D6823F4005343EA0533064DA842E7
:1019D80002BF4D6924F4804444EA85144460C2611E
:1019E8004A680264036230BD000001400368DA6897
:1019F80042F00102DA601A6842F001021A6000201F
:101A08007047704770477047704703681A699107B5
:101A180010B504460ED5DA6892070BD56FF00202AE
:101A28001A619B6901229B07027677D0FFF7EBFFCB
:101A38000023237623681A69500710D5DA685107FE
:101A48000DD56FF004021A619B69022213F4407FDE
:101A58002276204668D0FFF7D6FF00232376236836
:101A68001A6912070FD5DA6810070CD56FF008024B
:101A78001A61DB6904229907227620465AD0FFF7BB
:101A8800C2FF0023237623681A69D20610D5DA68C4
:101A9800D0060DD56FF010021A61DB69082213F425
:101AA800407F227620464BD0FFF7ADFF00232376F8
:101AB80023681A69D10708D5DA68D20705D56FF007
:101AC80001021A612046FFF79CFF23681A69100675
:101AD80008D5DA68110605D56FF080021A6120462C
:101AE80000F0D9F923681A69520608D5DA68500651
:101AF80005D56FF040021A612046FFF785FF23687D
:101B08001A69910622D5DA6892061FD56FF020026D
:101B180020461A61BDE8104000F0BCB9FFF772FF1B
:101B2800204601F0DDFB83E7FFF76CFF204601F05C
:101B3800D7FB92E7FFF766FF204601F0D1FBA0E74D
:101B4800FFF760FF204601F0CBFBAFE710BD0000B8
:101B5800154A0368904210B502D0144CA0420ED129
:101B68004C6823F07003904243EA040304D1CA6826
:101B780023F44073134309E00C4A9042F7D00C4A0F
:101B88009042F4D002F500629042F0D003608B6876
:101B9800C3620B688362044B984204BF0B690363FA
:101BA8000123436110BD00BF00000140000C00404C
:101BB8000040014010B50446A0B190F8393003F058
:101BC800FF021BB980F8382001F024FC022384F8B6
:101BD80039302068211DFFF7BBFF012384F8393015
:101BE800002010BD012010BD10B50446A0B190F82A
:101BF800393003F0FF021BB980F8382001F0ECFB04
:101C0800022384F839302068211DFFF7A1FF012342
:101C180084F83930002010BD012010BD036A23F07C
:101C280010030362036A70B5446882690D6822F480
:101C3800E64242EA05228D6823F0200343EA0513B1
:101C48000B4DA8420DD1CD688E6923F0800343EA7D
:101C580005134D6924F44064354323F0400344EAF6
:101C68008504446082614A688263036270BD00BF74
:101C78000000014038B590F83830012B04464FF089
:101C8800020025D0012384F8383084F839000C2A62
:101C980018D8DFE802F0071717171E1717172F179E
:101CA800171740002068FFF72DFE236809699A6915
:101CB80042F008029A619A6922F004029A619A69CC
:101CC8000A439A610123002084F8393084F83800E7
:101CD80038BD2068FFF7A2FF236809699A6942F4B2
:101CE80000629A619A6922F480629A619A6942EA6A
:101CF8000122E6E72068FFF72DFE23680969DA6903
:101D080042F00802DA61DA6922F00402DA61DA697B
:101D18000A43DA61D6E72068FFF746FE23680969B7
:101D2800DA6942F40062DA61DA6922F48062DA611F
:101D3800DA6942EA0122ECE7036A10B501248C4013
:101D480023EA04030362036A8A401A43026210BD4D
:101D580010B504460C290DD8DFE801F0070C0C0C6F
:101D68001E0C0C0C230C0C0C28000268D36843F0E2
:101D78000203D36020680122FFF7DEFF23680E4AC2
:101D8800934202BF5A6C42F400425A641A6842F005
:101D980001021A60002010BD0268D36843F00403F2
:101DA800E7E70268D36843F00803E2E70268D3680C
:101DB80043F01003DDE700BF0000014010B5044602
:101DC8000C290DD8DFE801F0070C0C0C320C0C0CB8
:101DD800370C0C0C3C000268D36823F00203D36074
:101DE80000222068FFF7A8FF2368184A93420DD104
:101DF800196A41F21112114208D1196A40F244429B
:101E0800114202BF5A6C22F400425A64196A41F224
:101E18001112114208D1196A40F24442114202BF1C
:101E28001A6822F001021A60002010BD0268D36807
:101E380023F00403D3E70268D36823F00803CEE74E
:101E48000268D36823F01003C9E700BF000001400F
:101E580090F83830012B10B54FF0020318D080F8F5
:101E6800393003680C685A68496822F070025A6071
:101E78005A6822435A609A6822F080029A609A68E7
:101E88000A439A60012380F83930002380F83830FB
:101E9800184610BD704770470368DA6822F49072DC
:101EA800DA605A6922F001025A61202380F83A3038
:101EB800704700002DE9F0470668C2683369C169B8
:101EC80023F4405313433361044683680069F2687E
:101ED8000343606922F41642034322F00C020B43C9
:101EE8001343F3607369A26923F440731343B1F594
:101EF800004F73617A4B7CD19E4203D003F5806317
:101F08009E4244D1FFF76AFB192505FB00F3606880
:101F18004FF064094000B3FBF0F3B3FBF9F34FEA69
:101F28000318FFF75BFB636868435B00B0FBF3F7DC
:101F3800FFF754FB636868435B00B0FBF3F3B3FB44
:101F4800F9F309FB1373DB003233B3FBF9F35B00DE
:101F580003F4F877FFF742FB626868435200B0FB6E
:101F6800F2FAFFF73BFB636868435B00B0FBF3F3EF
:101F7800B3FBF9F309FB13A3DB003233B3FBF9F32B
:101F880003F0070343443B44B360BDE8F087FFF721
:101F980015FB192505FB00F360684FF06409400044
:101FA800B3FBF0F3B3FBF9F34FEA0318FFF706FBB3
:101FB800636868435B00B0FBF3F7FFF7FFFA6368F9
:101FC80068435B00B0FBF3F3B3FBF9F309FB13734E
:101FD800DB003233B3FBF9F35B0003F4F877FFF768
:101FE800EDFA626868435200B0FBF2FAFFF7E6FACE
:101FF800B9E79E4202D03B4B9E4240D1FFF7EEFA32
:10200800676819254FF0640905FB00F3BF00B3FBAF
:10201800F7F3B3FBF9F31F01FFF7E0FA63686843CE
:102028009B00B0FBF3F8FFF7D9FA636868439B009D
:10203800B0FBF3F3B3FBF9F309FB13831B01323352
:10204800B3FBF9F303F0F008FFF7C8FA62686843D6
:102058009200B0FBF2FAFFF7C1FA636868439B008D
:10206800B0FBF3F3B3FBF9F309FB13A31B01323302
:10207800B3FBF9F303F00F0343EA080383E7FFF721
:102088009DFA676819254FF0640905FB00F3BF0046
:10209800B3FBF7F3B3FBF9F31F01FFF78FFA63689C
:1020A80068439B00B0FBF3F8FFF788FA636868435E
:1020B8009B00B0FBF3F3B3FBF9F309FB13831B019C
:1020C8003233B3FBF9F303F0F008FFF777FA6268ED
:1020D80068439200B0FBF2FAFFF770FABDE700BF61
:1020E8000010014000140140F8B504460E4617469A
:1020F8001D4621680B6836EA030301D10020F8BDAC
:102108006B1CF7D095B92368DA6822F4D072DA60CC
:102118005A6922F001025A61202384F8393084F880
:102128003A30002384F838300320F8BDFEF724FE47
:10213800C01B8542DDD2E6E710B5044640B390F8EF
:10214800393003F0FF021BB980F8382001F018FA83
:102158002268242384F83930D36823F40053D360E9
:102168002046FFF7A7FE23681A6922F490421A61F5
:102178005A6922F02A025A61DA6842F40052DA6097
:1021880000202023E06384F8393084F83A3010BD09
:10219800012010BD2DE9F0411F4690F83930202B61
:1021A80004460D4690464FD100294AD0002A48D00F
:1021B80090F83830012B47D0012380F838300023BD
:1021C800C363212380F83930FEF7D6FDA4F82480B4
:1021D8000646A4F82680E38C9BB26BB93B46324690
:1021E80040212046FFF780FFB0B9202384F839301A
:1021F80084F83800BDE8F081E38C013B9BB2E384AE
:10220800A368B3F5805F32463B464FF08001204615
:102218000ED1FFF769FF10B10320BDE8F0812B88CC
:102228002268C3F308035360236943B90235D2E730
:10223800FFF75AFF0028EFD123682A785A60013542
:10224800C9E70120BDE8F0810220BDE8F08190F8DF
:102258003930202B18D1A9B1A2B190F83830012B10
:1022680012D0C2840162828400230168C3632122E0
:1022780080F83920CA6880F8383042F08002CA6095
:10228800184670470120704702207047134690F89F
:102298003A20202A73B5054638D1002934D0002BBE
:1022A80032D090F83820012A30D00122002480F85A
:1022B80038202222C4638162838580F83A20406BEB
:1022C800134AC2632E68134A0264134AC26404653F
:1022D8000A46311DFEF760FE2B6801941A680192C8
:1022E8005A680192019ADA6885F8384042F4807297
:1022F800DA605A6942F001025A615A6942F04002B2
:102308005A61204602B070BD0120FBE70220F9E7C0
:1023180029230008D7230008E323000870477047E3
:1023280008B50368826B1B6813F4807310D1D385DA
:102338001368D96821F48071D960596921F00101C5
:102348005961596921F040015961202382F83A30D6
:102358001046FFF7E4FF08BD90F83A30222B10B57D
:1023680032D1836801690268B3F5805F836A1FD13F
:102378005268C9B9C2F3080223F8022B8362C48DDC
:10238800013CA4B2C4856CB90368DA6822F490727F
:10239800DA605A6922F001025A61202380F83A3043
:1023A800FFF7BDFF002010BDD2B223F8012BE5E7EF
:1023B80021B9591C526881621A70E0E75268591CA9
:1023C800816202F07F02F7E7022010BD704708B56E
:1023D800806BFFF7FBFF08BD7047816B08B50B6882
:1023E8005A6991F8390021280AD1120608D5002225
:1023F800CA84DA6822F0C002DA60202281F8392023
:102408005B6991F83A20222A06D15B0604D500239D
:10241800CB850846FFF740FDCB6B43F01003CB6339
:102428000846FFF7D9FF08BD03681A68D96870B570
:10243800160704465D6907D196065AD58D0658D504
:10244800BDE87040FFF788BF15F0010502D111F40F
:10245800907F4ED0D30705D5CE0542BFE36B43F03E
:102468000103E363500704D51DB1E36B43F0020396
:10247800E363930704D51DB1E36B43F00403E363FF
:10248800160704D51DB1E36B43F00803E363E36B60
:10249800002B66D0950604D5880602D52046FFF79E
:1024A8005BFF23685D69E26B1107204602D415F0D3
:1024B80040051AD0FFF7F0FC23685A69520610D578
:1024C8005A69606B22F040025A6150B1254B03658E
:1024D800FEF7A0FD002844D0606BBDE87040036D96
:1024E80018472046FFF778FF70BDFFF775FFE563D3
:1024F80070BD160627D50D0625D594F83920212A52
:102508002FD1A268B2F5805F226A17D11188C1F372
:1025180008015960216979B902322262E28C013AD4
:1025280092B2E284EAB9DA6822F08002DA60DA6804
:1025380042F04002DA6070BD0132EEE7511C2162C0
:1025480012785A60EAE750060BD54A0609D5DA68C8
:1025580022F04002DA60202384F839302046FFF761
:10256800DDFE70BD7125000808B5806B0023C385AA
:10257800C384FFF731FF08BD08B5074B07481B6840
:1025880093ED020B00F012FC054B06491868062271
:10259800BDE80840FFF75BBE44000020900400201F
:1025A800400200206837000808B50021054800F0FF
:1025B800EBFB054B054918680622BDE80840FFF704
:1025C80046BE00BF90040020400200206F3700087C
:1025D80008B500224FF400410548FEF7A3FE054B5D
:1025E800054918680622BDE80840FFF730BE00BF5D
:1025F80000040240400200207637000808B5012296
:102608004FF400410548FEF78DFE054B0549186853
:102618000622BDE80840FFF71ABE00BF00040240CA
:10262800400200208537000808B500224FF4804199
:102638000548FEF777FE054B054918680622BDE8F0
:102648000840FFF704BE00BF00040240400200201B
:102658008C37000808B501224FF480410548FEF781
:1026680061FE054B054918680622BDE80840FFF7DA
:10267800EEBD00BF0004024040020020933700086E
:1026880008B520210548FEF752FE054B0549186894
:102698000722BDE80840FFF7DABD00BF000002408E
:1026A800400200207D37000807B504460846114659
:1026B80000F058F800F072F82046FFF797F9062363
:1026C800002225492548264C00F072FA4FF4487339
:1026D80000934FF4C87241F288334FF47A711F485F
:1026E80000F086FA254600F073F80128FBD100F0C7
:1026F80079F8B0F9003020607BB1012B07D01C2B92
:1027080008D038220021286801F012F8EBE7FFF71B
:1027180033FFF6E7FFF748FFF3E7B0F90230002B85
:10272800EFD0142B11D006DC0A2B0BD00B2BE8D1E1
:10273800FFF764FFE5E7152B0AD0642BE1D1FFF71B
:102748009FFFDEE7FFF744FFDBE7FFF76DFFD8E702
:10275800FFF780FFD5E700BFF405002090040020B4
:10276800440000200B4B0C4A9A604FF4FA7283E83D
:1027780003009A8100214FF40C7203F1100083F8D2
:1027880040129973D97383F8421283F8411200F00A
:10279800CFBF00BF4002002048000020034B04497F
:1027A80018684FF4FA72FFF771BD00BF40020020AD
:1027B80048000020054A5368D07B1B685B68C3F556
:1027C800FA73C01A18BF0120704700BF40020020EA
:1027D800034B93F84002003018BF0120704700BF38
:1027E8004002002030B50E4B93F8422293F8411274
:1027F800914212D093F8400280B1551C0A24013846
:1028080095FBF4F183F8400204FB1151382000FBDA
:10281800023083F84212103030BD002030BD00BFB6
:102828004002002030B50139012400230A2500297F
:1028380001DA184630BD425C303A12FB04F2134408
:102848001BB26C430139F2E72DE9F74F4C1EDFF854
:102858008890019482464FF0000801250026002741
:10286800002C04DA47EC106B03B0BDE8F08F1AF8BF
:1028780004002E281BD1019B0025A3EB040B5D450A
:102888000ADB3046394642464B46FDF771FE0125C4
:1028980006460F46013CE3E7404649460CA3D3E908
:1028A8000023FDF765FE013580468946E7E73038A5
:1028B8006843FDF7F7FD0B46024639463046FDF7FB
:1028C800A5FC0A2306460F465D43E3E7AFF3008005
:1028D8009A9999999999B93F0000F03F2DE9F04FDD
:1028E800AA4D6B68EC7B1B6889B05F6803AE142245
:1028F8000021C7F5FA77304600F01AFF1FFA84F86E
:10290800BFB24FF47A730722A149A248FFF742FCED
:10291800B84527D2A7EB0803DFF87C929BB24FF4A7
:10292800FA78002B1ADD19F804203B2A04F101017A
:102938001DD195F84032013385F8403295F841327F
:102948000A20013393FBF0F200FB123385F8413281
:102958004FF4FA7391FBF3F403FB1414EC7309B00E
:10296800BDE8F08FFBD9C8F5FA733B44D4E7482A91
:1029780034D8472A06D22A2A04D033D3A2F14100F8
:1029880002282FD891FBF8F408FB141419F8041046
:102998002D2901BF013403F1FF3394FBF8F14FF007
:1029A800FF370CBF08FB11440127002119F8040068
:1029B8002028A3EB010A5DD1432A00F09D802ED880
:1029C800412A6DD000F282802A2A00F0C1801422A8
:1029D8000021304600F0ACFE534603E04D2AD1D02A
:1029E800502ACFD019F804203B2A04F1010440F002
:1029F800C78095F84032013385F8403295F8413266
:102A08000A21013393FBF1F201FB123385F84132BD
:102A18004FF4FA7394FBF3F203FB12449EE7482A3F
:102A280032D00DD8472AD2D13046FFF7FBFE95F8B1
:102A38004132382202FB035317FB00F71F82C6E717
:102A48004D2A6FD0502AC2D13046FFF7FDFE95F8C7
:102A580041B253EC102B38213846CDE9002301FB55
:102A68000B5BFDF71FFDDDE90023FDF781FDCBE9D9
:102A78000C01ACE73B289FD00134705494FBF8F06C
:102A8800013108FB104491E73046FFF7CBFE95F87B
:102A98004132382202FB035317FB00F75F8296E7A7
:102AA8003046FFF7D1FE95F841B253EC102B382190
:102AB8003846CDE9002301FB0B5BFDF7F3FCDDE9AC
:102AC8000023FDF755FDCBE9060180E73046FFF707
:102AD800BBFE95F841B253EC102B38213846CDE9AE
:102AE800002301FB0B5BFDF7DDFCDDE90023FDF7AF
:102AF8003FFDCBE908016AE73046FFF7A5FE95F8E8
:102B080041B253EC102B38213846CDE9002301FBA4
:102B18000B5BFDF7C7FCDDE90023FDF729FDCBE9D9
:102B28000A0154E73046FFF78FFE95F841B253EC9F
:102B3800102B38213846CDE9002301FB0B5BFDF74C
:102B4800B1FCDDE90023FDF713FDCBE910013EE7F9
:102B58003046FFF779FE95F841B238230BFB033373
:102B6800384605EB030B8DED000BFDF79BFC9DED47
:102B7800000B53EC102BFDF7FBFCCBE9000126E71B
:102B880094FBF8F2013B08FB1244CAE6400200201D
:102B98009A370008CC0600204800002008B5FFF747
:102BA80009FE012803D1BDE80840FFF797BE08BD1C
:102BB80038B54160096881600B4902730A78044698
:102BC800501C0870002522704FF48062A5732261A2
:102BD8006373607B40B2FEF727F9044B20465B68BD
:102BE80029469847012038BD8804002008000020A5
:102BF80010B5029C4162002C826208BF4FF4486401
:102C0800036300234463836102230375032343752D
:102C1800012010BD426B036B70B59E1A13447343B9
:102C2800446A856AB3FBF4F2B3FBF5F352085B0818
:102C3800D6188E420CD969432C44B1FBF4F1012912
:102C48008CBF01F1FF3300238363C163002070BD93
:102C580001398263C91AF8E738B505460C46FEF70C
:102C6800E5FB29696B681B684C43B0FBF4F001383D
:102C7800D8626B68D8606B682A7B1B68920834330B
:102C8800400843F822006868297BFFF761F80020B4
:102C980038BD000038B5074D04466B6800219847D9
:102CA8006068217BFFF78AF82046AB6998470020C7
:102CB80038BD00BF0800002038B50A4B044600257F
:102CC80005645B68C56101219847A36B33B16575DD
:102CD800616B2046FFF7C0FF002038BD01236375F4
:102CE800F6E700BF0800002038B5827B04460B4693
:102CF80002F0FF05A2B90121002B817310D0094A07
:102D0800ADBF03625B4203622946B4BF1368136810
:102D18009847216A2046FFF77DFF2046FFF7CCFF42
:102D2800002038BD08000020F8B5837B0E46044615
:102D380003F0FF011BBB0123002E837302D18673AE
:102D48003046F8BD0F4F17DA3A6819469047002504
:102D5800062325642046A5630121E5632562E56114
:102D680063757B68984786EAE671A1EBE6712046B1
:102D7800FFF772FF2846F8BD3B689847E7E74FF032
:102D8800FF30F8BD0800002010B5044651B90A46C6
:102D9800A1F54861FFF7C8FF607B40B2FEF738F83D
:102DA800002010BD002209B2F4E7000010B500228F
:102DB80004464FF07F5351EC100BFDF7D9FB00226E
:102DC800054BFDF7D5FBFDF7E5FD01462046BDE8BF
:102DD8001040FFF789BF00BF0000A940F8B5C369DC
:102DE8000133C361066AC16A446A826A057D8769DC
:102DF800002D14BF01254FF0FF353D448561457D09
:102E0800062D0FD8DFE805F01042366D426D04003C
:102E1800437D052B01D1032303E0437D042B01D11E
:102E2800012343750020F8BDB342F4D2826B93426C
:102E380001D30223F5E7026C002908BF012123040E
:102E4800B3FBF1F3134403640023026CB2F5803F33
:102E580009D2002BE6D0036B994200D9016BC162FD
:102E6800FFF7FAFEDEE7036CA3F580330364013154
:102E78000123EAE7C26B934202D300230364CFE73E
:102E8800826B9342CED800230364CAE7B342C2D20E
:102E9800446BA142BFD9C46BA342CAD9437D052B59
:102EA800B9D0046C002908BF01211304B3FBF1F366
:102EB800234403640023026CB2F5803F06D2002B42
:102EC800B0D0436B994238BF416BC8E7036C012906
:102ED800A3F5803303648CBF01F1FF310121012385
:102EE800E9E7C269037D5A43826914BF01234FF0A1
:102EF800FF33134483610023C36103628373032395
:102F08004375FFF7C7FE8DE710B50446407B40B216
:102F1800FDF78AFF052300206375A06110BD00003E
:102F280003783BB90A1C18BF01224FF4004102483C
:102F3800FEF7F8B9704700BF0004024003783BB9B8
:102F4800B1FA81F252094FF400710248FEF7EAB96A
:102F5800704700BF000802400378032B11D8DFE850
:102F680003F002070A0D074909220748FFF76FB95E
:102F780009220649F9E709220549F6E70922054920
:102F8800F3E77047A23700080C070020AC370008A9
:102F9800B6370008C0370008044B01689A689142A8
:102FA80002D11846FFF71ABF704700BF90040020EF
:102FB800034B5B69DB0702D50248FFF7A5BF7047E3
:102FC800003C01409004002007B50B4B0022019201
:102FD800196B41F4001119631B6B03F4001301937F
:102FE80011461020019BFDF7DFFE1020FDF710FFB2
:102FF80003B05DF804FB00BF003802402DE9F04340
:1030080014228BB00DEB0200002100F091FB00248C
:103018003C4B01941A6BDFF8F890DFF8F8803A4ED1
:1030280042F004021A631A6B02F004020192019A38
:1030380002941A6B42F080021A631A6B02F0800243
:103048000292029A03941A6B42F001021A631A6BF5
:1030580002F001020392039A04941A6B42F00202EE
:103068001A631B6B03F0020304932246484630217F
:10307800049BFEF757F92246404648F20301FEF743
:1030880051F9224630464FF40071FEF74BF90925F5
:103098001E4B069305A93046012705950794FEF7B0
:1030A80085F8302305A948460593069707940894A0
:1030B800FEF77CF848F2030305A9404605930697F6
:1030C80007940894FEF772F84FF4007305A9304688
:1030D8000593069707940894FEF768F82246214658
:1030E8000620FDF761FE0620FDF792FE22462146E6
:1030F8002846FDF759FE2846FDF78AFE0BB0BDE8C5
:10310800F08300BF003802400008024000001110A0
:10311800000002400004024008B50C480C4BDFF8E0
:1031280034E04FF4804280E8084000238360C360A5
:10313800026143618361C3610362FEF709F918B153
:10314800BDE8084000F0AAB808BD00BFA0050020EF
:1031580000580040A086010030B5044689B014220A
:10316800002103A800F0E4FA2268154B9A4224D102
:10317800144C154800250195236B43F00203236383
:10318800236B03F002030193019B4FF44063039305
:1031980012230493012305930323069303A904230D
:1031A8000793FEF703F80295236C43F48003236426
:1031B800236C03F480030293029B09B030BD00BF67
:1031C80000580040003802400004024030B595B075
:1031D8003422002107A800F0ABFA0021142202A82B
:1031E80000F0A6FA00251B4B00951A6C42F080529D
:1031F8001A641B6C03F080530093009B164B0195D7
:103208001A6842F440421A601B680E9503F4404362
:103218000193019B01230A9310230B930F934FF4FF
:10322800A8730224109307A80423119312930794F8
:103238000D941394FEF7E2F90F23029321464FF4FD
:10324800805302A80394049505930695FEF71CF98C
:1032580015B030BD003802400070004008B5FDF7D9
:1032680065FDFFF7B3FFFFF7C9FEFFF7ADFE00F0FE
:103278006BF900F04DF900F015F900F08BF8FFF745
:103288004BFF034A03490448FFF70EFAFEE700BF65
:103298006C0600200C070020300600207047000054
:1032A80007B50E4B002100915A6C42F480425A64D3
:1032B8005A6C02F480420092009A01911A6C42F012
:1032C80080521A641B6C03F0805301930720019B02
:1032D800FDF758FD03B05DF804FB00BF003802405D
:1032E800FFF75ABE7047FEE7FEE7FEE7FEE77047C6
:1032F80070477047FDF734BD08B5FFF759FE012048
:10330800BDE80840FEF718B80820FEF715B8000019
:103318000148FDF791BE00BF6C0600200148FFF789
:1033280083B800BF0C0700200148FEF76EBB00BF42
:10333800F405002008B5FFF731FC0248BDE8084055
:10334800FEF763BB300600200F49D1F8883043F4FC
:103358007003C1F888300D4B1A68002042F0010252
:103368001A6098601A6822F0847222F480321A6017
:10337800074A5A601A6822F480221A60D8604FF00F
:1033880000638B60704700BF00ED00E0003802402A
:103398001030002413B50E4A0E4841F2BF23002412
:1033A80080E80C006323009401948460C360FEF7F6
:1033B80001FC08B1FFF772FF6946064800940194C2
:1033C800FEF746FD08B1FFF769FF02B010BD00BF68
:1033D800001000403006002007B50D4B02689A42E5
:1033E80013D1002203F50B330192196C41F0080147
:1033F80019641B6C03F00803019332201146019BEA
:10340800FDF7D2FC3220FDF703FD03B05DF804FBA5
:10341800000C004007B50D4B02689A4213D10022F8
:1034280003F50A330192196C41F0100119641B6C01
:1034380003F01003019336201146019BFDF7B4FCFD
:103448003620FDF7E5FC03B05DF804FB00100040F2
:1034580010B5044686B01422002101A800F068F9CE
:1034680022680D4B9A4214D1002300930B4B0C4851
:103478001A6B42F001021A631B6B03F001030093FD
:10348800009B0123019301A9022302930593FDF7F1
:103498008DFE06B010BD00BF000C00400038024091
:1034A8000000024010B500248AB01C22214603A85F
:1034B8000194029400F03CF91348144B846080E8AE
:1034C8001800C4600461FEF78FFB08B1FFF7E6FE41
:1034D80001A90D4801940294FEF7BAFC08B1FFF760
:1034E800DDFE0022602303A9074803930492059296
:1034F8000792FEF7BFFB08B1FFF7D0FE0248FFF7BF
:10350800A7FF0AB010BD00BFF4050020000C004062
:1035180008B50B480B4B4FF4E13E80E808400C22FD
:1035280000238360C360036142618361C361FEF766
:1035380003FE18B1BDE80840FFF7B0BE08BD00BFE4
:10354800CC0600200010014008B50B480B4B4FF487
:10355800E13E80E808400C2200238360C3600361D9
:1035680042618361C361FEF7E7FD18B1BDE8084019
:10357800FFF794BE08BD00BF0C07002000440040C0
:1035880070B514228AB0064600210DEB020000F047
:10359800CFF83368384A934225D1384B3848002150
:1035A80001915A6C42F010025A645A6C02F01002EF
:1035B8000192019A02911A6B42F002021A631B6B84
:1035C80003F002030293029BC02305930223069390
:1035D800012307930323089305A907230993FDF7FC
:1035E800E5FD0AB070BD274A9342FAD10025234B66
:1035F80003951A6C2448254C42F400321A641A6C5C
:1036080002F400320392039A04951A6B42F0010205
:103618001A631B6B03F001030493049B0C230593AB
:1036280002230693012307930323089305A907237D
:103638000993FDF7BBFD164AA5604FF0006384E8C7
:103648000C0020464FF48063E56023616561A56145
:10365800E56125626562FDF721FC08B1FFF71EFEF2
:103668000022746311462620A663FDF79DFB2620E1
:10367800FDF7CEFBB5E700BF00100140003802405F
:103688000004024000440040000002406C06002094
:1036980088600240DFF834D0002103E00C4B5B580F
:1036A800435004310B480C4B42189A42F6D30B4A4C
:1036B80002E0002342F8043B094B9A42F9D3FFF792
:1036C80043FE00F011F8FFF7C9FD704700800020A5
:1036D800F4370008000000202800002028000020FF
:1036E8004C070020FEE7000070B50D4E0D4CA41BE2
:1036F800A4100025A54209D10B4E0C4C00F020F86F
:10370800A41BA4100025A54205D170BD56F825308C
:1037180098470135EEE756F8253098470135F2E726
:10372800EC370008EC370008EC370008F0370008E1
:1037380002440346934200D1704703F8011BF9E79E
:10374800F8B500BFF8BC08BC9E467047F8B500BF86
:08375800F8BC08BC9E46704756
:103760000006101600061016473031204F4B004758
:103770003238204F4B00483130204F4B0048313019
:1037800030204F4B00483131204F4B004832302021
:103790004F4B00483231204F4B0068656C6C6F0D09
:1037A0000A004D4F5645204F4B2041004D4F564586
:1037B000204F4B2042004D4F5645204F4B20430099
:1037C0004D4F5645204F4B20500000000000000098
:1037D00000000102030406070809000000000102BE
:0437E00003040000DE
:0837E40028D2FF7F0100000064
:0437EC00ED010008E3
:0437F000C901000803
:1037F4000100000010000000292F0008452F0008D8
:1038040000000000000000000000000000000000B4
:08381400612F00080024F400FC
:040000050800369D1C
:00000001FF
