:020000040800F2
:1000000000800020A15D000827580008355800082E
:100010003B580008415800084758000800000000FD
:100020000000000000000000000000004D58000823
:100030005B58000800000000695800087758000865
:10004000F15D0008F15D0008F15D0008F15D000858
:10005000F15D0008F15D000883580008F15D0008BB
:10006000F15D000895580008F15D0008F15D000899
:10007000F15D0008F15D0008F15D0008F15D000828
:10008000A5580008F15D0008F15D000800000000BF
:10009000000000000000000000000000F15D00080A
:1000A000F15D0008F15D0008F15D0008F15D0008F8
:1000B000000000000000000000000000F15D0008EA
:1000C000F15D0008F15D0008F15D0008F15D0008D8
:1000D000F15D0008F15D0008B9580008000000005B
:1000E000F15D0008F15D0008000000000000000064
:1000F000000000000000000000000000F15D0008AA
:100100000000000000000000CD58000800000000C2
:100110000000000000000000E1580008000000009E
:10012000F15D0008F15D0008F15D0008F15D000877
:10013000F15D000800000000000000000000000069
:1001400000000000000000000000000000000000AF
:10015000F15D0008F15D0008F15D0008F15D000847
:10016000000000000000000000000000000000008F
:10017000000000000000000000000000000000007F
:10018000F15D0008F15D00080000000000000000C3
:1001900000000000F15D0008000000000000000009
:1001A000000000000000000000000000000000004F
:1001B000000000000000000000000000F15D0008E9
:0801C000F15D0008F15D00088B
:1001C80010B5054C237833B9044B13B10448AFF389
:1001D80000800123237010BD2800002000000000CB
:1001E8004C5E000808B5034B1BB103490348AFF345
:1001F800008008BD000000002C0000204C5E0008B4
:1002080081F0004102E000BF83F0004330B54FEABF
:1002180041044FEA430594EA050F08BF90EA020F2C
:100228001FBF54EA000C55EA020C7FEA645C7FEABF
:10023800655C00F0E2804FEA5454D4EB5555B8BFE2
:100248006D420CDD2C4480EA020281EA030382EA53
:10025800000083EA010180EA020281EA0303362DE5
:1002680088BF30BD11F0004F4FEA01314FF4801CB8
:100278004CEA113102D0404261EB410113F0004FCA
:100288004FEA03334CEA133302D0524263EB430381
:1002980094EA050F00F0A780A4F10104D5F1200E1F
:1002A8000DDB02FA0EFC22FA05F2801841F100017A
:1002B80003FA0EF2801843FA05F359410EE0A5F14E
:1002C80020050EF1200E012A03FA0EFC28BF4CF07F
:1002D800020C43FA05F3C01851EBE37101F0004535
:1002E80007D54FF0000EDCF1000C7EEB00006EEB42
:1002F8000101B1F5801F1BD3B1F5001F0CD34908CC
:100308005FEA30004FEA3C0C04F101044FEA445222
:1003180012F5800F80F09A80BCF1004F08BF5FEAA9
:10032800500C50F1000041EB045141EA050130BD89
:100338005FEA4C0C404141EB010111F4801FA4F12C
:100348000104E9D191F0000F04BF01460020B1FA81
:1003580081F308BF2033A3F10B03B3F120020CDAB9
:100368000C3208DD02F1140CC2F10C0201FA0CF097
:1003780021FA02F10CE002F11402D8BFC2F1200CFC
:1003880001FA02F120FA0CFCDCBF41EA0C019040B2
:10039800E41AA2BF01EB0451294330BD6FEA0404FB
:1003A8001F3C1CDA0C340EDC04F11404C4F12002E6
:1003B80020FA04F001FA02F340EA030021FA04F3F8
:1003C80045EA030130BDC4F10C04C4F1200220FA4F
:1003D80002F001FA04F340EA0300294630BD21FA8D
:1003E80004F0294630BD94F0000F83F4801306BF53
:1003F80081F480110134013D4EE77FEA645C18BF47
:100408007FEA655C29D094EA050F08BF90EA020FDD
:1004180005D054EA000C04BF1946104630BD91EAD5
:10042800030F1EBF0021002030BD5FEA545C05D1D8
:100438004000494128BF41F0004130BD14F5800417
:100448003CBF01F5801130BD01F0004545F0FE418B
:1004580041F470014FF0000030BD7FEA645C1ABFC0
:10046800194610467FEA655C1CBF0B46024650EAF7
:10047800013406BF52EA033591EA030F41F4002123
:1004880030BD00BF90F0000F04BF0021704730B5A9
:100498004FF4806404F132044FF000054FF000017E
:1004A80050E700BF90F0000F04BF0021704730B53F
:1004B8004FF4806404F1320410F0004548BF404214
:1004C8004FF000013EE700BF42004FEAE2014FEA69
:1004D80031014FEA02701FBF12F07F4393F07F4F44
:1004E80081F06051704792F0000F14BF93F07F4F76
:1004F800704730B54FF4607401F0004521F00041B9
:1005080020E700BF50EA010208BF704730B54FF03E
:1005180000050AE050EA010208BF704730B511F043
:10052800004502D5404261EB41014FF4806404F17B
:1005380032045FEA915C3FF4DCAE4FF003025FEAFD
:10054800DC0C18BF03325FEADC0C18BF033202EB85
:10055800DC02C2F1200300FA03FC20FA02F001FADF
:1005680003FE40EA0E0021FA02F11444C1E600BF7E
:1005780070B54FF0FF0C4CF4E06C1CEA11541DBF31
:100588001CEA135594EA0C0F95EA0C0F00F0DEF8FC
:100598002C4481EA030621EA4C5123EA4C5350EAE1
:1005A800013518BF52EA033541F4801143F4801332
:1005B80038D0A0FB02CE4FF00005E1FB02E506F0C3
:1005C8000042E0FB03E54FF00006E1FB03569CF018
:1005D800000F18BF4EF0010EA4F1FF04B6F5007F1E
:1005E80064F5407404D25FEA4E0E6D4146EB060690
:1005F80042EAC62141EA55514FEAC52040EA5E5019
:100608004FEACE2EB4F1FD0C88BFBCF5E06F1ED8C2
:10061800BEF1004F08BF5FEA500E50F1000041EBF9
:10062800045170BD06F0004646EA010140EA0200A6
:1006380081EA0301B4EB5C04C2BFD4EB0C0541EAC8
:10064800045170BD41F480114FF0000E013C00F3DD
:10065800AB8014F1360FDEBF002001F0004170BD01
:10066800C4F10004203C35DA0C341BDC04F114041A
:10067800C4F1200500FA05F320FA04F001FA05F2A6
:1006880040EA020001F0004221F0004110EBD37073
:1006980021FA04F642EB06015EEA430E08BF20EA9F
:1006A800D37070BDC4F10C04C4F1200500FA04F342
:1006B80020FA05F001FA04F240EA020001F00041D4
:1006C80010EBD37041F100015EEA430E08BF20EA47
:1006D800D37070BDC4F1200500FA05F24EEA020E8F
:1006E80020FA04F301FA05F243EA020321FA04F0BE
:1006F80001F0004121FA04F220EA020000EBD37075
:100708005EEA430E08BF20EAD37070BD94F0000F74
:100718000FD101F00046400041EB010111F4801FA8
:1007280008BF013CF7D041EA060195F0000F18BF59
:10073800704703F00046520043EB030313F4801F95
:1007480008BF013DF7D043EA0603704794EA0C0F4F
:100758000CEA135518BF95EA0C0F0CD050EA410665
:1007680018BF52EA4306D1D181EA030101F00041E2
:100778004FF0000070BD50EA410606BF104619460A
:1007880052EA430619D094EA0C0F02D150EA013616
:1007980013D195EA0C0F05D152EA03361CBF104657
:1007A80019460AD181EA030101F0004141F0FE41F6
:1007B80041F470014FF0000070BD41F0FE4141F47A
:1007C800780170BD70B54FF0FF0C4CF4E06C1CEA7A
:1007D80011541DBF1CEA135594EA0C0F95EA0C0F2F
:1007E80000F0A7F8A4EB050481EA030E52EA0335EA
:1007F8004FEA013100F088804FEA03334FF080550B
:1008080045EA131343EA12634FEA022245EA111537
:1008180045EA10654FEA00260EF000419D4208BFE8
:10082800964244F1FD0404F5407402D25B084FEA95
:100838003202B61A65EB03055B084FEA32024FF441
:1008480080104FF4002CB6EB020E75EB030E22BF9E
:10085800B61A754640EA0C005B084FEA3202B6EB5E
:10086800020E75EB030E22BFB61A754640EA5C000D
:100878005B084FEA3202B6EB020E75EB030E22BF9D
:10088800B61A754640EA9C005B084FEA3202B6EB9E
:10089800020E75EB030E22BFB61A754640EADC005D
:1008A80055EA060E18D04FEA051545EA16754FEABF
:1008B80006164FEAC30343EA52734FEAC2025FEADD
:1008C8001C1CC0D111F4801F0BD141EA00014FF06C
:1008D80000004FF0004CB6E711F4801F04BF01433D
:1008E8000020B4F1FD0C88BFBCF5E06F3FF6AFAE59
:1008F800B5EB030C04BFB6EB020C5FEA500C50F1E9
:10090800000041EB045170BD0EF0004E4EEA11316B
:1009180014EB5C04C2BFD4EB0C0541EA045170BD72
:1009280041F480114FF0000E013C90E645EA060EB6
:100938008DE60CEA135594EA0C0F08BF95EA0C0FE4
:100948003FF43BAF94EA0C0F0AD150EA01347FF42C
:1009580034AF95EA0C0F7FF425AF104619462CE703
:1009680095EA0C0F06D152EA03353FF4FDAE104666
:10097800194622E750EA410618BF52EA43067FF4B7
:10098800C5AE50EA41047FF40DAF52EA43057FF447
:10099800EBAE12E74FF0FF3C06E000BF4FF0010C52
:1009A80002E000BF4FF0010C4DF804CD4FEA410CB6
:1009B8007FEA6C5C4FEA430C18BF7FEA6C5C1BD083
:1009C80001B050EA410C0CBF52EA430C91EA030F04
:1009D80002BF90EA020F0020704710F1000F91EA61
:1009E800030F58BF994208BF90422CBFD8176FEA2F
:1009F800E37040F0010070474FEA410C7FEA6C5CFD
:100A080002D150EA013C07D14FEA430C7FEA6C5C03
:100A1800D6D152EA033CD3D05DF8040B704700BF2F
:100A28008446104662468C461946634600E000BF7D
:100A380001B5FFF7B7FF002848BF10F1000F01BD4F
:100A48004DF808EDFFF7F4FF0CBF012000205DF81A
:100A580008FB00BF4DF808EDFFF7EAFF34BF01209F
:100A680000205DF808FB00BF4DF808EDFFF7E0FF38
:100A780094BF012000205DF808FB00BF4DF808ED89
:100A8800FFF7CEFF94BF012000205DF808FB00BFF0
:100A98004DF808EDFFF7C4FF34BF012000205DF8D2
:100AA80008FB00BF4FEA410212F5001215D211D51A
:100AB8006FF47873B3EB625212D94FEAC12343F053
:100AC800004343EA505311F0004F23FA02F018BFD5
:100AD800404270474FF00000704750EA013005D19E
:100AE80011F0004008BF6FF0004070474FF0000061
:100AF800704700BF4A0011D212F5001211D20DD56D
:100B08006FF47873B3EB62520ED44FEAC12343F00B
:100B1800004343EA505323FA02F070474FF00000B5
:100B2800704750EA013002D14FF0FF3070474FF064
:100B38000000704753B94AB9002908BF00281CBFF4
:100B48004FF0FF314FF0FF3000F07AB9ADF1080CEB
:100B58006DE904CE00F006F8DDF804E0DDE90223D3
:100B680004B070472DE9F0478C460D460446089EB0
:100B7800002B51D18A4217466DD9B2FA82FEBEF1D6
:100B8800000F0BD0CEF1200C01FA0EF520FA0CFC68
:100B980002FA0EF74CEA050C00FA0EF44FEA174A6F
:100BA800250CBCFBFAF81FFA87F90AFB18CC45EAB2
:100BB8000C4508FB09F3AB420AD9ED1908F1FF32DD
:100BC80080F02381AB4240F22081A8F102083D4425
:100BD800ED1AA4B2B5FBFAF00AFB105544EA054435
:100BE80000FB09F9A14509D9E41900F1FF3380F0A8
:100BF8000A81A14540F2078102383C44A4EB09046C
:100C080040EA08400021002E61D024FA0EF40023A7
:100C180034607360BDE8F0878B4207D9002E54D04A
:100C2800002186E821000846BDE8F087B3FA83F181
:100C3800002940F08E80AB4202D3824200F2FA8053
:100C4800841A65EB03050120AC46002E3FD086E8E8
:100C58001010BDE8F08712B90127B7FBF2F7B7FA11
:100C680087FEBEF1000F34D1EB1B3A0C1FFA87FC4C
:100C78000121B3FBF2F8250C02FB183345EA0345C2
:100C88000CFB08F3AB4207D9ED1908F1FF3002D28B
:100C9800AB4200F2D1808046ED1AA3B2B5FBF2F068
:100CA80002FB105543EA05440CFB00FCA44507D998
:100CB800E41900F1FF3302D2A44500F2B8801846C7
:100CC800A4EB0C0440EA08409DE731463046BDE8F5
:100CD800F087CEF1200405FA0EF307FA0EF720FA92
:100CE80004F83A0C25FA04F448EA0308B4FBF2F1D4
:100CF8004FEA184502FB11441FFA87FC45EA0445F0
:100D080001FB0CF3AB4200FA0EF409D9ED1901F11D
:100D1800FF3080F08A80AB4240F2878002393D4440
:100D2800EB1A1FFA88F5B3FBF2F002FB103345EA21
:100D3800034500FB0CF3AB4207D9ED1900F1FF386E
:100D48006FD2AB426DD902383D44EB1A40EA0141FB
:100D58008FE7C1F1200722FA07F88B4005FA01F462
:100D680048EA030320FA07FE4FEA134CFD404EEA17
:100D7800040EB5FBFCF94FEA1E440CFB19551FFA8B
:100D880083F844EA054509FB08F4AC4202FA01F28B
:100D980000FA01FA08D9ED1809F1FF3043D2AC4244
:100DA80041D9A9F102091D442D1B1FFA8EFEB5FB7E
:100DB800FCF00CFB10554EEA054400FB08F8A04572
:100DC80007D9E41800F1FF3529D2A04527D9023800
:100DD8001C4440EA0940A4EB0804A0FB02894C45E6
:100DE800C6464D4615D312D056B1BAEB0E0364EB86
:100DF800050404FA07F7CB401F43CC403760746002
:100E08000021BDE8F0871846F8E69046E0E6C245BE
:100E1800EAD2B8EB020E69EB03050138E4E728468D
:100E2800D7E7404691E78146BEE7014678E70238B2
:100E38003C4445E7084608E7A8F102083D442BE78B
:100E4800704700BF80B500AF0E4A0E4B1B6843F4D5
:100E5800007313600B4A0B4B1B6843F480631360E9
:100E6800084A084B1B6843F480731360032000F0A2
:100E78003FF9002000F008F804F09EFC0023184613
:100E880080BD00BF003C024080B582B000AF7860F2
:100E9800124B1A68124B1B7819464FF47A73B3FB3E
:100EA800F1F3B2FBF3F3184600F065F90346002BA3
:100EB80001D001230EE07B680F2B0AD80022796845
:100EC8004FF0FF3000F01FF9064A7B6813600023DB
:100ED80000E0012318460837BD4680BD24000020E5
:100EE800040000200000002080B400AF064B1B78EF
:100EF8001A46064B1B681344044A136000BFBD46DC
:100F08005DF8047B704700BF0400002070030020D8
:100F180080B400AF034B1B681846BD465DF8047BE0
:100F2800704700BF7003002080B485B000AF7860C0
:100F38007B6803F00703FB600C4BDB68BB60BA6897
:100F48004FF6FF031340BB60FB681A02BB681343EC
:100F580043F0BF6343F40033BB60044ABB68D3600B
:100F680000BF1437BD465DF8047B704700ED00E014
:100F780080B400AF044BDB681B0A03F00703184674
:100F8800BD465DF8047B704700ED00E080B483B097
:100F980000AF0346FB71094997F907305B09FA79F5
:100FA80002F01F02012000FA02F241F8232000BFDC
:100FB8000C37BD465DF8047B704700BF00E100E0D8
:100FC80080B483B000AF0346FB71094997F9073035
:100FD8005B09FA7902F01F02012000FA02F22033BD
:100FE80041F8232000BF0C37BD465DF8047B7047ED
:100FF80000E100E080B483B000AF03463960FB71C4
:1010080097F90730002B0BDA0D49FB7903F00F0332
:10101800043B3A68D2B21201D2B20B441A7609E004
:10102800084997F907303A68D2B21201D2B20B4494
:1010380083F8002300BF0C37BD465DF8047B70477A
:1010480000ED00E000E100E080B489B000AFF86096
:10105800B9607A60FB6803F00703FB61FB69C3F1C1
:101068000703042B28BF0423BB61FB690433062B49
:1010780002D9FB69033B00E000237B610122BB69C5
:1010880002FA03F35A1EBB681A407B699A40012191
:101098007B6901FA03F3591E7B680B40134318461A
:1010A8002437BD465DF8047B7047000080B582B0E8
:1010B80000AF78607B68013BB3F1807F01D30123E7
:1010C8000FE00A4A7B68013B53600F214FF0FF3065
:1010D800FFF790FF054B00229A60044B07221A6025
:1010E800002318460837BD4680BD00BF10E000E069
:1010F80080B582B000AF78607868FFF715FF00BF51
:101108000837BD4680BD80B586B000AF0346B960DC
:101118007A60FB7300237B61FFF72AFF78617A68A6
:10112800B9687869FFF790FF024697F90F301146C2
:101138001846FFF75FFF00BF1837BD4680BD80B572
:1011480082B000AF0346FB7197F907301846FFF7E6
:101158001DFF00BF0837BD4680BD80B582B000AF17
:101168000346FB7197F907301846FFF729FF00BFC0
:101178000837BD4680BD80B582B000AF786078681A
:10118800FFF794FF034618460837BD4680BD0000A8
:1011980080B586B000AF786000237B61FFF7B8FEAA
:1011A80038617B68002B01D1012399E07B6800221C
:1011B80083F834207B68022283F835207B681B681B
:1011C8007A681268126822F001021A600FE0FFF7CD
:1011D8009FFE02463B69D31A052B08D97B6820225B
:1011E8005A657B68032283F83520032378E07B68FF
:1011F8001B681B6803F00103002BE8D17B681B68A0
:101208001B687B617A69384B13407B617B685A683D
:101218007B689B681A437B68DB681A437B681B6999
:101228001A437B685B691A437B689B691A437B682E
:10123800DB691A437B681B6A13437A6913437B6132
:101248007B685B6A042B07D17B68DA6A7B681B6B57
:1012580013437A6913437B617B681B687A691A6058
:101268007B681B685B697B617B6923F007037B6193
:101278007B685B6A7A6913437B617B685B6A042BD2
:1012880017D17B689B6A7A6913437B617B68DB6A49
:10129800002B0ED0786800F099FA0346002B08D08E
:1012A8007B6840225A657B68012283F83520012338
:1012B80016E07B681B687A695A61786800F050FA12
:1012C8000346FB607B68DB6D3F229A40FB689A60AF
:1012D8007B6800225A657B68012283F83520002349
:1012E80018461837BD4680BD3F8010F080B586B0DF
:1012F80000AFF860B9607A603B600023FB75FB685B
:101308009B6D3B61FB6893F83430012B01D10223BC
:1013180048E0FB68012283F83420FB6893F83530F5
:10132800DBB2012B37D1FB68022283F83520FB683A
:1013380000225A653B687A68B968F86800F0E2F9F3
:10134800FB68DB6D3F229A403B699A60FB681B682B
:10135800FA681268126842F016021A60FB681B6885
:10136800FA681268526942F080025A61FB681B6C85
:10137800002B07D0FB681B68FA681268126842F0F5
:1013880008021A60FB681B68FA681268126842F063
:1013980001021A6005E0FB68002283F8342002236A
:1013A800FB75FB7D18461837BD4680BD80B483B0F9
:1013B80000AF78607B6893F83530DBB2022B04D03D
:1013C8007B6880225A6501230CE07B68052283F83C
:1013D80035207B681B687A681268126822F001025F
:1013E8001A60002318460C37BD465DF8047B704729
:1013F80080B586B000AF78600023BB60924B1B6855
:10140800924AA2FB03239B0A7B617B689B6D3B612D
:101418003B691B68FB607B68DB6D08229A40FB68B0
:101428001340002B1AD07B681B681B6803F0040369
:10143800002B13D07B681B687A681268126822F048
:1014480004021A607B68DB6D08229A403B699A6047
:101458007B685B6D43F001027B685A657B68DB6DD6
:1014680001229A40FB681340002B12D07B681B684E
:101478005B6903F08003002B0BD07B68DB6D0122D6
:101488009A403B699A607B685B6D43F002027B6817
:101498005A657B68DB6D04229A40FB681340002B79
:1014A80012D07B681B681B6803F00203002B0BD06B
:1014B8007B68DB6D04229A403B699A607B685B6DB0
:1014C80043F004027B685A657B68DB6D10229A4002
:1014D800FB681340002B43D07B681B681B6803F034
:1014E8000803002B3CD07B68DB6D10229A403B69D7
:1014F8009A607B681B681B6803F48023002B18D054
:101508007B681B681B6803F40023002B08D17B68E9
:101518001B6C002B24D07B681B6C786898471FE0F5
:101528007B689B6C002B1BD07B689B6C786898470A
:1015380016E07B681B681B6803F48073002B07D1D7
:101548007B681B687A681268126822F008021A60C1
:101558007B681B6C002B03D07B681B6C78689847F2
:101568007B68DB6D20229A40FB681340002B00F05B
:101578008E807B681B681B6803F01003002B00F04B
:1015880086807B68DB6D20229A403B699A607B6885
:1015980093F83530DBB2052B36D17B681B687A6847
:1015A8001268126822F016021A607B681B687A6853
:1015B8001268526922F080025A617B681B6C002B0A
:1015C80003D17B689B6C002B07D07B681B687A680B
:1015D8001268126822F008021A607B68DB6D3F22ED
:1015E8009A403B699A607B68002283F834207B68C4
:1015F800012283F835207B681B6D002B7DD07B682A
:101608001B6D7868984778E07B681B681B6803F453
:101618008023002B1CD07B681B681B6803F4002305
:10162800002B08D17B685B6C002B30D07B685B6C2F
:10163800786898472BE07B68DB6B002B27D07B68AA
:10164800DB6B7868984722E024000020B5814E1BA8
:101658007B681B681B6803F48073002B0FD17B68C1
:101668001B687A681268126822F010021A607B6898
:10167800002283F834207B68012283F835207B68B8
:10168800DB6B002B03D07B68DB6B786898477B6843
:101698005B6D002B32D07B685B6D03F00103002B80
:1016A80022D07B68052283F835207B681B687A681E
:1016B8001268126822F001021A60BB680133BB602D
:1016C8007A69934207D87B681B681B6803F001039B
:1016D800002BF2D100E000BF7B68002283F83420A1
:1016E8007B68012283F835207B68DB6C002B05D0F2
:1016F8007B68DB6C7868984700E000BF1837BD4608
:1017080080BD00BF80B485B000AFF860B9607A6072
:101718003B60FB681B68FA681268126822F4802232
:101728001A60FB681B683A685A60FB689B68402B24
:1017380008D1FB681B687A689A60FB681B68BA68FE
:10174800DA6007E0FB681B68BA689A60FB681B6888
:101758007A68DA6000BF1437BD465DF8047B7047CD
:1017680080B485B000AF78607B681B68DBB2103B43
:10177800144AA2FB03231B09FB60134AFB681344AA
:101788001B781A467B68DA65FB68032B09D97B68E6
:101798001B6823F47F7323F003031A1D7B689A6583
:1017A80007E07B681B6823F47F7323F003037A68E0
:1017B80093657B689B6D18461437BD465DF8047BBE
:1017C800704700BFABAAAAAA045F000880B485B01E
:1017D80000AF78600023FB737B689B6ABB607B6803
:1017E8009B69002B1FD1BB68032B55D801A252F867
:1017F80023F000BF0D1800081F1800080D18000876
:10180800A11800087B68DB6A03F08073002B45D0C1
:101818000123FB7342E07B68DB6AB3F1C07F3FD1F1
:101828000123FB733CE07B689B69B3F5005F21D122
:10183800BB68032B36D801A252F823F055180008CC
:101848005B180008551800086D1800080123FB7381
:101858002FE07B68DB6A03F08073002B24D0012320
:10186800FB7321E07B68DB6AB3F1C07F1ED10123E3
:10187800FB731BE0BB68022B02D9032B03D018E0D3
:101888000123FB7315E07B68DB6A03F08073002B90
:101898000ED00123FB730BE000BF0AE000BF08E095
:1018A80000BF06E000BF04E000BF02E000BF00E0A8
:1018B80000BFFB7B18461437BD465DF8047B7047B4
:1018C80080B489B000AF7860396000237B61002361
:1018D8003B610023BB610023FB614DE10122FB69F1
:1018E80002FA03F37B613B681A687B6913403B612A
:1018F8003A697B699A4240F03C813B685B68022BFD
:1019080003D03B685B68122B23D1FB69DA087B683C
:10191800083253F82230BB61FB6903F007039B00D0
:101928000F2202FA03F3DB43BA691340BB613B6839
:101938001A69FB6903F007039B0002FA03F3BA690B
:101948001343BB61FB69DA087B680832B96943F85D
:1019580022107B681B68BB61FB695B00032202FAEB
:1019680003F3DB43BA691340BB613B685B6803F070
:101978000302FB695B0002FA03F3BA691343BB6114
:101988007B68BA691A603B685B68012B0BD03B68BF
:101998005B68022B07D03B685B68112B03D03B6860
:1019A8005B68122B30D17B689B68BB61FB695B006D
:1019B800032202FA03F3DB43BA691340BB613B68B5
:1019C800DA68FB695B0002FA03F3BA691343BB6187
:1019D8007B68BA699A607B685B68BB610122FB69B6
:1019E80002FA03F3DB43BA691340BB613B685B68E7
:1019F8001B0903F00102FB6902FA03F3BA691343F6
:101A0800BB617B68BA695A607B68DB68BB61FB694C
:101A18005B00032202FA03F3DB43BA691340BB619C
:101A28003B689A68FB695B0002FA03F3BA691343DF
:101A3800BB617B68BA69DA603B685B6803F0805316
:101A4800002B00F096800023FB60504A4F4B5B6CE4
:101A580043F4804353644D4B5B6C03F48043FB6059
:101A6800FB684B4AFB699B08023352F82330BB6181
:101A7800FB6903F003039B000F2202FA03F3DB4325
:101A8800BA691340BB617B68424A93420DD07B68B8
:101A9800414A934207D07B68404A934201D10223CE
:101AA80004E0072302E0012300E00023FA6902F0C2
:101AB800030292009340BA691343BB613449FB693E
:101AC8009B080233BA6941F82320354B1B68BB6178
:101AD8003B69DB43BA691340BB613B685B6803F44D
:101AE8008033002B03D0BA693B691343BB612C4A8E
:101AF800BB6913602A4B5B68BB613B69DB43BA690E
:101B08001340BB613B685B6803F40033002B03D0D0
:101B1800BA693B691343BB61214ABB695360204BD7
:101B28009B68BB613B69DB43BA691340BB613B6897
:101B38005B6803F48013002B03D0BA693B69134335
:101B4800BB61174ABB699360154BDB68BB613B6996
:101B5800DB43BA691340BB613B685B6803F400135D
:101B6800002B03D0BA693B691343BB610C4ABB69BC
:101B7800D360FB690133FB61FB690F2B7FF6AEAEC7
:101B880000BF2437BD465DF8047B7047003802402B
:101B980000380140000002400004024000080240F2
:101BA800003C014080B483B000AF78600B467B8076
:101BB80013467B707B78002B03D07A887B689A6108
:101BC80003E07B881A047B689A6100BF0C37BD4626
:101BD8005DF8047B704780B483B000AF78600B4633
:101BE8007B807B685A697B885A407B685A6100BF52
:101BF8000C37BD465DF8047B7047000080B582B0A5
:101C080000AF0346FB80084B5A69FB881340002B42
:101C180006D0054AFB885361FB88184600F006F891
:101C280000BF0837BD4680BD003C014080B483B08A
:101C380000AF0346FB8000BF0C37BD465DF8047B50
:101C48007047000080B584B000AF78600023FB6067
:101C58000023BB607B68002B01D10123C8E07B68AF
:101C680093F83D30DBB2002B06D17B68002283F865
:101C78003C20786803F0B8FC7B68242283F83D2078
:101C88007B681B687A681268126822F001021A6081
:101C980000F07EFAB860BB68574AA2FB03239B0C8E
:101CA800FB607B681B68FA685A607B681A687B6807
:101CB8005B6852498B4202D8FB68013309E0FB6834
:101CC8004FF4967101FB03F34D49A1FB03139B09E4
:101CD800013313627B6819687B685B68474A9342E3
:101CE80012D87B685B685B00BA68B2FBF3F3C3F396
:101CF8000B03032B06D97B685B685B00BA68B2FBF1
:101D0800F3F345E0042343E07B689B68002B0FD185
:101D18007B685A6813465B001344BA68B2FBF3F356
:101D2800C3F30B03002B0CBF01230023DBB210E02D
:101D38007B685A6813469B0013449A001344BA6898
:101D4800B2FBF3F3C3F30B03002B0CBF01230023F7
:101D5800DBB2002B01D001231AE07B689B68002BC3
:101D68000AD17B685A6813465B001344BA68B2FB11
:101D7800F3F343F400430BE07B685A6813469B0077
:101D880013449A001344BA68B2FBF3F343F4404394
:101D9800CB617B681B687A68D1697A68126A0A43E2
:101DA8001A607B681B687A6811697A68D2680A4386
:101DB8009A607B681B687A6851697A6892690A43F5
:101DC800DA607B681B687A681268126842F0010260
:101DD8001A607B6800221A647B68202283F83D2001
:101DE8007B6800221A637B68002283F83E20002368
:101DF80018461037BD4680BD83DE1B43A086010010
:101E0800D34D621080B584B000AF786039607B68CC
:101E1800002B01D10123CAE0674B1B6803F00F02B6
:101E28003B689A420CD2644B3A68D2B21A70624B41
:101E38001B6803F00F023B689A4201D00123B6E009
:101E48007B681B6803F00203002B20D07B681B68AB
:101E580003F00403002B05D0584A584B9B6843F401
:101E6800E05393607B681B6803F00803002B05D0E0
:101E7800524A524B9B6843F4604393604F494F4B1F
:101E88009B6823F0F0027B689B6813438B607B6838
:101E98001B6803F00103002B44D07B685B68012BAF
:101EA80007D1464B1B6803F40033002B19D10123DB
:101EB8007DE07B685B68022B03D07B685B68032B43
:101EC80007D13E4B1B6803F00073002B09D1012397
:101ED8006DE03A4B1B6803F00203002B01D101238C
:101EE80065E03649354B9B6823F003027B685B68E5
:101EF80013438B60FFF70CF8F8600AE0FFF708F867
:101F08000246FB68D31A41F28832934201D903236F
:101F18004DE02A4B9B6803F00C027B685B689B00D2
:101F28009A42EBD1244B1B6803F00F023B689A429C
:101F38000CD9214B3A68D2B21A701F4B1B6803F0B8
:101F48000F023B689A4201D0012330E07B681B688E
:101F580003F00403002B08D01849184B9B6823F49E
:101F6800E0527B68DB6813438B607B681B6803F077
:101F78000803002B09D01149104B9B6823F46042D9
:101F88007B681B69DB0013438B6000F01DF801467A
:101F98000A4B9B681B0903F00F03094AD35C21FA1B
:101FA80003F3084A13600020FEF76EFF002318466B
:101FB8001037BD4680BD00BF003C024000380240DB
:101FC8000C5F0008240000202DE9F04F8FB000AF0F
:101FD8000023FB6200237B630023BB6200233B6377
:101FE800624B9B6803F00C03042B07D0082B08D026
:101FF800002B40F0B2805E4B3B63B1E05D4B3B632E
:10200800AEE05A4B5B6803F03F03FB62574B5B68DB
:1020180003F48003002B4ED0544B5B689B094FF0B0
:10202800000440F2FF114FF0000201EA030102EA46
:1020380004020B46144660017862786A40EAD3606D
:1020480078625B013B62D7E908345B1A64EB0204EF
:102058004FEA841949EA93694FEA8318B8EB0308F1
:1020680069EB04094FEAC903FB61FB6943EA58734A
:10207800FB614FEAC803BB61D7E9068918EB010881
:1020880049EB02094FEA49237B617B6943EAD8534C
:102098007B614FEA48233B61D7E9048940464946BA
:1020A800FB6A4FF000041A462346FEF743FD034639
:1020B8000C467B6343E02D4B5B689B094FF00004A3
:1020C80040F2FF114FF0000201EA030102EA0402A4
:1020D8000B4614466001F860F86840EAD360F8607F
:1020E8005B01BB60D7E902345B1A64EB0204A6010A
:1020F80046EA93669D01ED1A66EB0406F3007B60E1
:102108007B6843EA55737B60EB003B6097E86000AF
:102118006D1846EB02064FEA862B4BEA955B4FEAB1
:10212800852A55465E4628463146FB6A4FF000042C
:102138001A462346FEF7FEFC03460C467B630B4B10
:102148005B681B0C03F0030301335B00BB627A6B13
:10215800BB6AB2FBF3F33B6302E0054B3B6300BF92
:102168003B6B18463C37BD46BDE8F08F003802404F
:102178000024F40000127A0080B400AF034B1B68FF
:102188001846BD465DF8047B704700BF2400002058
:1021980080B500AFFFF7F0FF0146054B9B689B0A2F
:1021A80003F00703034AD35C21FA03F3184680BD02
:1021B800003802401C5F000880B500AFFFF7DCFF65
:1021C8000146054B9B685B0B03F00703034AD35C8E
:1021D80021FA03F3184680BD003802401C5F00084E
:1021E80080B586B000AF786000233B617B681B68D0
:1021F80003F00103002B75D0A24B9B6803F00C037E
:10220800042B0CD09F4B9B6803F00C03082B12D1B6
:102218009C4B5B6803F48003B3F5800F0BD1994B9B
:102228001B6803F40033002B5BD07B685B68002BD2
:1022380057D101230BE27B685B68B3F5803F06D179
:10224800904A904B1B6843F4803313601DE07B6811
:102258005B68B3F5A02F0CD18A4A8A4B1B6843F4FC
:1022680080231360874A874B1B6843F480331360CD
:102278000BE0844A834B1B6823F480331360814A44
:10228800804B1B6823F4802313607B685B68002BFA
:1022980013D0FEF73DFE386108E0FEF739FE02462E
:1022A8003B69D31A642B01D90323D0E1754B1B6812
:1022B80003F40033002BF0D014E0FEF729FE386158
:1022C80008E0FEF725FE02463B69D31A642B01D9C4
:1022D8000323BCE16B4B1B6803F40033002BF0D1E4
:1022E80000E000BF7B681B6803F00203002B63D08B
:1022F800644B9B6803F00C03002B0BD0614B9B686D
:1023080003F00C03082B1CD15E4B5B6803F48003BD
:10231800002B16D15B4B1B6803F00203002B05D082
:102328007B68DB68012B01D0012390E15549554BAF
:102338001B6823F0F8027B681B69DB0013430B6002
:102348003AE07B68DB68002B20D04F4B01221A60F3
:10235800FEF7DEFD386108E0FEF7DAFD02463B696C
:10236800D31A022B01D9032371E1464B1B6803F0F2
:102378000203002BF0D04349424B1B6823F0F802BC
:102388007B681B69DB0013430B6015E03E4B0022A2
:102398001A60FEF7BDFD386108E0FEF7B9FD024698
:1023A8003B69D31A022B01D9032350E1354B1B6833
:1023B80003F00203002BF0D17B681B6803F00803CD
:1023C800002B30D07B685B69002B16D02F4B012285
:1023D8001A60FEF79DFD386108E0FEF799FD024698
:1023E8003B69D31A022B01D9032330E1254B5B6FDC
:1023F80003F00203002BF0D015E0244B00221A60F2
:10240800FEF786FD386108E0FEF782FD02463B696B
:10241800D31A022B01D9032319E11A4B5B6F03F07E
:102428000203002BF0D17B681B6803F00403002B28
:1024380000F09F800023FB75124B1B6C03F0805348
:10244800002B0FD10023FB600E4A0E4B1B6C43F090
:10245800805313640B4B1B6C03F08053FB60FB68C9
:102468000123FB750A4B1B6803F48073002B20D1F2
:10247800074A074B1B6843F480731360FEF748FD57
:10248800386110E00038024000004742800E4742A1
:1024980000700040FEF73CFD02463B69D31A022B50
:1024A80001D90323D3E06C4B1B6803F48073002B22
:1024B800F0D07B689B68012B06D1684A674B1B6F7D
:1024C80043F0010313671CE07B689B68052B0CD164
:1024D800624A624B1B6F43F0040313675F4A5F4B0A
:1024E8001B6F43F0010313670BE05C4A5B4B1B6FE8
:1024F80023F001031367594A584B1B6F23F0040359
:1025080013677B689B68002B15D0FEF701FD3861C7
:102518000AE0FEF7FDFC02463B69D31A41F2883215
:10252800934201D9032392E04C4B1B6F03F0020343
:10253800002BEED014E0FEF7EBFC38610AE0FEF762
:10254800E7FC02463B69D31A41F28832934201D92B
:1025580003237CE0414B1B6F03F00203002BEED1F9
:10256800FB7D012B05D13D4A3C4B1B6C23F080536E
:1025780013647B689B69002B68D0384B9B6803F019
:102588000C03082B60D07B689B69022B45D1344B28
:1025980000221A60FEF7BCFC386108E0FEF7B8FCC0
:1025A80002463B69D31A022B01D903234FE02B4B78
:1025B8001B6803F00073002BF0D128497B68DA69A7
:1025C8007B681B6A1A437B685B6A9B011A437B68BA
:1025D8009B6A5B08013B1B041A437B68DB6A1B068A
:1025E8001A437B681B6B1B0713434B601C4B012270
:1025F8001A60FEF78DFC386108E0FEF789FC024698
:102608003B69D31A022B01D9032320E0134B1B6823
:1026180003F00073002BF0D018E0114B00221A6071
:10262800FEF776FC386108E0FEF772FC02463B696B
:10263800D31A022B01D9032309E0084B1B6803F0C6
:102648000073002BF0D101E0012300E000231846BD
:102658001837BD4680BD00BF0070004000380240FA
:102668006000474280B582B000AF78607B68002B7D
:1026780001D101231DE07B6893F83930DBB2002BD0
:1026880006D17B68002283F83820786803F016FAB0
:102698007B68022283F839207B681A687B680433D8
:1026A8001946104600F042FB7B68012283F8392066
:1026B800002318460837BD4680BD80B483B000AFFC
:1026C80078607B681B687A681268D26842F00102F9
:1026D800DA607B681B687A681268126842F0010247
:1026E8001A60002318460C37BD465DF8047B704716
:1026F80080B582B000AF78607B68002B01D10123E0
:102708001DE07B6893F83930DBB2002B06D17B687B
:10271800002283F83820786803F0A8F97B68022241
:1027280083F839207B681A687B6804331946104699
:1027380000F0FCFA7B68012283F839200023184650
:102748000837BD4680BD000080B582B000AF786014
:1027580039603B680C2B41D801A252F823F000BF26
:102768009D270008E5270008E5270008E527000859
:10277800AF270008E5270008E5270008E527000837
:10278800C1270008E5270008E5270008E527000815
:10279800D32700087B681B687A681268D26842F001
:1027A8000202DA601BE07B681B687A681268D268EC
:1027B80042F00402DA6012E07B681B687A681268EB
:1027C800D26842F00802DA6009E07B681B687A6820
:1027D8001268D26842F01002DA6000E000BF7B683D
:1027E8001B6801223968184600F070FB7B681B687B
:1027F8000B4A934207D17B681B687A681268526C4F
:1028080042F400425A647B681B687A68126812684E
:1028180042F001021A60002318460837BD4680BD01
:102828000000014080B582B000AF786039603B6835
:102838000C2B41D801A252F823F000BF79280008D8
:10284800C1280008C1280008C12800088B280008F2
:10285800C1280008C1280008C12800089D280008D0
:10286800C1280008C1280008C1280008AF280008AE
:102878007B681B687A681268D26822F00202DA6004
:102888001BE07B681B687A681268D26822F0040231
:10289800DA6012E07B681B687A681268D26822F0F6
:1028A8000802DA6009E07B681B687A681268D268F7
:1028B80022F01002DA6000E000BF7B681B6800228B
:1028C8003968184600F002FB7B681B681B4A934274
:1028D80017D17B681B681A6A41F211131340002B49
:1028E8000FD17B681B681A6A40F244431340002BDF
:1028F80007D17B681B687A681268526C22F4004220
:102908005A647B681B681A6A41F211131340002B42
:102918000FD17B681B681A6A40F244431340002BAE
:1029280007D17B681B687A681268126822F0010276
:102938001A60002318460837BD4680BD00000140D4
:1029480080B582B000AF78607B681B681B6903F0B4
:102958000203022B22D17B681B68DB6803F00203A9
:10296800022B1BD17B681B686FF002021A617B681F
:1029780001221A767B681B689B6903F00303002B0E
:1029880003D0786800F0BEF905E0786800F0B0F987
:10299800786802F039FF7B6800221A767B681B682A
:1029A8001B6903F00403042B22D17B681B68DB68D6
:1029B80003F00403042B1BD17B681B686FF004022F
:1029C8001A617B6802221A767B681B689B6903F48C
:1029D8004073002B03D0786800F094F905E078681C
:1029E80000F086F9786802F00FFF7B6800221A76FB
:1029F8007B681B681B6903F00803082B22D17B68DE
:102A08001B68DB6803F00803082B1BD17B681B6875
:102A18006FF008021A617B6804221A767B681B68CB
:102A2800DB6903F00303002B03D0786800F06AF930
:102A380005E0786800F05CF9786802F0E5FE7B68EC
:102A480000221A767B681B681B6903F01003102BA1
:102A580022D17B681B68DB6803F01003102B1BD1A5
:102A68007B681B686FF010021A617B6808221A766F
:102A78007B681B68DB6903F44073002B03D078681C
:102A880000F040F905E0786800F032F9786802F063
:102A9800BBFE7B6800221A767B681B681B6903F003
:102AA8000103012B0ED17B681B68DB6803F001036F
:102AB800012B07D17B681B686FF001021A617868E7
:102AC80000F00CF97B681B681B6903F08003802BFE
:102AD8000ED17B681B68DB6803F08003802B07D16D
:102AE8007B681B686FF080021A61786800F08BFBC6
:102AF8007B681B681B6903F04003402B0ED17B6881
:102B08001B68DB6803F04003402B07D17B681B6818
:102B18006FF040021A61786800F0FEF87B681B6865
:102B28001B6903F02003202B0ED17B681B68DB6830
:102B380003F02003202B07D17B681B686FF020026D
:102B48001A61786800F055FB00BF0837BD4680BDA4
:102B580080B584B000AFF860B9607A60FB6893F81C
:102B68003830012B01D10223B4E0FB68012283F83D
:102B78003820FB68022283F839207B680C2B00F28E
:102B88009F8001A252F823F0C52B0008C92C000829
:102B9800C92C0008C92C0008052C0008C92C0008FD
:102BA800C92C0008C92C0008472C0008C92C0008AB
:102BB800C92C0008C92C0008872C0008FB681B6872
:102BC800B968184600F0A6F9FB681B68FA6812682D
:102BD800926942F008029A61FB681B68FA681268F9
:102BE800926922F004029A61FB681B68FA6812680D
:102BF8009169BA6812690A439A6162E0FB681B68C6
:102C0800B968184600F0F4F8FB681B68FA6812689F
:102C1800926942F400629A61FB681B68FA6812685C
:102C2800926922F480629A61FB681B68FA681268EC
:102C38009169BA68126912020A439A6141E0FB6815
:102C48001B68B968184600F0CDF9FB681B68FA687C
:102C58001268D26942F00802DA61FB681B68FA68F8
:102C68001268D26922F00402DA61FB681B68FA680C
:102C78001268D169BA6812690A43DA6121E0FB680F
:102C88001B68B968184600F019FAFB681B68FA68EF
:102C98001268D26942F40062DA61FB681B68FA685C
:102CA8001268D26922F48062DA61FB681B68FA68EC
:102CB8001268D169BA68126912020A43DA6100E03F
:102CC80000BFFB68012283F83920FB68002283F8E3
:102CD8003820002318461037BD4680BD80B483B025
:102CE80000AF786000BF0C37BD465DF8047B7047C5
:102CF80080B483B000AF786000BF0C37BD465DF884
:102D0800047B704780B483B000AF786000BF0C3795
:102D1800BD465DF8047B704780B483B000AF78602F
:102D280000BF0C37BD465DF8047B704780B485B0A2
:102D380000AF786039600023FB607B681B68FB602C
:102D48007B68274A934203D07B68264A934201D185
:102D5800012300E00023002B08D0FB6823F0700358
:102D6800FB603B685B68FA681343FB607B681C4A3E
:102D780093420BD07B681B4A934207D07B681A4A60
:102D8800934203D07B68194A934201D1012300E0A2
:102D98000023002B08D0FB6823F44073FB603B68DA
:102DA800DB68FA681343FB607B68FA681A603B6863
:102DB8009A687B68DA623B681A687B689A627B6803
:102DC800074A934203D13B681A697B681A637B6898
:102DD80001225A6100BF1437BD465DF8047B704775
:102DE80000000140000C0040004001400048014044
:102DF80080B487B000AF786039600023FB6000239F
:102E08007B6100233B617B681B6A23F010027B68AF
:102E18001A627B681B6A7B617B685B683B617B68C5
:102E28009B69FB60FB6823F4E043FB60FB6823F4C9
:102E38004073FB603B681B681B02FA681343FB6026
:102E48007B6923F020037B613B689B681B017A69DF
:102E580013437B617B681C4A934221D17B6923F031
:102E680080037B613B68DB681B017A6913437B61E4
:102E78007B6923F040037B613B6923F480633B61FA
:102E88003B6923F400633B613B685B699B003A69DB
:102E980013433B613B689B699B003A6913433B6161
:102EA8007B683A695A607B68FA689A613B685A6835
:102EB8007B689A637B687A691A6200BF1C37BD46D3
:102EC8005DF8047B704700BF0000014080B487B004
:102ED80000AFF860B9607A6000237B610122BB68AB
:102EE80002FA03F37B61FB681A6A7B69DB431A40C9
:102EF800FB681A62FB681A6A7968BB6801FA03F30F
:102F08001A43FB681A6200BF1C37BD465DF8047B94
:102F18007047000080B487B000AF78603960002344
:102F2800FB6000237B6100233B617B681B6A23F005
:102F380001027B681A627B681B6A7B617B685B683D
:102F48003B617B689B69FB60FB6823F07003FB6057
:102F5800FB6823F00303FB603B681B68FA681343B4
:102F6800FB607B6923F002037B613B689B687A699D
:102F780013437B617B681A4A93421ED17B6923F015
:102F880008037B613B68DB687A6913437B617B6973
:102F980023F004037B613B6923F480733B613B6945
:102FA80023F400733B613B685B693A6913433B61F7
:102FB8003B689B693A6913433B617B683A695A608D
:102FC8007B68FA689A613B685A687B685A637B68D1
:102FD8007A691A6200BF1C37BD465DF8047B7047EA
:102FE8000000014080B487B000AF786039600023EA
:102FF800FB6000237B6100233B617B681B6A23F431
:1030080080727B681A627B681B6A7B617B685B687D
:103018003B617B68DB69FB60FB6823F07003FB6046
:10302800FB6823F00303FB603B681B68FA681343E3
:10303800FB607B6923F400737B613B689B681B0220
:103048007A6913437B617B681B4A934221D17B6970
:1030580023F400637B613B68DB681B027A691343D6
:103068007B617B6923F480637B613B6923F4805334
:103078003B613B6923F400533B613B685B691B017F
:103088003A6913433B613B689B691B013A691343E7
:103098003B617B683A695A607B68FA68DA613B6829
:1030A8005A687B68DA637B687A691A6200BF1C37E2
:1030B800BD465DF8047B70470000014080B487B0CE
:1030C80000AF7860396000233B610023FB60002378
:1030D8007B617B681B6A23F480527B681A627B6879
:1030E8001B6AFB607B685B687B617B68DB693B61B3
:1030F8003B6923F4E0433B613B6923F440733B6144
:103108003B681B681B023A6913433B61FB6823F465
:103118000053FB603B689B681B03FA681343FB6022
:103128007B68104A934209D17B6923F480437B6111
:103138003B685B699B017A6913437B617B687A69A9
:103148005A607B683A69DA613B685A687B681A6436
:103158007B68FA681A6200BF1C37BD465DF8047BBD
:10316800704700BF0000014080B483B000AF7860B2
:1031780039607B6893F83830012B01D1022332E0A3
:103188007B68012283F838207B68022283F8392083
:103198007B681B687A681268526822F070025A606D
:1031A8007B681B687A68126851683A6812680A4333
:1031B8005A607B681B687A681268926822F08002FD
:1031C8009A607B681B687A68126891683A685268E6
:1031D8000A439A607B68012283F839207B680022C1
:1031E80083F83820002318460C37BD465DF8047B69
:1031F800704780B483B000AF786000BF0C37BD461D
:103208005DF8047B704780B483B000AF786000BF7E
:103218000C37BD465DF8047B704780B582B000AFBF
:1032280078607B68002B01D101233FE07B6893F82D
:103238003930DBB2002B06D17B68002283F83820B6
:10324800786802F0F1FC7B68242283F839207B68D7
:103258001B687A681268D26822F40052DA607868CB
:1032680000F0CCFB7B681B687A681268126922F44C
:1032780090421A617B681B687A681268526922F06A
:103288002A025A617B681B687A681268D26842F41D
:103298000052DA607B680022DA637B68202283F8B8
:1032A80039207B68202283F83A2000231846083703
:1032B800BD4680BD80B485B000AFF860B9601346E4
:1032C800FB80FB6893F83930DBB2202B30D1BB6828
:1032D800002B02D0FB88002B01D1012329E0FB68D9
:1032E80093F83830012B01D1022322E0FB68012238
:1032F80083F83820FB68BA681A62FB68FA889A84EF
:10330800FB68FA88DA84FB680022DA63FB6821220A
:1033180083F83920FB68002283F83820FB681B6893
:10332800FA681268D26842F08002DA60002300E08E
:10333800022318461437BD465DF8047B7047000029
:1033480080B586B000AFF860B9601346FB80FB68B3
:1033580093F83A30DBB2202B66D1BB68002B02D041
:10336800FB88002B01D101235FE0FB6893F838301C
:10337800012B01D1022358E0FB68012283F8382091
:10338800BA68FB689A62FB68FA889A85FB6800222B
:10339800DA63FB68222283F83A20FB685B6B254AD4
:1033A800DA63FB685B6B244A1A64FB685B6B234A2D
:1033B800DA64FB685B6B00221A6507F108037B611E
:1033C800FB68586BFB681B68043319467B691A68ED
:1033D800FB88FDF78BFF00233B61FB681B681B68BC
:1033E8003B61FB681B685B683B613B69FB680022CB
:1033F80083F83820FB681B68FA681268D26842F4C0
:103408008072DA60FB681B68FA681268526942F0D9
:1034180001025A61FB681B68FA681268526942F037
:1034280040025A61002300E0022318461837BD46BF
:1034380080BD00BF91360008F9360008153700082E
:1034480080B588B000AF78607B681B681B68FB613B
:103458007B681B68DB68BB617B681B685B697B6199
:1034680000233B610023FB60FB6903F00F033B6112
:103478003B69002B0DD1FB6903F02003002B08D01A
:10348800BB6903F02003002B03D0786800F03DFAF5
:10349800CCE03B69002B00F0AB807B6903F00103B3
:1034A800002B05D1BB6903F49073002B00F0A080BA
:1034B800FB6903F00103002B0AD0BB6903F4807396
:1034C800002B05D07B68DB6B43F001027B68DA6375
:1034D800FB6903F00403002B0AD07B6903F00103A6
:1034E800002B05D07B68DB6B43F002027B68DA6354
:1034F800FB6903F00203002B0AD07B6903F0010388
:10350800002B05D07B68DB6B43F004027B68DA6331
:10351800FB6903F00803002B0AD07B6903F0010361
:10352800002B05D07B68DB6B43F008027B68DA630D
:103538007B68DB6B002B78D0FB6903F02003002B42
:1035480007D0BB6903F02003002B02D0786800F095
:10355800DCF97B681B685B6903F04003002B14BF30
:1035680001230023DBB2FB607B68DB6B03F00803FD
:10357800002B02D1FB68002B31D0786800F026F9C7
:103588007B681B685B6903F04003002B23D07B68D2
:103598001B687A681268526922F040025A617B6897
:1035A8005B6B002B13D07B685B6B224A1A657B68C8
:1035B8005B6B1846FDF7FAFE0346002B16D07B68B6
:1035C8005B6B1B6D7A68526B104698470EE0786803
:1035D80000F050F80AE0786800F04CF806E07868E7
:1035E80000F048F87B680022DA631EE000BF1CE0A8
:1035F800FB6903F08003002B08D0BB6903F080034C
:10360800002B03D0786800F013F90FE0FB6903F092
:103618004003002B0AD0BB6903F04003002B05D000
:10362800786800F05AF900BF00E000BF2037BD46B7
:1036380080BD00BF1138000880B483B000AF786047
:1036480000BF0C37BD465DF8047B704780B483B07B
:1036580000AF786000BF0C37BD465DF8047B70474B
:1036680080B483B000AF786000BF0C37BD465DF80A
:10367800047B704780B483B000AF786000BF0C371C
:10368800BD465DF8047B704780B584B000AF7860B4
:103698007B689B6BFB607B681B681B6803F480730B
:1036A800002B1ED1FB680022DA85FB681B68FA68CC
:1036B8001268D26822F48072DA60FB681B68FA68C4
:1036C8001268526922F001025A61FB681B68FA68A5
:1036D8001268526922F040025A61FB68202283F87E
:1036E8003A20F868FFF7B2FF00BF1037BD4680BD2B
:1036F80080B584B000AF78607B689B6BFB60F8682E
:10370800FFF7AEFF00BF1037BD4680BD80B584B05F
:1037180000AF78600023FB607B689B6BBB60BB6875
:103728001B685B6903F08003002B14BF012300238F
:10373800DBB2FB60BB6893F83930DBB2212B08D1D0
:10374800FB68002B05D0BB680022DA84B86800F05B
:1037580027F8BB681B685B6903F04003002B14BFA4
:1037680001230023DBB2FB60BB6893F83A30DBB27D
:10377800222B08D1FB68002B05D0BB680022DA8514
:10378800B86800F023F8BB68DB6B43F01002BB6835
:10379800DA63B868FFF76EFF00BF1037BD4680BD1B
:1037A80080B483B000AF78607B681B687A68126861
:1037B800D26822F0C002DA607B68202283F83920C0
:1037C80000BF0C37BD465DF8047B704780B483B0FA
:1037D80000AF78607B681B687A681268D26822F448
:1037E8009072DA607B681B687A681268526922F006
:1037F80001025A617B68202283F83A2000BF0C3707
:10380800BD465DF8047B704780B584B000AF786032
:103818007B689B6BFB60FB680022DA85FB680022F3
:10382800DA84F868FFF726FF00BF1037BD4680BD71
:1038380080B485B000AF78607B6893F83930DBB22C
:10384800212B43D17B689B68B3F5805F19D17B68D6
:103858001B6AFB607B681B68FA681288C2F308025F
:103868005A607B681B69002B05D17B681B6A9A1C10
:103878007B681A620EE07B681B6A5A1C7B681A62B6
:1038880008E07B681A687B681B6A581C79680862BC
:103898001B7853607B68DB8C9BB2013B9BB27A68D8
:1038A8001946D184002B0FD17B681B687A6812688F
:1038B800D26822F08002DA607B681B687A68126836
:1038C800D26842F04002DA60002300E00223184682
:1038D8001437BD465DF8047B704780B582B000AFF1
:1038E80078607B681B687A681268D26822F04002A8
:1038F800DA607B68202283F839207868FFF79CFE1D
:10390800002318460837BD4680BD80B584B000AF97
:1039180078607B6893F83A30DBB2222B69D17B68F8
:103928009B68B3F5805F23D17B689B6AFB607B68EB
:103938001B69002B0ED17B681B685B689BB2C3F3C5
:1039480008039AB2FB681A807B689B6A9A1C7B689A
:103958009A6229E07B681B685B689BB2DBB29AB20B
:10396800FB681A807B689B6A5A1C7B689A621BE01A
:103978007B681B69002B0AD17B689B6A591C7A6893
:1039880091627A6812685268D2B21A700CE07B6849
:103998009B6A591C7A6891627A6812685268D2B236
:1039A80002F07F02D2B21A707B68DB8D9BB2013BBA
:1039B8009BB27A681946D185002B18D17B681B68A1
:1039C8007A681268D26822F49072DA607B681B68A1
:1039D8007A681268526922F001025A617B682022D3
:1039E80083F83A207868FFF731FE002302E00023CD
:1039F80000E0022318461037BD4680BDF0B585B0FB
:103A080000AF78600023FB607B681B681B69FB6064
:103A1800FB6823F44053FB607B68DB68FA68134358
:103A2800FB607B681B68FA681A617B681B68DB6847
:103A3800FB60FB6823F4164323F00C03FB607B68F0
:103A48009A687B681B691A437B685B691A437B68C1
:103A5800DB691343FA681343FB607B681B68FA68E9
:103A6800DA607B681B685B69FB60FB6823F4407362
:103A7800FB607B689B69FA681343FB607B681B6883
:103A8800FA685A617B68DB69B3F5004F40F0E4805F
:103A98007B681B68AB4A934204D07B681B68AA4AC0
:103AA80093426CD17B681C68FEF786FB024613467E
:103AB8009B0013449A001A447B685B685B00B2FB66
:103AC800F3F3A24AA2FB03235B091D01FEF774FB73
:103AD800024613469B0013449A001A447B685B68AD
:103AE8005B00B2FBF3F6FEF767FB024613469B004A
:103AF80013449A001A447B685B685B00B2FBF3F3DB
:103B0800924AA2FB03235B09642202FB03F3F31A24
:103B1800DB0032338D4AA2FB03235B095B0003F40D
:103B2800F8731D44FEF748FB024613469B001344F6
:103B38009A001A447B685B685B00B2FBF3F6FEF7F9
:103B48003BFB024613469B0013449A001A447B68C9
:103B58005B685B00B2FBF3F37C4AA2FB03235B09BF
:103B6800642202FB03F3F31ADB003233774AA2FB29
:103B780003235B0903F007032B44A36054E17B682C
:103B88001C68FEF705FB024613469B0013449A0087
:103B98001A447B685B685B00B2FBF3F36B4AA2FBD9
:103BA80003235B091D01FEF7F3FA024613469B0047
:103BB80013449A001A447B685B685B00B2FBF3F617
:103BC800FEF7E6FA024613469B0013449A001A448D
:103BD8007B685B685B00B2FBF3F35C4AA2FB0323E0
:103BE8005B09642202FB03F3F31ADB003233574A02
:103BF800A2FB03235B095B0003F4F8731D44FEF783
:103C0800C7FA024613469B0013449A001A447B687D
:103C18005B685B00B2FBF3F6FEF7BAFA024613469E
:103C28009B0013449A001A447B685B685B00B2FBF4
:103C3800F3F3464AA2FB03235B09642202FB03F366
:103C4800F31ADB003233414AA2FB03235B0903F07A
:103C580007032B44A360E7E07B681B68394A93425B
:103C680004D07B681B68384A934271D17B681C6812
:103C7800FEF7A2FA024613469B0013449A001A4420
:103C88007B685B689B00B2FBF3F3304AA2FB03231B
:103C98005B091D01FEF790FA024613469B00134488
:103CA8009A001A447B685B689B00B2FBF3F6FEF748
:103CB80083FA024613469B0013449A001A447B6811
:103CC8005B689B00B2FBF3F3204AA2FB03235B096A
:103CD800642202FB03F3F31A1B0132331B4AA2FBD3
:103CE80003235B0903F0F0031D44FEF765FA02465F
:103CF80013469B0013449A001A447B685B689B0038
:103D0800B2FBF3F6FEF758FA024613469B0013443B
:103D18009A001A447B685B689B00B2FBF3F30B4A7A
:103D2800A2FB03235B09642202FB03F3F31A1B01C2
:103D38003233064AA2FB03235B0903F00F032B442B
:103D4800A36071E000100140001401401F85EB5191
:103D58007B681C68FEF71CFA024613469B00134456
:103D68009A001A447B685B689B00B2FBF3F3304A05
:103D7800A2FB03235B091D01FEF70AFA024613465C
:103D88009B0013449A001A447B685B689B00B2FB53
:103D9800F3F6FEF7FDF9024613469B0013449A001A
:103DA8001A447B685B689B00B2FBF3F3204AA2FBD2
:103DB80003235B09642202FB03F3F31A1B0132336A
:103DC8001B4AA2FB03235B0903F0F0031D44FEF723
:103DD800DFF9024613469B0013449A001A447B6895
:103DE8005B689B00B2FBF3F6FEF7D2F90246134676
:103DF8009B0013449A001A447B685B689B00B2FBE3
:103E0800F3F30B4AA2FB03235B09642202FB03F3CF
:103E1800F31A1B013233064AA2FB03235B0903F0A2
:103E28000F032B44A360FFE700BF1437BD46F0BD66
:103E38001F85EB5180B586B002AFF860B9607A6033
:103E48007968B86800F09CF900F0CEF9F868FEF7D8
:103E580034FC062300222F492F4800F057FE4FF468
:103E68004873009341F288334FF4C8724FF47A7163
:103E7800294800F087FE00F0DFF90346012BFAD14C
:103E880000F09CFC0246254B1A60244B1B68B3F9D2
:103E98000030002B0ED0214B1B68B3F90030012BEA
:103EA80002D01C2B03D02CE000F03AF829E000F0F7
:103EB800DBF826E0194B1B68B3F90230002B20D041
:103EC800164B1B68B3F90230142B11D0142B04DCE9
:103ED8000A2B07D00B2B08D012E0152B0BD0642B24
:103EE8000CD00DE000F0D6F80BE000F0EBF808E09D
:103EF80000F000F905E000F015F902E000F02AF9F9
:103F080000BF064B1B6838220021184601F092FFBB
:103F1800B1E700BFD804002074030020440000204B
:103F280098B500AF474B1B68D3E902014FF0000278
:103F38004FF00003FCF784FD0346002B1FD14248D5
:103F480001F00EF80346002B11D13E4B1B6893ED90
:103F5800027BB0EE470AF0EE670A3B4800F0CAFF62
:103F68003A4B1B680C223A491846FFF7A3F9354B20
:103F78001A684FF000034FF00004C2E90234314BD5
:103F88001B68D3E904014FF000024FF00003FCF76F
:103F980057FD0346002B1FD12E4800F0E1FF0346D2
:103FA800002B11D1274B1B6893ED047BB0EE470A19
:103FB800F0EE670A274800F09DFF244B1B680C228F
:103FC80025491846FFF776F91E4B1A684FF000038B
:103FD8004FF00004C2E904341A4B1B68D3E9060108
:103FE8004FF000024FF00003FCF72AFD0346002BB8
:103FF8001FD11A4800F0B4FF0346002B11D1114B12
:104008001B6893ED067BB0EE470AF0EE670A13488B
:1040180000F070FF0D4B1B680C2211491846FFF782
:1040280049F9084B1A684FF000034FF00004C2E941
:104038000634064B1B6806220A491846FFF73AF968
:1040480000BF98BD44000020740300201001002028
:10405800645E0008B8030020745E0008FC030020BA
:10406800845E0008945E000880B500AF064B1B68AC
:10407800062206491846FFF71DF90021044800F0FA
:1040880015FF00BF80BD00BF10010020A45E00081E
:104098007403002080B500AF074B1B680622074950
:1040A8001846FFF707F900224FF400410448FDF7CE
:1040B80079FD00BF80BD00BF10010020AC5E000884
:1040C8000004024080B500AF074B1B680622074971
:1040D8001846FFF7EFF801224FF400410448FDF7B6
:1040E80061FD00BF80BD00BF10010020B45E000864
:1040F8000004024080B500AF074B1B680622074941
:104108001846FFF7D7F800224FF480410448FDF71E
:1041180049FD00BF80BD00BF10010020BC5E000843
:104128000004024080B500AF074B1B680622074910
:104138001846FFF7BFF801224FF480410448FDF705
:1041480031FD00BF80BD00BF10010020C45E000823
:104158000004024080B500AF064B1B6807220649E1
:104168001846FFF7A7F820210448FDF734FD00BFE3
:1041780080BD00BF10010020CC5E00080000024096
:1041880080B582B000AF78603960144A7B681360EC
:10419800124A3B685360114B114A9A600F4BC82270
:1041A8009A810E4B002283F840220C4B00229A730E
:1041B8000A4B0022DA73094B002283F84222074B8C
:1041C800002283F841224FF40C720021054801F0C7
:1041D80031FE00BF0837BD4680BD00BF100100207A
:1041E800480000202001002080B500AF044B1B6868
:1041F800C82204491846FFF7A3F800BF80BD00BFD6
:10420800100100204800002080B400AF094BDB7B80
:104218001A46084B5B681B685B68C3F1C8039A427F
:1042280001D1002300E001231846BD465DF8047B58
:10423800704700BF1001002080B500AF00F0B0FA51
:104248000346002B01D0012300E00023184680BD5F
:10425800F0B589B000AFC24BDB7B7B81C04B5B689C
:104268001B685B689BB2C3F1C8033B817B89BB6158
:104278000123FB7500233B617A893B899A4204D26A
:104288003A897B89D31AFB830AE07A893B899A4267
:1042980040F278823A897B89D31A9BB2C833FB8370
:1042A800FB8BFB6065E2AF4ABB6913441B783B2B71
:1042B80028D1AB4B93F840320133DAB2A84B83F8DC
:1042C8004022A74B93F841325A1CA74B83FB021399
:1042D8009910D317C91A0B469B000B445B00D11ADF
:1042E800CAB29F4B83F84122BB6901339F4A82FBC4
:1042F80003129111DA178A1AC82101FB02F29B1ADC
:10430800BB613AE2974ABB6913441B782A3B262BC8
:1043180000F2EF8101A252F823F000BFC143000868
:10432800FB460008FB460008FB460008FB46000861
:10433800FB460008FB460008FB460008FB46000851
:10434800FB460008FB460008FB460008FB46000841
:10435800FB460008FB460008FB460008FB46000831
:10436800FB460008FB460008FB460008FB46000821
:10437800FB460008FB460008C1430008C14300088B
:10438800C1430008FB460008FB460008FB4600083E
:10439800C1430008C1430008FB460008FB4600086B
:1043A800FB460008FB460008C1430008FB4600081E
:1043B800FB460008C1430008BB697B60BB69013349
:1043C8006A4A82FB03129111DA178A1AC82101FB83
:1043D80002F29B1ABB61634ABB6913441B782D2BFD
:1043E8002ED1FF23FB75FB68013BFB60BB690133E2
:1043F8005E4A82FB03129111DA178A1AC82101FB5F
:1044080002F29B1ABB611BE0564ABB691344197838
:10441800574A3B6913440A461A703B6901333B61AA
:10442800BB690133514A82FB03129111DA178A1AC8
:10443800C82101FB02F29B1ABB61FB68013BFB60D0
:10444800484ABB6913441B78202B05D0454ABB69F1
:1044580013441B783B2BD7D1424A7B6813441B7803
:104468002A3B262B00F2408101A252F823F000BF1C
:10447800B3460008F1460008F1460008F146000876
:10448800F1460008F1460008F1460008F146000828
:10449800F1460008F1460008F1460008F146000818
:1044A800F1460008F1460008F1460008F146000808
:1044B800F1460008F1460008F1460008F1460008F8
:1044C800F1460008F1460008F14600087D4500085D
:1044D800BB450008F9450008F1460008F146000808
:1044E800F1460008154500083F450008F146000858
:1044F800F1460008F1460008F14600087546000834
:10450800F1460008F146000837460008396918489E
:1045180000F048FA03461A4697F9173003FB02F3EE
:104528001846FBF7BFFF03460C46002044EC103B3F
:1045380000F088F9D8E039690D4800F033FA0346ED
:104548001A4697F9173003FB02F31846FBF7AAFF40
:1045580003460C46012044EC103B00F073F9C3E01D
:104568001001002048000020676666661F85EB5131
:10457800580300203969854800F046FA56EC105B6C
:1045880097F917301846FBF78DFF03460C461A4675
:10459800234628463146FBF7EBFF03460C4644EC1E
:1045A800173B0220B0EE470AF0EE670A00F04AF91E
:1045B8009AE03969754800F027FA56EC105B97F9CC
:1045C80017301846FBF76EFF03460C461A4623467B
:1045D80028463146FBF7CCFF03460C4644EC173B14
:1045E8000320B0EE470AF0EE670A00F02BF97BE0F3
:1045F8003969664800F008FA56EC105B97F91730ED
:104608001846FBF74FFF03460C461A462346284632
:104618003146FBF7ADFF03460C4644EC173B04203C
:10462800B0EE470AF0EE670A00F00CF95CE0396971
:10463800564800F0E9F956EC105B97F91730184620
:10464800FBF730FF03460C461A46234628463146F8
:10465800FBF78EFF03460C4644EC173B0520B0EEF3
:10466800470AF0EE670A00F0EDF83DE0396947487F
:1046780000F0CAF956EC105B97F917301846FBF7AB
:1046880011FF03460C461A46234628463146FBF7D7
:104698006FFF03460C4644EC173B0720B0EE470A71
:1046A800F0EE670A00F0CEF81EE03969374800F0EE
:1046B800ABF956EC105B97F917301846FBF7F2FE8A
:1046C80003460C461A46234628463146FBF750FF58
:1046D80003460C4644EC173B0620B0EE470AF0EEC2
:1046E800670A00F0AFF800BF00233B610123FB75A8
:1046F80000E000BF264ABB6913441B783B2B28D136
:10470800244B93F840320133DAB2224B83F840222B
:10471800204B93F841325A1C1F4B83FB021399100C
:10472800D317C91A0B469B000B445B00D11ACAB2B7
:10473800184B83F84122BB690133184A82FB0312E4
:104748009111DA178A1AC82101FB02F29B1ABB6180
:1047580013E0FB68013BFB60BB6901330F4A82FB36
:1047680003129111DA178A1AC82101FB02F29B1A67
:10477800BB61FB68002B3FF796ADBB69DAB2054B0E
:10478800DA7300E000BF2437BD46F0BD58030020AF
:104798004800002010010020676666661F85EB51FF
:1047A80080B400AF044B93F840329BB21846BD4624
:1047B8005DF8047B704700BF1001002080B483B00F
:1047C80000AF1E4B93F84232FB711C4B93F84132F9
:1047D800FA799A4201D1002329E0184B93F8403224
:1047E800002B01D1002322E0144B93F842325A1CCB
:1047F800134B83FB02139910D317C91A0B469B005E
:104808000B445B00D11ACAB20C4B83F842220B4B03
:1048180093F84032013BDAB2084B83F84022FA7928
:104828001346DB009B1ADB001033044A1344184676
:104838000C37BD465DF8047B704700BF10010020AF
:104848006766666690B585B000AF87ED020B0346D4
:10485800FB71FB79072B00F29F8001A252F823F02D
:1048680089480008B1480008D9480008FB480008F2
:104878001D4900083F4900088349000861490008AC
:10488800474B93F841321C46D7E90201FCF70AF975
:10489800034619B2424A2346DB001B1BDB001344C4
:1048A80010330A461A8077E03D4B93F841321C4694
:1048B800D7E90201FCF7F6F8034619B2384A23464D
:1048C800DB001B1BDB00134412330A461A8063E02B
:1048D800334B93F841321946314A0B46DB005B1AD9
:1048E800DB00134403F11802D7E9023482E8180008
:1048F80052E02B4B93F841321946294A0B46DB000C
:104908005B1ADB00134403F12002D7E9023482E882
:10491800180041E0224B93F841321946204A0B46D1
:10492800DB005B1ADB00134403F12802D7E90234E9
:1049380082E8180030E01A4B93F841321946184AB9
:104948000B46DB005B1ADB00134403F13002D7E9A6
:10495800023482E818001FE0114B93F841321946DF
:104968000F4A0B46DB005B1ADB00134403F14002DD
:10497800D7E9023482E818000EE0094B93F8413277
:1049880007495A1C1346DB009B1ADB00CA18D7E9F3
:10499800023482E8180000BF00BF1437BD4690BD3E
:1049A8001001002080B487B000AF78603960002320
:1049B800FB8201233B613B68013BFB6017E0FB681E
:1049C8007A6813441B78303B9AB23B699BB212FB5E
:1049D80003F39AB2FB8A13449BB2FB823A691346EB
:1049E8009B0013445B003B61FB68013BFB60FB6879
:1049F800002BE4DAB7F9163018461C37BD465DF8C7
:104A0800047B70470000000090B58BB000AF786061
:104A180039604FF000034FF00004C7E90834012360
:104A2800FB614FF00003324CC7E904343B68013B9B
:104A3800FB604AE0FB687A6813441B782E2B24D16C
:104A48000023BB600DE028A3D3E90023D7E90401C4
:104A5800FBF78EFD03460C46C7E90434BB680133F7
:104A6800BB603B685A1EFB68D21ABB689A42EADCF4
:104A7800D7E90423D7E90801FBF77AFD03460C467A
:104A8800C7E908340123FB611CE0FB687A6813441A
:104A98001B78303BFA6902FB03F31846FBF702FD6B
:104AA80003460C461A462346D7E90801FBF7AEFB36
:104AB80003460C46C7E90834FA6913469B001344B9
:104AC8005B00FB61FB68013BFB60FB68002BB1DA14
:104AD800D7E9083444EC173BB0EE470AF0EE670A12
:104AE8002C37BD4690BD00BF9A9999999999B93FBD
:104AF8000000F03F80B500AFFFF786FB0346012BAF
:104B080001D1FFF7A5FB00BF80BD000080B584B0D0
:104B180000AFF860B96011461A460B46FB711346A0
:104B2800BB71FB68BA685A60BB681A68FB689A6010
:104B3800FB68FA791A73114B1B785A1CD1B20F4AC9
:104B48001170FA681370FB6800229A73FB684FF4BF
:104B580080621A61FB68BA795A73FB685B7B5BB247
:104B68001846FCF7FAFA064B5B680021F868984784
:104B7800012318461037BD4680BD00BF6C030020D6
:104B88000800002080B485B000AFF860B9607A6092
:104B98003B60FB68BA685A62FB687A689A62FB688D
:104BA8003A681A63BB69002B01D0BB6901E04FF476
:104BB8004863FA685363FB6800229A61FB68022223
:104BC8001A75FB6803225A75012318461437BD4627
:104BD8005DF8047B704780B489B000AF78603960B5
:104BE8007B685B6BBB617B681B6B7B617B685B6A0B
:104BF8003B617B689B6AFB607A69BB69D31A7969F8
:104C0800BA690A4402FB03F3FB61FB69BB60FA69FA
:104C18003B69B2FBF3F3FB61FB695B08FB61BA68B4
:104C2800FB68B2FBF3F3BB60BB685B08BB60FA6967
:104C3800BB681A443B689A421ED9FB683A6802FB73
:104C480003F23969FB680B44B2FBF3F3BB60BB6842
:104C5800012B08D9BB68013BFB61FB69002B04D120
:104C68000123FB6101E00023FB617B68FA699A6319
:104C78007B68BA68DA6308E07B68FA699A633A681D
:104C8800BB68D31A5A1E7B68DA6300231846243798
:104C9800BD465DF8047B704780B584B000AF78608E
:104CA8003960FDF791F9F8607B681B693A6802FB87
:104CB80003F3FA68B2FBF3F3013BBB607B685B6804
:104CC8001B68BA68DA627B685B68BA68DA607B6816
:104CD8005B681B6803F134027B681B7BDBB29B08B3
:104CE800DBB29B001344BA6852081A607B685A68A2
:104CF8007B681B7BDBB219461046FDF725FD0023B8
:104D080018461037BD4680BD80B582B000AF7860C8
:104D18000B4B5B680021786898477B685A687B680A
:104D28001B7BDBB219461046FDF77CFD044B9B69E3
:104D380078689847002318460837BD4680BD00BFED
:104D48000800002080B582B000AF78607B68002240
:104D58001A647B680022DA610D4B5B680121786870
:104D680098477B689B6B002B03D07B6800225A75A1
:104D780002E07B6801225A757B685B6B194678688C
:104D8800FFF78AFF002318460837BD4680BD00BFDD
:104D98000800002080B582B000AF786039607B6879
:104DA8009B7BDBB2002B28D17B6801229A733B687E
:104DB800002B01D1002321E03B68002B0ADA3B6875
:104DC8005B421A467B681A620E4B1B6801217868A1
:104DD800984707E03A687B681A620A4B1B6800210B
:104DE800786898477B681B6A19467868FFF7F3FE6E
:104DF8007868FFF7A7FF002300E00023184608376C
:104E0800BD4680BD0800002080B582B000AF786044
:104E18000B467B8013463B807B689B7BDBB2002B79
:104E28003CD17B6801229A73B7F90230002B04D178
:104E38007B6800229A73002332E0B7F90230002B16
:104E480005DA194B1B6801217868984704E0164B6E
:104E58001B680021786898477B6800221A647B6881
:104E680000229A637B680022DA637B6800221A6258
:104E78007B680022DA617B6806225A750A4B5B68F8
:104E8800012178689847B7F90230002BB8BF5B4218
:104E980019467868FFF700FF002301E04FF0FF3361
:104EA80018460837BD4680BD0800002080B582B08E
:104EB80000AF78600B467B807B88002B05D10022F1
:104EC8000B497868FFF7A0FF06E0B7F90230002227
:104ED80019467868FFF798FF7B685B7B5BB21846DA
:104EE800FCF72DF9002318460837BD4680BD00BFE2
:104EF80080F3FFFF80B584B000AFF86087ED000B4A
:104F080097ED000B00F062F803461946F868FFF7C2
:104F180041FF034618461037BD4680BD80B584B0B2
:104F280000AFF86087ED000B97ED000B00F034F848
:104F380003461946F868FFF72DFF03461846103751
:104F4800BD4680BD80B483B000AF78607B68052221
:104F58005A75052318460C37BD465DF8047B704723
:104F680080B483B000AF78607B689B7BDBB2184667
:104F78000C37BD465DF8047B704780B483B000AF42
:104F880078607B6800229A61002318460C37BD467A
:104F98005DF8047B7047000090B583B000AF87EDE3
:104FA800000B4FF00002084BD7E90001FBF7E0FACD
:104FB80003460C4618462146FBF79CFD0346184657
:104FC8000C37BD4690BD00BF0000A94090B583B026
:104FD80000AF87ED000B4FF000020C4BD7E9000142
:104FE800FBF7F0FB03460C46184621464FF000023B
:104FF800074BFBF7BDFA03460C4618462146FBF75C
:1050080079FD034618460C37BD4690BD0000204088
:105018000000A94080B588B000AF78607B68DB6984
:1050280001337A68D3617B617B681B6A3B617B686B
:10503800DB6AFB617B685B6A1B04FB607B689B6ABD
:105048001B04BB607B681B7DDBB2002B01D00123F6
:1050580001E04FF0FF337A6892691A447B689A61DD
:105068000023FB767B685B7DDBB2062B00F2FE80BB
:1050780001A252F823F000BFC35000088151000874
:105088004F51000831520008815100083152000880
:105098009D5000087B685B7DDBB2052B03D17B68E4
:1050A80003225A75E4E07B685B7DDBB2042B40F099
:1050B800DF807B6801225A75DAE07A693B699A4297
:1050C80003D37B6803225A75D4E07B689A6B7B69AB
:1050D8009A4203D87B6802225A75CBE0FB69002B01
:1050E80001D10123FB617B681A6CF968FB69B1FB8C
:1050F800F3F31A447B681A640AE07B681B6CA3F517
:1051080080327B681A64FB690133FB610123FB76FB
:105118007B681B6CB3F5803FEFD2FB7E012B40F020
:10512800A9800023FB767B681A6BFB699A4202D23E
:105138007B681B6BFB617B68FA69DA62F9697868DE
:10514800FFF7AAFD96E07B68DA6B7B699A4206D87E
:105158007B6800221A647B6801225A758CE07B68A0
:105168009A6B7B699A42C0F087807B6800221A6438
:105178007B6800225A757FE07A693B699A4204D2BB
:105188007B685A6BFB699A4203D37B6803225A7582
:1051980074E07B68DA6B7B699A4203D37B680222EE
:1051A8005A756BE07B685B7DDBB2052B03D17B68AE
:1051B80003225A7562E00023BB76FB69002B01D1FC
:1051C8000123FB617B681A6CB968FB69B1FBF3F3D7
:1051D8001A447B681A640DE07B681B6CA3F5803267
:1051E8007B681A64FB69012B02D9FB69013BFB61EF
:1051F8000123BB767B681B6CB3F5803FECD2BB7E8A
:10520800012B3BD10023BB767B685A6BFB699A4222
:1052180002D97B685B6BFB617B68FA69DA62F969C2
:105228007868FFF739FD29E07B68DB697A68127DC9
:10523800D2B202FB03F3002B01D0012301E04FF0AF
:10524800FF337A6892691A447B689A617B68002206
:10525800DA617B6800221A627B6800229A737B6895
:1052680003225A757868FFF74FFD08E000BF06E093
:1052780000BF04E000BF02E000BF00E000BF002361
:1052880018462037BD4680BD80B582B000AF786033
:105298007B685B7B5BB21846FBF75FFF7868FFF7BC
:1052A80051FE7868FFF769FE002318460837BD46A7
:1052B80080BD000080B582B000AF78600B46FB70FF
:1052C8007B681B78DBB2002B00D00CE0FB78002B4E
:1052D80014BF01230023DBB21A464FF400410448EF
:1052E800FCF760FC00BF00BF0837BD4680BD00BFAB
:1052F8000004024080B582B000AF78600B46FB70B6
:105308007B681B78DBB2002B00D00CE0FB78002B0D
:105318000CBF01230023DBB21A464FF40071044886
:10532800FCF740FC00BF00BF0837BD4680BD00BF8A
:105338000008024080B582B000AF78607B681B78B7
:10534800DBB2032B22D801A252F823F065530008E0
:10535800715300087D5300088953000809220E493B
:105368000E48FDF7A7FF12E009220D490B48FDF78B
:10537800A1FF0CE009220B490848FDF79BFF06E056
:10538800092209490548FDF795FF00E000BF00BF65
:105398000837BD4680BD00BFD45E0008F005002078
:1053A800E05E0008EC5E0008F85E000880B582B098
:1053B80000AF78607B681A68054B9B689A4202D1F7
:1053C8000348FFF727FE00BF0837BD4680BD00BF72
:1053D8007403002080B500AF054B5B6903F001033F
:1053E800002B02D00348FFF74FFF00BF80BD00BF6E
:1053F800003C01407403002080B582B000AF002358
:105408007B600C4A0B4B1B6B43F400131363094B73
:105418001B6B03F400137B607B68002200211020C3
:10542800FBF771FE1020FBF78AFE00BF0837BD4668
:1054380080BD00BF0038024080B58AB000AF07F1D8
:10544800140300221A605A609A60DA601A61002315
:105458003B61494A484B1B6B43F004031363464BBB
:105468001B6B03F004033B613B690023FB60424A6A
:10547800414B1B6B43F0800313633F4B1B6B03F0E3
:105488008003FB60FB680023BB603B4A3A4B1B6B05
:1054980043F001031363384B1B6B03F00103BB603C
:1054A800BB6800237B60344A334B1B6B43F0020319
:1054B8001363314B1B6B03F002037B607B68002294
:1054C80030212E48FCF76EFB002248F203012C48DD
:1054D800FCF768FB00224FF400712A48FCF762FBD6
:1054E80009237B61284BBB610023FB6107F114038F
:1054F80019462448FCF7E4F930237B610123BB619A
:105508000023FB6100233B6207F1140319461B4883
:10551800FCF7D6F948F203037B610123BB61002342
:10552800FB6100233B6207F1140319461448FCF79A
:10553800C7F94FF400737B610123BB610023FB6152
:1055480000233B6207F1140319460E48FCF7B8F92B
:10555800002200210620FBF7D6FD0620FBF7EFFD11
:10556800002200210920FBF7CEFD0920FBF7E7FD0B
:1055780000BF2837BD4680BD003802400000024009
:1055880000040240000802400000111080B500AF7E
:10559800124B134A1A60114B124A5A600F4B0022E1
:1055A8009A600E4B0022DA600C4B4FF480421A616D
:1055B8000A4B00225A61094B00229A61074B0022CC
:1055C800DA61064B00221A620448FCF73BFB0346EB
:1055D800002B01D000F0E8F800BF80BD8404002053
:1055E80000580040A086010080B58AB000AF7860FE
:1055F80007F1140300221A605A609A60DA601A618F
:105608007B681B68194A93422CD100233B61184AD6
:10561800174B1B6B43F002031363154B1B6B03F013
:1056280002033B613B694FF440637B611223BB611A
:105638000123FB6103233B6204237B6207F114030C
:1056480019460C48FCF73CF90023FB60084A084B54
:105658001B6C43F480031364054B1B6C03F4800339
:10566800FB60FB6800BF2837BD4680BD005800407E
:10567800003802400004024080B592B000AFFBF74A
:10568800E1FB00F027F8FFF7D7FEFFF7B5FE00F0C3
:10569800A1FA00F075FA00F061F900F0B5F9FFF72A
:1056A80075FF094A09490A48FEF7C4FB3B1D9FEDEF
:1056B800040B1846FFF732FCFEE700BFAFF300808B
:1056C800000000000000144050050020F0050020F4
:1056D8001405002080B594B000AF07F11C033422F4
:1056E8000021184600F0A6FB07F1080300221A6003
:1056F8005A609A60DA601A6100237B60284A284B56
:105708001B6C43F080531364254B1B6C03F08053D0
:105718007B607B6800233B60224A224B1B6843F472
:10572800404313601F4B1B6803F440433B603B68D6
:105738000223FB610123BB621023FB6202237B630C
:105748000023BB630823FB6364233B6402237B645D
:105758000423BB640223FB6407F11C031846FCF70F
:105768003FFD0346002B01D000F01EF80F23BB605D
:105778000223FB6000233B614FF480537B610023CD
:10578800BB6107F1080303211846FCF73BFB0346FE
:10579800002B01D000F008F800BF5037BD4680BD8F
:1057A800003802400070004080B400AF00BFBD4622
:1057B8005DF8047B7047000080B582B000AF00231D
:1057C8007B60104A0F4B5B6C43F4804353640D4B72
:1057D8005B6C03F480437B607B6800233B60094A71
:1057E800084B1B6C43F080531364064B1B6C03F08F
:1057F80080533B603B680720FBF77AFC00BF083703
:10580800BD4680BD0038024080B582B000AF7860E8
:105818007868FFF7CBFD00BF0837BD4680BD80B470
:1058280000AF00BFBD465DF8047B704780B400AF91
:10583800FEE780B400AFFEE780B400AFFEE780B4B7
:1058480000AFFEE780B400AF00BFBD465DF8047B43
:10585800704780B400AF00BFBD465DF8047B704759
:1058680080B400AF00BFBD465DF8047B704780B5CB
:1058780000AFFBF739FB00BF80BD80B500AFFFF775
:10588800A9FD0120FCF7BAF900BF80BD80B500AFC3
:105898000820FCF7B3F900BF80BD000080B500AF59
:1058A8000248FBF7A5FD00BF80BD00BF50050020E2
:1058B80080B500AF0248FDF7C3FD00BF80BD00BF43
:1058C800F005002080B500AF0248FDF739F800BFA9
:1058D80080BD00BFD804002080B500AFFFF70AF9EB
:1058E8000248FDF72DF800BF80BD00BF1405002059
:1058F80080B400AF164A164BD3F8883043F47003CF
:10590800C2F88830134A134B1B6843F00103136035
:10591800104B00229A600F4A0E4B1B6823F08473C9
:1059280023F4803313600B4B0B4A5A60094A094B26
:105938001B6823F480231360064B0022DA60044BB3
:105948004FF000629A6000BFBD465DF8047B704767
:1059580000ED00E0003802401030002480B58AB025
:1059680000AF07F1200300221A605A603B1D002295
:105978001A605A609A60DA601A615A619A61204B1B
:10598800204A1A601E4B40F2FF325A601C4B00221C
:105998009A601B4B0022DA60194B00221A611848E2
:1059A800FCF7A6FE0346002B01D0FFF7FDFE0023FF
:1059B8003B6200237B6207F1200319461048FDF77C
:1059C800D3FB0346002B01D0FFF7EEFE60237B607C
:1059D8000023BB600023FB6000237B613B1D00228A
:1059E80019460748FDF7B4F80346002B01D0FFF726
:1059F800DBFE034800F08AF800BF2837BD4680BDAB
:105A0800D8040020000C004080B582B000AF3B46AF
:105A180000221A605A60134B134A1A60114B4CF259
:105A280050325A600F4B00229A600E4BC722DA6040
:105A38000C48FCF717FE0346002B01D0FFF7B4FE15
:105A480000233B6000237B603B4619460548FDF771
:105A58008BFB0346002B01D0FFF7A6FE00BF0837DB
:105A6800BD4680BD140500200010004080B584B0FC
:105A780000AF78607B681B680E4A934215D10023FB
:105A8800FB600D4A0C4B1B6C43F0080313640A4B74
:105A98001B6C03F00803FB60FB6800220021322026
:105AA800FBF731FB3220FBF74AFB00BF1037BD463E
:105AB80080BD00BF000C00400038024080B584B0B3
:105AC80000AF78607B681B680E4A934215D10023AB
